:100000000C94E8000C9410010C9410010C94100155
:100010000C9410010C9410010C9410010C9410011C
:100020000C9410010C9410010C94F4030C945D04D6
:100030000C9410010C9410010C9410010C941001FC
:100040000C9410010C9410010C9410010C941001EC
:100050000C9410010C9410010C9410010C949A064D
:100060000C9410010C9410010C9410010C941001CC
:100070000C9410010C9410010C9410010C941001BC
:100080000C9410010C9410010C9410010C941001AC
:100090000C9410010C94100138013B012A012E012F
:1000A000320156013F01430149014D015101000058
:1000B0002100240027002A002D003000080B000238
:1000C00002020100090400000102020000052400F0
:1000D0001001052401010104240206052406000183
:1000E0000705810310004009040100020A00000016
:1000F00007050202400000070583024000000403D8
:1001000009041201000202020040E0D31B60000259
:10011000010203014477656E676F204C4C43004435
:1001200077656E6775696E6F20626F61726400003B
:10013000002200250028002B002E003100040402BC
:10014000020402020404040202020204040505057A
:100150000505050505060606060606060601010153
:100160000101010101030303030303030304080462
:1001700080804020402010011008020102804020B1
:10018000100804020180402010080402010102044A
:100190000810204080010204081020408000000068
:1001A0000500040300000000070000020800000032
:1001B000000000000000000000000000000000003F
:1001C0000000000000000000000B0A090000E40627
:1001D00011241FBECFEFD0E1DEBFCDBF11E0A0E004
:1001E000B1E0EAE8FFE002C005900D92A632B10747
:1001F000D9F721E0A6E2B1E001C01D92A539B2070E
:10020000E1F710E0C8EED0E004C02197FE010E94A3
:10021000B807C73ED107C9F70E94F9060C94C30777
:100220000C940000EEE9F1E04491EEE6F1E0249157
:10023000EEE3F1E09491992309F44CC04423B1F129
:1002400050E0FA013197EB30F10580F5E45BFF4FA8
:100250000C94B807309180003F7707C03091800040
:100260003F7D03C030918000377F309380001EC0F7
:1002700034B53F7702C034B53F7D34BD17C03091EF
:10028000B0003F7703C03091B0003F7D3093B000A5
:100290000DC0309190003F7707C0309190003F7DB6
:1002A00003C030919000377F30939000E92FF0E049
:1002B000EE0FFF1FE15DFE4FA591B4919FB7F8943B
:1002C000811104C08C912095282302C0EC912E2B23
:1002D0002C939FBF0895CF93DF931F92CDB7DEB7C6
:1002E00080919401811103C08FEF9FEF29C03FB728
:1002F000F89482E08093E9008091F20090E0181673
:10030000190614F481E090E0282FFE01319644E6AE
:10031000215030F0409393015091F1005193F8CF68
:10032000009721F02091F200222331F03FBF019786
:10033000D9F6898190E004C02BE62093E800F6CF3F
:100340000F90DF91CF9108952FB7F89483E08093B9
:10035000E9009091E800892F807295FF04C0909188
:10036000F20080E4891B2FBF0895CF92DF92EF92B5
:10037000FF920F931F93CF93DF936C017A018B0150
:10038000C0E0D0E0CE15DF0581F0D8016D918D0180
:10039000D601ED91FC910190F081E02DC601099507
:1003A000892B11F02196EECF7E01C701DF91CF910D
:1003B0001F910F91FF90EF90DF90CF900895809163
:1003C0008B0181110DC082E08093870184E08093CE
:1003D000880110928A011092890181E080938B013B
:1003E00087E891E00895CF93DF931F92CDB7DEB7F2
:1003F0006983DC01ED91FC910280F381E02D41E005
:1004000050E0BE016F5F7F4F09950F90DF91CF9154
:10041000089583E08093E9008091F200882319F029
:100420008AE38093E80008950E94A40190E0089573
:10043000FC018485958597FD05C02FEF3FEF35873B
:10044000248708950C946B01CF93DF93EC018C8586
:100450009D8597FF04C00E946B019D878C878C85CA
:100460009D85DF91CF910895FC018485958597FD49
:100470000BC09FB7F89482E08093E9008091F2006E
:100480009FBF90E0019608959FB7F89482E0809313
:10049000E9008091F2009FBF90E00895089580E008
:1004A00090E00895409131015091320120912F0147
:1004B0003091300142175307B4F49091E8009570E1
:1004C000E1F39091E80092FD19C08093F1008091D2
:1004D00031019091320101968F739927892B19F47C
:1004E0008EEF8093E8008091310190913201019666
:1004F000909332018093310181E0089580E0089566
:10050000DF92EF92FF920F931F93CF93DF93D82E3A
:10051000F92EE42E062F10E0C8010196880F0E94E4
:10052000520283E00E945202CD2DDF2D0C0F1D1FC1
:10053000C017D10789F0E7FE03C0FE01849101C016
:1005400088810E945202F82E80E00E9452028F2180
:1005500021968111EDCF01C081E0DF91CF911F91F4
:100560000F91FF90EF90DF900895DF92EF92FF924E
:100570000F931F93CF93DF93D82E8A017B01E40E54
:10058000F51EEB01CE15DF0571F0D7FE03C0FE01AD
:10059000849101C088810E94520221968111F2CF7C
:1005A0008FEF9FEF01C0C801DF91CF911F910F9195
:1005B000FF90EF90DF9008950F931F93CF93DF93F9
:1005C0001F92CDB7DEB782E0898342E450E06CEB46
:1005D00070E080E80E94B5020E94DF01DC01129603
:1005E0000D911C9113970115110589F0D801ED911A
:1005F000FC910280F381E02DBE016F5F7F4FC80147
:10060000099597FD04C0F80100851185ECCF89811B
:100610000F90DF91CF911F910F9108953FB7F894FC
:1006200080912B0190912C01A0912D01B0912E0170
:1006300026B5A89B05C02F3F19F00196A11DB11D3D
:100640003FBFBA2FA92F982F8827820F911DA11D78
:10065000B11DBC01CD0142E0660F771F881F991FB5
:100660004A95D1F708958F929F92AF92BF92CF9201
:10067000DF92EF92FF926B017C010E940E034B010F
:100680005C01C114D104E104F104F1F00E940E03F5
:10069000DC01CB0188199909AA09BB09883E93405E
:1006A000A105B10570F321E0C21AD108E108F108F3
:1006B00088EE880E83E0981EA11CB11CC114D104E1
:1006C000E104F10419F7DDCFFF90EF90DF90CF90B8
:1006D000BF90AF909F908F9008958F929F92AF920E
:1006E000BF92CF92DF92EF92FF920F931F93CF931F
:1006F000DF936C017B018A0180910B01882309F44F
:100700005BC080919401882309F456C08091360122
:1007100080FF05C08091E00082608093E000E801E6
:10072000B12C8AEFA82E93E0892E2AE3922E2097EF
:1007300011F4BB20D9F10E94A40181110AC0AA942E
:10074000AA20D1F161E070E080E090E00E943303E4
:10075000EECF282F30E0C217D3070CF48C2F9FB7B1
:10076000F8948092E9002091E80025FF1DC0282F11
:1007700030E0C21BD30BF701815020F04191409330
:10078000F100FACFE20EF31EBB2019F09092E800C0
:100790000AC08091E80085FD07C09092E800BB2464
:1007A000B394209709F0B12C9FBFC1CF84E680930A
:1007B00035011016110644F081E090E0F6019383B4
:1007C000828380E090E001C0C801DF91CF911F914A
:1007D0000F91FF90EF90DF90CF90BF90AF909F90E0
:1007E0008F9008950E94BE071F920F920FB60F922E
:1007F00011248F939F938091E1009091E100937F6A
:100800009093E10083FF0FC01092E90091E0909374
:10081000EB001092EC0092E39093ED0010929401A3
:1008200098E09093F00082FF1CC093E09093E90061
:100830009091F200992319F09AE39093E800909137
:100840003501992329F0909135019150909335010C
:1008500090919301992329F0909193019150909355
:10086000930184FF10C08091E2008E7E81608093AE
:10087000E2008091E1008F7E8093E100809136015B
:100880008E7E806111C080FF11C08091E2008E7E5B
:1008900080618093E2008091E1008E7E8093E10090
:1008A000809136018E7E8160809336019F918F9179
:1008B0000F900FBE0F901F9018951F920F920FB6BA
:1008C0000F921124DF92EF92FF920F931F932F93B9
:1008D0003F934F935F936F937F938F939F93AF93C8
:1008E000BF93EF93FF93CF93DF93CDB7DEB76C97B2
:1008F000DEBFCDBF1092E9008091E80083FFFCC10C
:1009000089E0FE017596EE2EDF2E815029F0909140
:10091000F10090833196F9CF84E68093930182EFC2
:100920008093E8008D8987FF05C09091E80090FFD3
:10093000FCCF03C09EEF9093E800982F907609F0CB
:10094000C5C09E894F89588D2F89F88C91110CC094
:10095000803829F4809134018093F10002C0109214
:10096000F1001092F100C1C1913051F48111BDC16B
:100970004130510509F0B9C1809134018D7F0BC020
:10098000933061F48111B1C14130510509F0ADC11D
:1009900080913401826080933401A7C1953049F47D
:1009A0008091E80080FFFCCF822F80688093E30075
:1009B0009CC1963009F05DC00B8D1C8D22E0109219
:1009C000E9001092320110923101F21232C01092FD
:1009D000300110922F010E94DC0299E0BE016F5F8E
:1009E0007F4FDB01E92F1D92EA95E9F79983FA829F
:1009F00091E09E8390EA98879AEF99872091310140
:100A000030913201275F3F4F3C832B838D831092BF
:100A1000E9001092320110923101109330010093DD
:100A20002F0149E050E080E00E94B5020E94DC0204
:100A30005CC11093300100932F010E94DF01DC01A3
:100A400012960D911C9113970115110509F4C5C05B
:100A5000D801ED91FC910480F581E02D6E2D7D2D66
:100A6000C8010995009709F0B3C0F8010085118508
:100A7000EBCF973009F43DC1983021F481E08093A9
:100A8000F10033C1993009F030C1837009F031C1F0
:100A9000EDE0F1E081E031E096E32081211109C031
:100AA0008EE78093EA001092EA008F898093940188
:100AB0001CC18093E9003093EB0021912093EC005E
:100AC0009093ED008F5F873041F7EACF8B8D9C8D3F
:100AD0001092E9001092320110923101909330018E
:100AE00080932F01898D811158C08E899D89913AFB
:100AF00049F4813209F0FDC047E050E064E071E064
:100B000080E0BCC0913209F0F4C0833269F48F896F
:100B1000988DA0E0B0E08093000190930101A09334
:100B20000201B0930301E1C08032A9F48091E80092
:100B300082FFFCCF88E0E4E0F1E0815029F0909161
:100B4000F10090833196F9CF84E6809393018BEF87
:100B50008093E80006C0823209F0C7C08F89809375
:100B60000B0180913301811103C0E0E0F8E002C085
:100B7000EEEFF0E18091040190910501A091060152
:100B8000B0910701803B9440A105B10509F092C0E6
:100B900080910B0180FF75C08DC00E94DF01DC01D8
:100BA00012960D911C9113970115110509F4A1C01E
:100BB000D801ED91FC910190F081E02D6E2D7D2DFD
:100BC000C8010995811191C0F80100851185ECCF0C
:100BD000181619060CF489C08CC0F1E0FF1609F450
:100BE00044C0F3E0FF1285C08F89882309F440C018
:100BF000823029F440E86FE08FE191E006C0813057
:100C000051F440E86AE084E191E00E948002882388
:100C100009F46FC06AC0833009F06BC0DE01119621
:100C2000EEE0F0E0CD0131E2309357002491422F05
:100C300050E064E0559547956A95E1F72F704A308A
:100C400010F4405D01C0495C4C932A3010F4205DE3
:100C500001C0295C11962C93119731961296E831B8
:100C6000F10511F740E064E1D0CF62E071E002C02D
:100C70006EEF70E0FB01449150E080E80E94B50205
:100C800034C0EE3F20E1F20731F0808191819093F2
:100C9000FF108093FE1087E797E7918380839BE0A6
:100CA00088E10FB6F894A895809360000FBE9093EA
:100CB00060001BC00FB6F894A89580916000886111
:100CC00080936000109260000FBEA895EE3F80E117
:100CD000F80739F08091FE109091FF109183808386
:100CE00004C01092FF101092FE108EEF8093E80067
:100CF00003C081E28093EB006C960FB6F894DEBFE0
:100D00000FBECDBFDF91CF91FF91EF91BF91AF911A
:100D10009F918F917F916F915F914F913F912F9113
:100D20001F910F91FF90EF90DF900F900FBE0F90EB
:100D30001F9018951F920F920FB60F9211242F93A8
:100D40003F938F939F93AF93BF938091270190918F
:100D50002801A0912901B0912A013091260123E0B8
:100D6000230F2D3720F40196A11DB11D05C026E8E3
:100D7000230F0296A11DB11D209326018093270108
:100D800090932801A0932901B0932A0180912B010F
:100D900090912C01A0912D01B0912E010196A11DE1
:100DA000B11D80932B0190932C01A0932D01B09342
:100DB0002E01BF91AF919F918F913F912F910F90F5
:100DC0000FBE0F901F901895E7E3F1E01382128297
:100DD00088EE93E0A0E0B0E084839583A683B78398
:100DE00087E191E0918380838FEF9FEF95878487E0
:100DF0000895789484B5826084BD84B5816084BD93
:100E000085B5826085BD85B5816085BD80916E00A8
:100E1000816080936E0010928100809181008260D9
:100E20008093810080918100816080938100809116
:100E300080008160809380008091B1008460809305
:100E4000B1008091B00081608093B00080919100EA
:100E500082608093910080919100816080939100E5
:100E60008091900081608093900080917A008460EE
:100E700080937A0080917A00826080937A008091DA
:100E80007A00816080937A0080917A0080688093F4
:100E90007A001092940110923401109236018091E0
:100EA000D70081608093D70080EA8093D80089B50D
:100EB000837E886189BD89B5826089BD09B400FEE1
:100EC000FDCF61E070E080E090E00E94330380910C
:100ED000D8008F7C80618093D8008091E000887F6B
:100EE0008093E0008091E1008E7E8093E1008DE0B0
:100EF0008093E200EEEFFFEF859194918B3F9C4D44
:100F000019F481E080933301EEE6F1E02491EEE301
:100F1000F1E08491882399F090E0880F991FFC01FB
:100F2000E255FF4FA591B491FC01E15DFE4F859123
:100F300094918FB7F894EC91E22BEC938FBFC0E0C3
:100F4000D0E081E00E94120168EE73E080E090E062
:100F50000E94330380E00E94120168EE73E080E09B
:100F600090E00E943303209761F30E940000E9CFD4
:100F7000EE0FFF1F0590F491E02D099481E090E0C1
:0A0F8000F8940C94C307F894FFCF17
:100F8A00FFFFFFFF00E100000000000000C18081B8
:100F9A0000000000000000F3016D0314020902348E
:060FAA00021802240200FF
:00000001FF
