:1000000023C032C031C030C02FC02EC02DC02CC084
:100010002BC02AC029C099C027C026C025C024C033
:1000200023C022C021C020C01FC01EC01DC01CC0D4
:100030001BC01AC019C018C017C016C0010204089E
:10004000102040800402010811241FBECFEFD1E030
:10005000DEBFCDBF21E0A0E0B1E001C01D92A9301C
:10006000B207E1F7BCD012C1CBCFE4E4F0E0E491F9
:100070009091CA009F739093CA009E2F90952FB7BE
:10008000811105C0F89488B3892388BB04C0F89413
:1000900088B3E82BE8BB80916200982390936200BC
:1000A0002FBF08953FB7F894809105019091060104
:1000B000A0910701B091080122B708B600FE05C063
:1000C0002F3F19F00196A11DB11D3FBFBA2FA92FD7
:1000D000982F8827820F911DA11DB11DBC01CD0154
:1000E00043E0660F771F881F991F4A95D1F708953F
:1000F000CF92DF92EF92FF92CF93DF93D3DFEB01AA
:1001000088EEC82E83E0D82EE12CF12CCBDF6C1BBF
:100110007D0B683E734068F0C114D104E104F10422
:1001200069F081E0C81AD108E108F108C851DC4F34
:10013000EDCFC114D104E104F10441F7DF91CF9177
:10014000FF90EF90DF90CF9008951F920F920FB61F
:100150000F9211242F933F938F939F93AF93BF934D
:100160008091010190910201A0910301B0910401DD
:100170003091000126E0230F2D3730F029E8230FBE
:100180000396A11DB11D03C00296A11DB11D2093B0
:1001900000018093010190930201A0930301B093A9
:1001A00004018091050190910601A0910701B09191
:1001B00008010196A11DB11D8093050190930601D0
:1001C000A0930701B0930801BF91AF919F918F91C8
:1001D0003F912F910F900FBE0F901F90189578941C
:1001E00080B7836080BF83B7877F83BF83B7887FF3
:1001F000836083BF89B7816089BF8091C900887F90
:100200008093C9008091CA008C7F81608093CA006E
:100210008091C900877E8093C9008091C900887F42
:1002200083608093C9008EB5887F8EBD8FB58C7F2B
:1002300081608FBD8EB5877E8EBD8EB5887F8360D1
:100240008EBD80E18093670084EA809368008CEF24
:100250008093660085B1887F866085B92F9AE4E433
:10026000F0E0E4919FB7F894809162002E2F2095E2
:1002700082238093620087B3E82BE7BB9FBF81E0B6
:10028000F4DE36DF80E0F1DE33DFF9CFF894FFCF24
:00000001FF
