:100000000C9464000C9476000C9476000C947600AA
:100010000C9476000C9476000C9476000C94760088
:100020000C9476000C9411010C9476000C947600DC
:100030000C9476000C9476000C9476000C94760068
:100040000C9476000C9476000C9476000C94760058
:100050000C94760000003A003700340031000000B4
:100060003B003800350032000202020202020202A6
:100070000404040404040404030303030303030348
:100080000101010101010101010204081020408069
:100090000102040810204080010204081020408062
:1000A000010204081020408000000002000000004F
:1000B0000000000005040007000000000000000030
:1000C000000000000000000011241FBECFE5D4E0B6
:1000D000DEBFCDBF20E0A0E6B0E001C01D92A93692
:1000E000B207E1F70E945B010C94AC010C94000094
:1000F000E8EAF0E09491E8E8F0E02491E8E6F0E046
:10010000E491EE2379F19923D1F0943071F028F441
:10011000913091F0923081F012C0953049F09730D3
:1001200071F495B59F7D95BD0AC09FB59F7702C0BC
:100130009FB59F7D9FBD03C093B79F7D93BFF0E0A8
:10014000EE0FFF1FE25AFF4FA591B4919FB7F894AD
:10015000811104C08C912095282302C0EC912E2B94
:100160002C939FBF08953FB7F894809165009091BC
:100170006600A0916700B091680022B708B600FE43
:1001800005C02F3F19F00196A11DB11D3FBFBA2F29
:10019000A92F982F8827820F911DA11DB11DBC0189
:1001A000CD0142E0660F771F881F991F4A95D1F74E
:1001B00008958F929F92AF92BF92CF92DF92EF926B
:1001C000FF920E94B3004B015C0188EEC82E83E0D1
:1001D000D82EE12CF12C0E94B300DC01CB01881950
:1001E0009909AA09BB09883E9340A105B10598F376
:1001F00021E0C21AD108E108F10888EE880E83E0F8
:10020000981EA11CB11CC114D104E104F10419F71A
:10021000FF90EF90DF90CF90BF90AF909F908F9026
:1002200008951F920F920FB60F9211242F933F93B0
:100230008F939F93AF93BF938091610090916200E1
:10024000A0916300B09164003091600023E0230F1F
:100250002D3720F40196A11DB11D05C026E8230FFE
:100260000296A11DB11D20936000809361009093C0
:100270006200A0936300B093640080916500909148
:100280006600A0916700B09168000196A11DB11DA4
:100290008093650090936600A0936700B093680018
:1002A000BF91AF919F918F913F912F910F900FBE72
:1002B0000F901F901895789483B7826083BF83B79F
:1002C000816083BF83B7806483BF83B7886083BF47
:1002D00089B7816089BF1EBC8EB582608EBD8EB528
:1002E00081608EBD8FB581608FBD85B5846085BD11
:1002F00085B5806485BD329A319A309A379A1AB89A
:10030000E8E8F0E02491E8E6F0E08491882399F0B1
:1003100090E0880F991FFC01EC5AFF4FA591B49112
:10032000FC01E25AFF4F859194918FB7F894EC91BC
:10033000E22BEC938FBFC0E0D0E081E00E94780018
:100340000E94D90080E00E9478000E94D900209786
:0C035000A1F30E940000F1CFF894FFCF51
:00000001FF
