:100000000C949C000C94AE000C94AE000C94AE00CA
:100010000C94AE000C94AE000C94AE000C94AE00A8
:100020000C94AE000C94AE000C94AE000C94AE0098
:100030000C94AE000C94AE000C94AE000C94AE0088
:100040000C9468010C94AE000C94AE000C94AE00BD
:100050000C94AE000C94AE000C94AE000C94AE0068
:100060000C94AE000C94AE000C94AE000C94AE0058
:100070000C94AE000C94AE000C94AE000C94AE0048
:100080000C94AE000C94AE000C94AE000C94AE0038
:100090000C94AE000C94AE000C94AE000C94AE0028
:1000A0000C94AE000C94AE000C94AE000C94AE0018
:1000B0000C94AE00D200D500C800CC00F600F600CB
:1000C000D900DD00E300E700F600ED00F1000000DC
:1000D0000000240027002A002D0000000000250059
:1000E00028002B002E00040404040404040402026B
:1000F00002020202030303030303020203050505D0
:1001000005010204081020408001020408102001AB
:100110000204081020408040010204080A0D0E0964
:1001200000030200000405080000000000000000B9
:10013000000000000000000011241FBECFEFD8E037
:10014000DEBFCDBF21E0A0E0B1E001C01D92A9302B
:10015000B207E1F70E94B2010C9445020C94000032
:10016000E9E2F1E04491EEE0F1E02491E3EFF0E028
:100170009491992309F44EC04423C1F150E0FA014F
:100180003297ED30F10590F5E65AFF4F0C943F029F
:10019000309180003F7703C0309180003F7D3093E5
:1001A000800024C034B53F7702C034B53F7D34BDF4
:1001B0001DC03091B0003F7703C03091B0003F7D4B
:1001C0003093B00013C0309190003F7703C030915E
:1001D00090003F7D3093900009C03091A0003F77A0
:1001E00003C03091A0003F7D3093A000E92FF0E0E4
:1001F000EE0FFF1FE652FF4FA591B4919FB7F89401
:10020000811104C08C912095282302C0EC912E2BE3
:100210002C939FBF08953FB7F8948091050190916A
:100220000601A0910701B091080126B5A89B05C061
:100230002F3F19F00196A11DB11D3FBFBA2FA92F65
:10024000982F8827820F911DA11DB11DBC01CD01E2
:1002500042E0660F771F881F991F4A95D1F70895CE
:100260008F929F92AF92BF92CF92DF92EF92FF92C6
:100270000E940B014B015C0188EEC82E83E0D82E52
:10028000E12CF12C0E940B01DC01CB0188199909AA
:10029000AA09BB09883E9340A105B10598F321E066
:1002A000C21AD108E108F10888EE880E83E0981E92
:1002B000A11CB11CC114D104E104F10419F7FF9091
:1002C000EF90DF90CF90BF90AF909F908F90089568
:1002D0001F920F920FB60F9211242F933F938F937B
:1002E0009F93AF93BF938091010190910201A091E0
:1002F0000301B09104013091000123E0230F2D3759
:1003000020F40196A11DB11D05C026E8230F029619
:10031000A11DB11D20930001809301019093020162
:10032000A0930301B093040180910501909106010F
:10033000A0910701B09108010196A11DB11D809304
:10034000050190930601A0930701B0930801BF91A6
:10035000AF919F918F913F912F910F900FBE0F9072
:100360001F901895789484B5826084BD84B58160AF
:1003700084BD85B5826085BD85B5816085BD809170
:100380006E00816080936E001092810080918100E8
:1003900082608093810080918100816080938100E0
:1003A000809180008160809380008091B1008460A2
:1003B0008093B1008091B00081608093B000809103
:1003C0009100826080939100809191008160809380
:1003D0009100809190008160809390008091A100B5
:1003E00082608093A1008091A10081608093A10030
:1003F0008091A00081608093A00080917A00846049
:1004000080937A0080917A00826080937A00809154
:100410007A00816080937A0080917A00806880936E
:100420007A001092C100EEE0F1E02491E3EFF0E0F9
:100430008491882399F090E0880F991FFC01E25382
:10044000FF4FA591B491FC01E652FF4F8591949125
:100450008FB7F894EC91E22BEC938FBFC0E0D0E023
:1004600081E00E94B0000E94300180E00E94B00054
:100470000E9430012097A1F30E940000F1CFEE0FFF
:0E048000FF1F0590F491E02D0994F894FFCF32
:00000001FF
