:100000000C9423060C944B060C944B060C944B0654
:100010000C944B060C944B060C944B060C944B061C
:100020000C944B060C944B060C944B060C944B060C
:100030000C944B060C944B060C944B060C944B06FC
:100040000C94DC060C944B060C944B060C944B065B
:100050000C944B060C944B060C944B060C944B06DC
:100060000C940F0D0C944B0607634236B79BD8A730
:100070001A39685618AEBAAB558C1D3CB7CC5763CD
:10008000BD6DEDFD753EF6177231BF000000803F7B
:1000900008000000BE922449123EABAAAA2ABECD97
:1000A000CCCC4C3E00000080BEABAAAAAA3E000009
:1000B0000000BF000000803F000000000008417801
:1000C000D3BB4387D1133D190E3CC3BD4282AD2B38
:1000D0003E68EC8276BED98FE1A93E4C80EFFFBE30
:1000E00001C4FF7F3F0000000000DB40A4A62EAF4C
:1000F0002000A1C8D300408DAED580A800006000CC
:1001000000000000000000000000000000E000000F
:10011000000000000000000000000001E0000000FE
:100120000000000000000000000001F000000000DE
:1001300000000000000000000003F00000000000CC
:10014000000000000000000007F0000000000000B8
:100150000000000000000007F800000000000000A0
:100160000000000000000FF800000003C0007E0047
:100170000001E0007F0FF800000003C000FE000057
:1001800001E000FFEFF800000003C000FE000001E6
:10019000E000FFFFF800000003C000F00000000FC7
:1001A000007FFE7FC0000003C000F00000000F00D1
:1001B0003FFE7FF83FF1FBCFFCFEF3BC3DEFE01FBD
:1001C000FE7FFF7FFBFFDFFEFEFFBC3DEFE01FC6B3
:1001D000FFFF7FFBFFDFFEFEFFBC3DEFE00FE3C74D
:1001E000FE787BC3DE1EF0FFBC3DEF0007FF87FCFF
:1001F000787BC3DE1EF0F83C3DEF0001FFFFF0000E
:100200007BC3C01EF0F03C3DEF0001F37FE03FFBFD
:10021000C3CFFEF0F03C3DEF0003E33F807FFBC324
:10022000DFFEF0F03C3DEF0007E73C00787BC3DEEB
:100230001EF0F03C3DEF0007FFBE00787BC3DE1EE2
:10024000F0F03C3DEF0007FFFE00787BC3DE1EF0C0
:10025000F03C3DEF000FFFFE007FFBFFDFFEF0F004
:100260003FFDEFE00FFFFF007FFBFFDFFEF0F03F01
:10027000FDEFE00FF9FF003E79F9CF9EF0F01F3D52
:10028000E7E01FF1FF000000000000000000000098
:10029000001F80FF007FFFFFFFFFFFFFFFFFFFE06A
:1002A0001C007F007FFFFFFFFEB46D888D18E0000B
:1002B000001F007FFFFFFFFE95AD7DB577E00000DA
:1002C0000F007FFFFFFFFEA5AD9D8D19E00000062A
:1002D000007FFFFFFFFEB5ADEDB57EE00000000042
:1002E000000180000000000000000000038000000A
:1002F0000000000000000007C00000000000000037
:10030000000007C00000000000000000000FC00057
:1003100000000000000000001FE0000000000000DE
:100320000000001FE00000000000000000003FE0AF
:100330000000000000000000003FF000000000008E
:10034000000000007FF0000000000000001FF87FA8
:10035000F0000000000000003FFE7FF00000000001
:100360000000003FFF7FF0000000000000001FFFC2
:10037000FBE0000000000000000FFFF9FFC00000DC
:10038000000000000FFFF9FFF80000000000000768
:10039000FFF1FFFF00000000000003FC73FFFF807F
:1003A000000000000001FE3FFFFF80000000000091
:1003B00000FF1E0FFF000000000000007FFE1FFC7A
:1003C000000000000000003FFFFFF80000000000F8
:1003D00000000FDFFFE0000000000000001F19FF19
:1003E000C0000000000000003F3CFF0000000000D3
:1003F0000000007E7CF800000000000000007FFE8E
:100400007C0000000000000000FFFFFC0000000076
:1004100000000000FFFFFE0000000000000000FFE1
:10042000FFFE0000000000000001FFEFFE000000E2
:100430000000000001FFCFFE0000000000000003EC
:10044000FF07FE0000000000000003FC07FE0000A4
:10045000000000000003F003FE00000000000000A8
:10046000018000FE000000000000000000007E008F
:100470000000000000000000003E0000000000003E
:10048000000000000C000000000000078000FC00DD
:100490000003C0000000078001FC000003C0000052
:1004A00000078001FC000003C0000000078001E09D
:1004B0000000001E000000078001E00000001E0098
:1004C0007FE3F79FF9FDE7787BDFC0FFF7FFBFFD14
:1004D000FDFF787BDFC0FFF7FFBFFDFDFF787BDF0F
:1004E000C0F0F787BC3DE1FF787BDE00F0F787BC0A
:1004F0003DE1F0787BDE0000F787803DE1E0787B2E
:10050000DE007FF7879FFDE1E0787BDE00FFF78765
:10051000BFFDE1E0787BDE00F0F787BC3DE1E078ED
:100520007BDE00F0F787BC3DE1E0787BDE00F0F792
:1005300087BC3DE1E0787BDE00FFF7FFBFFDE1E037
:100540007FFBDFC0FFF7FFBFFDE1E07FFBDFC07C8B
:10055000F3F39F3DE1E03E7BCFC0000000000000D0
:100560000000000000FFFFFFFFFFFFFFFFFFFFC0D5
:10057000FFFFFFFFFD68DB111A31C0FFFFFFFFFD2A
:100580002B5AFB6AEFC0FFFFFFFFFD4B5B3B1A33AB
:10059000C0FFFFFFFFFD6B5BDB6AFDC001010101D6
:1005A000010101010101010101010101010101013B
:1005B000010101010101010101010101010101012B
:1005C000010101010101010101010101010101011B
:1005D000010101010101010101010101010101010B
:1005E00001010101010101010101010101010101FB
:1005F00001010101010101010101010101010101EB
:1006000001010101010101010101010101010101DA
:100610000101010101010101010101012200FF218C
:1006200000000000080002010000030407000000B1
:100630000000000000000103070F1F3F7F0080C083
:10064000E0F0F8FCFE00000000003E5B4F5B3E3E29
:100650006B4F6B3E1C3E7C3E1C183C7E3C181C576E
:100660007D571C1C5E7F5E1C00183C1800FFE7C312
:10067000E7FF0018241800FFE7DBE7FF30483A06E1
:100680000E2629792926407F050507407F05253F4D
:100690005A3CE73C5A7F3E1C1C08081C1C3E7F1439
:1006A000227F22145F5F005F5F06097F017F006683
:1006B00089956A606060606094A2FFA29408047EDD
:1006C000040810207E201008082A1C08081C2A088C
:1006D000081E101010100C1E0C1E0C30383E383046
:1006E000060E3E0E06000000000000005F00000045
:1006F00007000700147F147F14242A7F2A12231373
:1007000008646236495620500008070300001C2286
:1007100041000041221C002A1C7F1C2A08083E08B8
:1007200008008070300008080808080000606000B9
:1007300020100804023E5149453E00427F400072AD
:10074000494949462141494D331814127F10274524
:100750004545393C4A494931412111090736494942
:100760004936464949291E00001400000040340063
:100770000000081422411414141414004122140817
:1007800002015909063E415D594E7C1211127C7FCF
:10079000494949363E414141227F4141413E7F49DD
:1007A0004949417F090909013E414151737F0808C8
:1007B000087F00417F41002040413F017F08142213
:1007C000417F404040407F021C027F7F0408107F31
:1007D0003E4141413E7F090909063E4151215E7F6C
:1007E00009192946264949493203017F01033F403F
:1007F00040403F1F2040201F3F4038403F631408C7
:10080000146303047804036159494D43007F414157
:10081000410204081020004141417F04020102040A
:100820004040404040000307080020545478407F77
:10083000284444383844444428384444287F3854B1
:1008400054541800087E090218A4A49C787F080458
:10085000047800447D40002040403D007F10284443
:100860000000417F40007C047804787C0804047810
:100870003844444438FC1824241818242418FC7CD8
:1008800008040408485454542404043F44243C40BD
:1008900040207C1C2040201C3C4030403C44281020
:1008A00028444C9090907C4464544C440008364159
:1008B0000000007700000041360800020102040237
:1008C0003C2623263C1EA1A161123A4040207A38E2
:1008D0005454555921555579412254547842215543
:1008E00054784020545579400C1E52721239555597
:1008F0005559395454545939555454580000457C6D
:10090000410002457D420001457C407D1211127D6F
:10091000F0282528F07C545545002054547C547C04
:100920000A097F4932494949323A4444443A324AF1
:100930004848303A4141217A3A42402078009DA00F
:10094000A07D3D4242423D3D4040403D3C24FF248D
:1009500024487E4943662B2FFC2F2BFF0929F620C4
:10096000C0887E090320545479410000447D413001
:1009700048484A32384040227A007A0A0A727D0D8D
:1009800019317D2629292F28262929292630484D45
:100990004020380808080808080808382F10C8AC94
:1009A000BA2F102834FA00007B000008142A142201
:1009B00022142A14085500550055AA55AA55AAFF15
:1009C00055FF55FF000000FF00101010FF00141429
:1009D00014FF001010FF00FF1010F010F01414149A
:1009E000FC001414F700FF0000FF00FF1414F404CF
:1009F000FC141417101F10101F101F1414141F00C4
:100A0000101010F0000000001F101010101F101028
:100A10001010F010000000FF101010101010101037
:100A200010FF10000000FF140000FF00FF00001F77
:100A300010170000FC04F414141710171414F40415
:100A4000F40000FF00F714141414141414F700F742
:100A5000141414171410101F101F141414F414106D
:100A600010F010F000001F101F0000001F14000005
:100A700000FC140000F010F01010FF10FF1414140C
:100A8000FF141010101F00000000F010FFFFFFFF08
:100A9000FFF0F0F0F0F0FFFFFF0000000000FFFFAC
:100AA0000F0F0F0F0F3844443844FC4A4A4A347E33
:100AB00002020606027E027E026355494163384403
:100AC000443C04407E201E2006027E020299A5E7D7
:100AD000A5991C2A492A1C4C7201724C304A4D4D72
:100AE000303048784830BC625A463D3E494949005A
:100AF0007E0101017E2A2A2A2A2A44445F44444076
:100B0000514A444040444A51400000FF0103E08004
:100B1000FF000008086B6B083612362436060F09F2
:100B20000F06000018180000001010003040FF01F0
:100B300001001F01011E00191D1712003C3C3C3C26
:100B40000000000000000306090C0F1215181C1FFE
:100B50002225282B2E303336393C3F414447494C1F
:100B60004E515355585A5C5E60626466686A6C6D9B
:100B70006F70727375767778797A7B7C7C7D7E7EF8
:100B80007F7F7F7F7F7F7F7F7F7F7F7E7E7D7C7C7F
:100B90007B7A79787776757372706F6D6C6A686638
:100BA0006462605E5C5A585553514E4C494744410B
:100BB0003F3C393633302E2B2825221F1C181512A6
:100BC0000F0C09060300FDFAF7F4F1EEEBE8E4E19F
:100BD000DEDBD8D5D2D0CDCAC7C4C1BFBCB9B7B48B
:100BE000B2AFADABA8A6A4A2A09E9C9A98969493EF
:100BF00091908E8D8B8A8988878685848483828272
:100C0000818181818100000000250028002B0000E7
:100C1000000000240027002A000404040404040443
:100C2000040202020202020303030303030102049B
:100C3000081020408001020408102001020408105E
:100C40002000B01BA11B11241FBECFEFD8E0DEBFD8
:100C5000CDBF11E0A0E0B1E0E6E0F2E402C0059013
:100C60000D92A23AB107D9F723E0A2EAB1E001C0A0
:100C70001D92AE3BB207E1F716E0C2E2D6E004C037
:100C80002197FE010E942E1CC132D107C9F70E9494
:100C9000BF150C94F6200C940000CF92DF92EF92D7
:100CA000FF920F931F93CF93DF936C017A018B0117
:100CB000C0E0D0E0CE15DF0581F0D8016D918D0147
:100CC000D601ED91FC910190F081E02DC6010995CE
:100CD000892B11F02196EECF7E01C701DF91CF91D4
:100CE0001F910F91FF90EF90DF90CF9008951F9389
:100CF000CF93DF93EC01162F8D8D9E8D892BB1F054
:100D00002DA93EA94FA958AD60E074E284EF90E0B0
:100D10000E940C1CDA01C9014097A109B109B695DE
:100D2000A795979587958093B8000FC08B8D9C8D64
:100D3000892B21F08EAD9FAD0E940C0DEFA5F8A977
:100D400090818CA9809589238083111102C066EA65
:100D500001C067EACE010E94A90C8D8D9E8D892B62
:100D6000B1F029AD3AAD4BAD5CAD60E074E284EF1B
:100D700090E00E940C1CDA01C9014097A109B10959
:100D8000B695A795979587958093B8000FC0EFA566
:100D9000F8A990818CA9892B80838B8D9C8D892BC0
:100DA00029F0DF91CF911F910C94A10CDF91CF918D
:100DB0001F9108950E94EA201F920F920FB60F9282
:100DC00011242F933F938F939F93AF93BF93809161
:100DD000B8019091B901A091BA01B091BB013091D5
:100DE000B70123E0230F2D3720F40196A11DB11D7B
:100DF00005C026E8230F0296A11DB11D2093B7015F
:100E00008093B8019093B901A093BA01B093BB014C
:100E100080911F0290912002A0912102B0912202A4
:100E20000196A11DB11D80931F0290932002A093F3
:100E30002102B0932202BF91AF919F918F913F9178
:100E40002F910F900FBE0F901F901895FC0177FD0A
:100E5000B9C080859185681779070CF0B3C057FD3C
:100E6000B1C082859385481759070CF0089586898B
:100E7000823079F484819581DC01A61BB70BBD011A
:100E80006150710986819781DC01A41BB50BAD010E
:100E90000EC0833009F084C064277527CA018627F5
:100EA00097276827792746815781481B590B41505E
:100EB00051092130310531F048F12230310509F472
:100EC0004AC00895CA0157FD07969C01A3E03595D5
:100ED0002795AA95E1F7A481B5812A9FC0012B9F90
:100EE000900D3A9F900D1124680F791F078CF0A187
:100EF000E02DE60FF71F4770552781E090E001C015
:100F0000880F4A95EAF79081892B48C0CA0157FD9E
:100F100007969C0193E0359527959A95E1F7A48172
:100F2000B5812A9FC0012B9F900D3A9F900D1124EF
:100F3000680F791F078CF0A1E02DE60FF71F4770AF
:100F4000552781E090E001C0880F4A95EAF7809527
:100F50009081892323C0CA0157FD07969C0183E035
:100F6000359527958A95E1F7A481B5812A9FC0011F
:100F70002B9F900D3A9F900D1124680F791F078CBD
:100F8000F0A1E02DE60FF71F4770552781E090E0B4
:100F900001C0880F4A95EAF79081892780830895D8
:100FA000813009F086CF64277527462757276427A5
:100FB000752784819581DC01A61BB70BBD016150AB
:100FC000710977CF089585ED8093BC008091BC00B6
:100FD00084FDFCCF1092490308954091FC01262F17
:100FE00030E0240F311D21323105DCF4209149031A
:100FF0002430C9F4FC0180E090E0861758F4309169
:10100000FC012191DC01A452BE4FA30FB11D2C9312
:101010000196F3CF8091FC01680F6093FC0180E0A2
:10102000089581E0089582E008950895089508954F
:10103000E091A7018091A601E81730F4F0E0E454B4
:10104000FE4F808190E008958FEF9FEF089590917B
:10105000A7018091A601981750F4E92FF0E0E4541D
:10106000FE4F208130E09F5F9093A70102C02FEFD9
:101070003FEFC90108958091A60190E02091A7015A
:10108000821B91090895CF92DF92EF92FF920F9306
:101090001F93CF93DF937C01CB018A0120914A03F8
:1010A000222389F0EB016B01C40ED51ECC15DD05A2
:1010B00069F06991D701ED91FC910190F081E02DEB
:1010C000C7010995F3CF642F0E94ED07C801DF9196
:1010D000CF911F910F91FF90EF90DF90CF900895E7
:1010E000CF93DF931F92CDB7DEB7698320914A0378
:1010F0002223D1F020916D03203240F021E030E036
:10110000FC013383228380E090E015C080914B0383
:10111000E82FF0E0E45BFC4F998190838F5F809330
:101120004B0380936D0305C061E0CE0101960E94E0
:10113000ED0781E090E00F90DF91CF910895089541
:10114000FC016370668B84819581268137816130D3
:1011500039F0633029F0918780873387228708959B
:10116000318720879387828708956F927F928F922D
:101170009F92AF92BF92CF92DF92EF92FF920F9326
:101180001F93CF93DF93EC014B015A0169013801A2
:10119000E881F9810284F385E02D0995E881F981E0
:1011A0000288F389E02D87019601A501B401CE01E3
:1011B0000995A501460D571D41505109E881F98156
:1011C0000288F389E02D9601B401CE010995E881EA
:1011D000F9810088F189E02D9301A501B401CE01C8
:1011E0000995C80CD91CB60161507109E881F981D3
:1011F0000088F189E02D9301A501CE010995E881D0
:10120000F9810688F789E02DCE01DF91CF911F91FA
:101210000F91FF90EF90DF90CF90BF90AF909F9095
:101220008F907F906F9009948F929F92AF92BF9210
:10123000CF92DF92EF92FF920F931F93CF93DF93A2
:101240004C016B015A01E901DC01ED91FC9162173F
:10125000730781F40417150724F48B2D5801042F0C
:10126000182F0A191B0998012F5F3F4F048CF58D29
:10127000E02D12C04017510709F52617370724F44F
:101280008D2D6901C62FD82F9E012C193D092F5F86
:101290003F4F068CF78DE02D8701A501B601C401F3
:1012A0000995DF91CF911F910F91FF90EF90DF9003
:1012B000CF90BF90AF909F908F9008950284F38558
:1012C000E02D0995D401ED91FC910488F589E02D7C
:1012D0009E01A501B601C4010995D401ED91FC91CF
:1012E0000688F789E02DC401DF91CF911F910F91FE
:1012F000FF90EF90DF90CF90BF90AF909F908F9036
:101300000994EF92FF920F931F93DC011A960D91AF
:101310001C911B9718962D913C911997ED91FC917A
:1013200000A0F1A1E02D7B0140E050E060E070E022
:1013300009951F910F91FF90EF9008954F925F9242
:101340006F927F928F929F92AF92BF92CF92DF92D5
:10135000EF92FF920F931F93CF93DF936C012B01BA
:101360005A0139014801DC01ED91FC910284F385B9
:10137000E02D0995E201640C751CD601ED91FC91FC
:10138000C615D7055CF40088F189E02D870194012A
:10139000A501BE01C60109952196EFCF0688F78900
:1013A000E02DC601DF91CF911F910F91FF90EF903B
:1013B000DF90CF90BF90AF909F908F907F906F9075
:1013C0005F904F9009948F929F92AF92BF92CF926D
:1013D000DF92EF92FF920F931F93CF93DF93EC0175
:1013E0005B014A016901E881F9810284F385E02DFE
:1013F000099595012C0D3D1D21503109E881F98198
:101400000488F589E02D78018401A401B501CE019D
:101410000995E881F9810688F789E02DCE01DF91F1
:10142000CF911F910F91FF90EF90DF90CF90BF90E1
:10143000AF909F908F9009948F929F92AF92BF929E
:10144000CF92DF92EF92FF920F931F93CF93DF9390
:10145000EC015B014A0169017801E881F9810284AC
:10146000F385E02D0995C80CD91C8601015011099E
:10147000E881F9810488F589E02D9501A401B50181
:10148000CE010995E881F9810688F789E02DCE0122
:10149000DF91CF911F910F91FF90EF90DF90CF9050
:1014A000BF90AF909F908F900994EF92FF920F930F
:1014B0001F93DC01ED91FC9100A0F1A1E02D0995B5
:1014C0001F910F91FF90EF9008950F931F93DC01F0
:1014D000ED91FC91068CF78DE02D09951F910F91F0
:1014E00008950F931F93DC01ED91FC91048CF58D11
:1014F000E02D09951F910F910895DC01ED91FC916C
:101500000084F185E02D09942F923F924F925F92D3
:101510006F927F928F929F92AF92BF92CF92DF9203
:10152000EF92FF920F931F93CF93DF9300D000D0E1
:1015300000D0CDB7DEB72C017E836D836A015901DF
:10154000C801FC82EB824801841A950A97FE03C009
:1015500091948194910835012D813E81621A730A1C
:1015600077FE03C0719461947108681479045CF487
:101570003A2D2B2D5C01832F922F3D812E81DE820F
:10158000CD82C32ED22EAD81BE81AA16BB065CF4DD
:101590003C2D2D2D6C01832F922F3D812E81BE82FB
:1015A000AD82A32EB22E85012D813E81021B130B2D
:1015B0001C012C183D0837FE03C0319421943108DA
:1015C000780117FF03C03FEFE31AF30AF594E7949D
:1015D000C816D9062CF08FEF9FEF9A83898304C039
:1015E000A1E0B0E0BA83A9832D813E81A216B306A3
:1015F00024F1D201ED91FC910484F585E02D2B813D
:101600003C816814790424F44D815E81B60103C0E5
:10161000A6016D817E81C2010995E218F308F7FEEB
:1016200006C029813A81C20ED31EE00EF11E8D81C3
:101630009E8101969E838D83D7CF26960FB6F89410
:10164000DEBF0FBECDBFDF91CF911F910F91FF90F5
:10165000EF90DF90CF90BF90AF909F908F907F9052
:101660006F905F904F903F902F900895089580E085
:1016700090E008950F931F93CF93DF93DC0156966C
:10168000EC915697E23071F0E330E9F0E13079F512
:10169000FB0114960D90BC91A02DA41BB50BA21BB1
:1016A000B30B18C0EC01EC81FD81E61BF70BBF0109
:1016B00061507109EE81FF81DF01A41BB50BAD0103
:1016C000421B530B14C0DA01EC01EE81FF81E61BD3
:1016D000F70B3197F7FD0DC0EC014E815F81E417E8
:1016E000F5073CF4AF01BD010E94F71302C00E9450
:1016F0005E14DF91CF911F910F9108950F931F9367
:10170000DC015696EC915697E23061F0E33009F136
:10171000E13081F51496ED91FC911597E41BF50BE2
:10172000319723C0DC011496ED91FC911597DF01F0
:10173000A61BB70BBD01DC011696ED91FC91179726
:10174000DF01A41BB50BAD0141505109621B730BA6
:1017500011C0FA01DC0116964D915C911797DA01E0
:10176000A61BB70BBD01621B730BAB01BF010E942F
:101770005E140CC057FD0AC0DC011696ED91FC9179
:1017800017974E175F0714F40E94F7131F910F91DC
:1017900008958F929F92AF92CF92EF92FF920F9304
:1017A0001F93CF93DF93EC01262F898D9A8D00979D
:1017B00009F042C06A3059F41D861C862D898E8539
:1017C0009F8538E0239F800D911D112443C06D300B
:1017D00009F4AAC08F898823C9F03C898C859D852E
:1017E00046E0349F800D911D112448855985481786
:1017F000590764F41D861C863D898E859F8548E0C7
:10180000349F800D911D11249F878E87EA88FB8865
:10181000088919894E855F856C857D85AD88CC8862
:10182000CE010E94C3112C898C859D8536E0239FB3
:10183000800D911D11243EC06A3079F41D861C86EE
:101840002D89FC013696E4918E859F852E9F800D13
:10185000911D11249F878E8767C06D3009F464C085
:10186000FC0134963491631708F45EC03196E4911C
:10187000E61708F459C0462F431B342FFC0132965B
:101880008590949047E0349F800C911C1124F401C2
:10189000329634913196E491332311F0E1110DC069
:1018A000F4013496E4912C898C859D85E29F800D0E
:1018B000911D11249D878C8737C0F4013596449182
:1018C0005F89552319F15C89E32FF0E0E40FF11DE6
:1018D00047FDFA955E9FB0015F9F700D11244C8506
:1018E0005D85460F571F688579856417750774F401
:1018F0001D861C863D89FC013696E4918E859F8568
:101900003E9F800D911D11249F878E87EA88FB885A
:10191000088919894E855F856C857D85AD88CC8861
:10192000CE010E94C311BCCF81E090E0DF91CF9146
:101930001F910F91FF90EF90CF90AF909F908F905D
:10194000089508958EBD00000DB407FEFDCF8EB53D
:1019500008951F93CF93DF93FC01858D968D00979B
:1019600029F1162FEF0121A131E030934A03209392
:101970006C0310924B0310926D03DC01ED91FC910E
:101980000190F081E02D60E009958D8D9E8DDC0148
:10199000ED91FC910190F081E02D612F09958D8DE5
:1019A0009E8DDF91CF911F910C94FF0EA5A5B6A53A
:1019B0009C9183A9809589238C93838D948D892B09
:1019C00031F0862FDF91CF911F910C94A20C28E06B
:1019D00030E080E8A1A5B2A591A9462F482319F0CF
:1019E0004C91942B03C04C91909594239C93A3A568
:1019F000B4A54C9192A9942B9C93A3A5B4A54C910A
:101A000092A9909594239C9386952150310911F7C2
:101A1000DF91CF911F9108958CBD9DBD08951F92B8
:101A20000F920FB60F9211242F933F934F935F9312
:101A30006F937F938F939F93AF93BF93EF93FF9396
:101A40008091B900887F803609F49CC068F588329F
:101A500009F45BC090F4803109F454C038F4882351
:101A600009F4F6C0883009F44DC0F6C0883109F495
:101A70004CC0803209F45DC0EFC0803409F468C006
:101A800048F4803309F455C0883309F0E5C08093E9
:101A90004703D8C0803509F44FC0883509F45DC0CC
:101AA000883409F0D9C0D6C0883909F4C7C0A8F471
:101AB000883709F467C038F4883609F463C0803782
:101AC00009F460C0C9C0883809F4B8C0803909F485
:101AD0005FC0803809F0C0C05BC0803B09F486C09D
:101AE00038F4803A09F466C0883A09F47FC0B4C07B
:101AF000803C09F4A7C0883C09F4A4C0883B09F4E1
:101B00008AC0AAC08091240310C09091460380919E
:101B10004503981770F5E091460381E08E0F80939E
:101B20004603F0E0EB5DFC4F80818093BB0085ECC9
:101B300086C0809347038EC0E091460381E08E0FFC
:101B4000809346038091BB00F0E0EB5DFC4F808307
:101B500090914603809145036EC0E091460381E079
:101B60008E0F809346038091BB00F0E0EB5DFC4F4D
:101B700080838091480381116DC081E080932303AD
:101B800084EA61C083E08093490310921E02CFCFA4
:101B900080911E02803208F051C0E0911E0281E067
:101BA0008E0F80931E028091BB00F0E0E250FE4F4A
:101BB0008083BDCF85EC8093BC0010924903809157
:101BC0001E02803230F4E0911E02F0E0E250FE4F3F
:101BD000108260911E0270E0E091A201F091A301D9
:101BE0008EEF91E0099510921E0236C084E080933A
:101BF00049031092FD011092FC01E091A401F091C3
:101C0000A50109958091FC01811105C081E08093B7
:101C1000FC011092DC01E091FD0181E08E0F8093C8
:101C2000FD01F0E0E452FE4F80818093BB00909173
:101C3000FD018091FC01981708F479CF85E8809325
:101C4000BC000AC085EC8093BC001092490304C01C
:101C5000109247030E94E307FF91EF91BF91AF916C
:101C60009F918F917F916F915F914F913F912F91B4
:101C70000F900FBE0F901F90189520917403309114
:101C80007503C901079697FD079623E095958795FB
:101C90002A95E1F72091720330917303829FA0018E
:101CA000839F500D929F500D112460E070E0809151
:101CB0008D0390918E030C94EF203F924F925F9290
:101CC0006F927F928F929F92AF92BF92CF92DF924C
:101CD000EF92FF920F931F93CF93DF9300D000D02A
:101CE00000D0CDB7DEB72C013B014A015901C90133
:101CF000079697FD07969C0193E0359527959A9551
:101D0000E1F73C832B83C12CD12CE12CF12C312C1D
:101D1000C3018E0D9F1D9A838983E016F106C4F5D9
:101D20001E821D822D813E812A153B054CF5C9017D
:101D300087709927892B11F0330C0EC0ED81FE813D
:101D4000F7FD379683E0F595E7958A95E1F7EC0D79
:101D5000FD1DE80DF91D349037FE0CC021E030E088
:101D600049815A816D817E81640D751D8EE693E0F7
:101D70000E947D0A8D819E8101969E838D83D2CFA4
:101D80009FEFE91AF90A2B813C81C20ED31EC0CF06
:101D900026960FB6F894DEBF0FBECDBFDF91CF9170
:101DA0001F910F91FF90EF90DF90CF90BF90AF9079
:101DB0009F908F907F906F905F904F903F9008958D
:101DC00090E0FC01E35DF34F2491FC01E75EF34FEB
:101DD0008491882399F090E0880F991FFC01E15FBE
:101DE000F34FA591B491FC01EB5FF34F8591949172
:101DF0008FB7F894EC91E22BEC938FBF089530915C
:101E00006D03313208F04BC0809149038111FCCF42
:101E100090916C0322E02093490321E02093480332
:101E20002FEF209347031092460330934503ECE4D1
:101E3000F3E0A5E2B3E020E0321721F041914D93A9
:101E40002F5FFACF1092240320912403990F922B35
:101E50009093240390912303913061F41092230313
:101E6000909124039093BB009091BC0093FDF8CF18
:101E700095EC01C095EE9093BC009091490392308F
:101E8000E1F3909147039F3F79F0809147038032BF
:101E900041F080914703803331F084E005C081E058
:101EA00003C082E001C083E010924B0310926D03E7
:101EB00010924A030895DF92EF92FF920F931F93BF
:101EC000CF93DF93D82ED92FC62F80918B0390917B
:101ED0008C03009709F454C020918F0331E03093B4
:101EE0004A0320936C0310924B0310926D03DC01A4
:101EF000ED91FC910190F081E02D60E00995ED2CD1
:101F0000FD2E11E0D1E080918B0390918C03CC23C6
:101F100071F11032C8F00E94FF0E80918F03D093B0
:101F20004A0380936C0310924B0310926D038091CF
:101F30008B0390918C03DC01ED91FC910190F08179
:101F4000E02D60E0099511E080918B0390918C0366
:101F5000F7016491DC01ED91FC910190F081E02D9D
:101F600009951F5FC150BFEFEB1AFB0ACCCFDF9181
:101F7000CF911F910F91FF90EF90DF900C94FF0E87
:101F8000E0919B03F0919C0390818091A103809547
:101F9000892380830D2D1D2FCC2309F439C0F8012E
:101FA00084912091890330918A03232B31F00E9480
:101FB000A20CC1500F5F1F4FEFCF28E030E040E888
:101FC000E0919703F091980390919F03582F542329
:101FD00019F05081952B03C05081909595239083E3
:101FE000E0919903F0919A0350819091A003952B71
:101FF0009083E0919903F0919A0350819091A0030E
:10200000909595239083469521503109C9F6D1CFFB
:10201000DF91CF911F910F91FF90EF90DF90089586
:10202000009769F0FC0101900020E9F73197AF01BA
:10203000481B590BBC018EE693E00C944D0680E0E2
:1020400090E008950C9410108F929F92AF92BF92DF
:102050000F931F93CF93DF93CDB7DEB7A1970FB642
:10206000F894DEBF0FBECDBF19A2423008F44AE09B
:102070008E010F5D1F4F842E912CA12CB12CA50138
:1020800094010E940C1CE62FB901CA0101501109EC
:10209000EA3014F4E05D01C0E95CD801EC93232B35
:1020A000242B252B61F7C8010E941010A1960FB6B2
:1020B000F894DEBF0FBECDBFDF91CF911F910F917E
:1020C000BF90AF909F908F900895CF93DF930E9421
:1020D0001010EC018BE691E00E9410108C0F9D1FF8
:1020E000DF91CF9108952F923F924F925F926F921E
:1020F0007F928F929F92AF92BF92CF92DF92EF9298
:10210000FF920F931F93CF93DF93CDB7DEB729973D
:102110000FB6F894DEBF0FBECDBF7D836C8341E068
:1021200050E002C0440F551F8A95E2F7413001E0AC
:1021300050070CF00AC16A0111E0C11AD108F3E29C
:10214000AF2EF2E0BF2EA3EAB2E020E030E061E083
:1021500070E0C616D7067CF1CA0195958795FC01FB
:10216000E20FF31FCE16DF06C4F3FC0131972E23D6
:102170003F23280F391F62177307B4F411968C910F
:102180001197F901ED55FD4F908111969C93119790
:102190008083F501818189010D5D1D4FF8019081DA
:1021A000F5019183F80180836F5F7F4F1196FFEFF8
:1021B000AF1ABF0ACECFEC80FD80EF2819F0212C9A
:1021C000312C03C022242394312C07E010E01A8321
:1021D000098381E090E09F838E83AE81BF81A41745
:1021E000B5070CF0B5C08D01000F111F60E070E065
:1021F000CB01098002C0880F991F0A94E2F7FC0105
:10220000EB57F44F2491822EFC01EB5BF44F94903A
:10221000EC80FD80EF2809F491942114310419F029
:10222000822E85949594AE81BF81A60FB71FCD01F4
:102230008D559D4F7C01FD01ED5DFD4FF987E887D0
:10224000FB01ED55FD4FCB018D5D9D4F2C01CF0165
:10225000835A9240841795070CF067C0D7018C9180
:10226000B82DB80260011124960196E035952795A6
:102270009A95E1F7A885B985BC91992D9B026001DB
:1022800011243601A6E075946794AA95E1F7922F80
:1022900091705301B594A7949A196901D594C79484
:1022A0009C0D362D3170792E731AA82DBA0290012B
:1022B0001124A6E035952795AA95E1F7B92DB80226
:1022C000C0011124B6E095958795BA95E1F75C01B8
:1022D000B594A7946901D594C794CA0C2170C20E15
:1022E00081708C0DC080D201AC902114310411F0AA
:1022F000C594A5949C2D9719D7019C939A2D981B52
:10230000A885B9859C93C70CC0828A0DD2018C9395
:10231000E00EF11E88859985800F911F9987888727
:10232000E00FF11F400E511E92CF6F5F7F4FAE81C5
:10233000BF81A617B70709F05BCF89819A81019702
:102340009A8389831F830E8348CF8FEF9FEF02C04C
:1023500080E090E029960FB6F894DEBF0FBECDBFA7
:10236000DF91CF911F910F91FF90EF90DF90CF9071
:10237000BF90AF909F908F907F906F905F904F90A5
:102380003F902F9008952F923F924F925F926F92BD
:102390007F928F929F92AF92BF92CF92DF92EF92F5
:1023A000FF920F931F93CF93DF93CDB7DEB76B9759
:1023B0000FB6F894DEBF0FBECDBF9B8F8A8F1B0177
:1023C0004A01D22E198708873701A982DC01599664
:1023D0002D913C915A972115310509F0FFC01896AF
:1023E0008D919C911997681779070CF0E7C11A969F
:1023F0008D919C911B97481759070CF0DFC1EC2D6C
:10240000F0E0FB83EA839B0146E0C49E200D311D72
:1024100011243D872C87121613060CF0CFC16A2DAC
:1024200070E07B876A8783E0660F771F8A95E1F704
:102430007F876E87CB01880D991D181619060CF041
:10244000BDC158968C91811104C08FEA8D1508F496
:10245000D394AA8DBB8DED91FC9111970284F385E5
:10246000E02DCD010995B5E0DB9EC0011124EC2DD6
:10247000F0E0F98BE88B91012B5F3F4F3B8B2A8B70
:102480003D822C822101AC01421953095D8B4C8B9A
:102490007981672F70E07F8B6E8BC4010896998FCE
:1024A000888FEC89FD89E40DF51DEB5BF94FD49025
:1024B00054019F828E82D0FE16C0AA8DBB8DED91F5
:1024C000FC91B1E0CB1209C02981213031F40484A0
:1024D000F585E02D2885398519C00684F785E02D1E
:1024E000E884F9841DC0488559854615570519F1BA
:1024F000AA8DBB8DED91FC91B1E0CB120DC029816D
:10250000213051F40484F585E02D9301A501B20139
:102510008A8D9B8D09950FC00684F785E02D730188
:102520000A851B852A813B814E815F816C817D817B
:102530008A8D9B8D0995D6943FEFA31AB30A4E81DD
:102540005F816E897F89460F571F5F834E83888D19
:10255000998DA816B90609F0AECF9FEF491A590A0E
:10256000AC81BD81E889F989AE0FBF1FBD83AC8303
:102570002A893B894216530609F093CF488559852D
:102580004615570509F4F8C0AA8DBB8DED91FC9155
:10259000B1E0CB1211C02981213071F4B1016B5F20
:1025A0007F4F0088F189E02D830128E030E0A4010D
:1025B0008A8D9B8D0995E0C06C857D854A815B8104
:1025C000641B750B0684F785E02D73010E851F854E
:1025D0009A01A4018A8D9B8D0995CEC0F90134968C
:1025E000E491DE1AF901329685919491B7E0DB9E71
:1025F000800D911D1124F901259134913B8B2A8B7B
:10260000FC01259134915901FC0132965490319688
:1026100034913C87329674903196149141E04C1578
:1026200018F05981523068F0672D072C000C770B99
:102630007D836C83812F012E000C990B9B838A83F1
:1026400004C01B821A821D821C82AA8DBB8DED9153
:10265000FC9111970284F385E02DCD010995412C61
:10266000D12C612CF981EF2FF0E0FF83EE832C2D2C
:1026700030E03B872A87A401410F511D17FD5A9571
:102680005F8B4E8BB101670D711D77FC7A95798F49
:10269000688F7C85671608F06FC0262D30E04A8170
:1026A0005B81420F531FAE81BF81A49FC001A59FD4
:1026B000900DB49F900D1124F401E80FF91FF98BD0
:1026C000E88B842D712C4E895F89420F531F5D8BDF
:1026D0004C8B751408F04DC051E0580F5E87877021
:1026E00041F4C5010196EA89FB89EA0DFB1DD490EE
:1026F0005C01D7FE3AC061E0C61216C07981713024
:1027000099F4AA8DBB8DED91FC9111970484F58508
:10271000E02D288539854C895D89688D798D670D17
:10272000711DCD01099521C08C819D81870D911D61
:10273000EA85FB858E9FB0018F9F700D9E9F700D67
:102740001124620D731DAA8DBB8DED91FC91119723
:102750000684F785E02DE884F9840E811F812A859F
:102760003B8548895989CD010995DD0C73948E8587
:10277000B0CF450C63948DCFAA8DBB8DED91FC91AC
:1027800011970688F789E02DCD016B960FB6F89466
:10279000DEBF0FBECDBFDF91CF911F910F91FF9094
:1027A000EF90DF90CF90BF90AF909F908F907F90F1
:1027B0006F905F904F903F902F9009946B960FB65B
:1027C000F894DEBF0FBECDBFDF91CF911F910F9167
:1027D000FF90EF90DF90CF90BF90AF909F908F9041
:1027E0007F906F905F904F903F902F9008950F9340
:1027F0001F93CF93DF9377FF04C0260F371F60E04E
:1028000070E0DC011496CD91DC911597FB01E20F8D
:10281000F31FCE17DF071CF49E01261B370B121681
:1028200013060CF046C0FA0157FD3796DF01E3E0CE
:10283000B595A795EA95E1F7AC9FF001AD9FF00D36
:10284000BC9FF00D11246E0F7F1FDC015F96ED9190
:10285000FC919097E60FF71F4770552781E090E0B5
:1028600001C0880F4A95EAF7482F0130110539F069
:1028700078F002301105E9F42E0F3F1F13C02E0F20
:102880003F1FE217F307A9F08081842B8193F9CFD2
:1028900080952E0F3F1FE217F30759F09081982380
:1028A0009193F9CFE217F30721F080818427819378
:1028B000F9CFDF91CF911F910F910895EF92FF9281
:1028C0000F931F93CF93DF93EC0177FDA5C0EC80AE
:1028D000FD806E157F050CF09FC057FF04C0240FCC
:1028E000351F40E050E08E819F81FA01E20FF31F17
:1028F0008E179F071CF49C01241B350B1216130620
:102900000CF08AC0922F842F8695869586958E9D91
:10291000D0018F9DB00D11246A0F7B1FAF8DB8A120
:10292000A60FB71F4770B1F188E0841B482F682FAE
:1029300070E0FB01E35CF94FE491281798F4621B07
:1029400071092FEF30E002C0359527956A95E2F7BF
:10295000E2230130110549F078F00230110509F049
:102960005BC00EC00130110519F48C91E82B0AC030
:102970000130110508F049C0E0958C91E82302C0B0
:102980008C91E827EC93941708F446C02C813D8184
:10299000A20FB31FE92FE41BE830F8F00230110555
:1029A00061F48E2F9C9190959C932C813D81A20F78
:1029B000B31F88508830B0F70FC081E001151105B2
:1029C00009F480E081959E2F8C932C813D81A20F8C
:1029D000B31F98509830C0F7E770EE23E9F0F0E0AD
:1029E000EB5CF94FE4910130110539F048F0023009
:1029F000110591F48C91E82706C08C91E82B03C057
:102A0000E0958C91E823EC9307C00230110509F49E
:102A1000B7CFAE0DBF1DBECFDF91CF911F910F91EC
:102A2000FF90EF90089590E0FC01EF5DF94F249145
:102A3000FC01E35DF34F3491FC01E75EF34FE49159
:102A4000EE2309F43CC0222339F1233091F038F40D
:102A50002130A9F0223001F584B58F7D12C02730D6
:102A600091F02830A1F02430B9F4809180008F7D5E
:102A700003C0809180008F77809380000DC084B563
:102A80008F7784BD09C08091B0008F7703C080919B
:102A9000B0008F7D8093B000F0E0EE0FFF1FEB5F82
:102AA000F34FA591B4919FB7F894611104C08C9134
:102AB0003095382302C0EC913E2B3C939FBF089584
:102AC0003FB7F89480911F0290912002A0912102BB
:102AD000B091220226B5A89B05C02F3F19F00196A0
:102AE000A11DB11D3FBFBA2FA92F982F8827820F94
:102AF000911DA11DB11DBC01CD0142E0660F771FE4
:102B0000881F991F4A95D1F708958F929F92AF928F
:102B1000BF92CF92DF92EF92FF926B017C010E94F5
:102B200060154B015C01C114D104E104F104F1F022
:102B30000E946015DC01CB0188199909AA09BB091B
:102B4000883E9340A105B10570F321E0C21AD10877
:102B5000E108F10888EE880E83E0981EA11CB11CE4
:102B6000C114D104E104F10419F7DDCFFF90EF9017
:102B7000DF90CF90BF90AF909F908F900895CF93AC
:102B8000DF93CDB7DEB764970FB6F894DEBF0FBE04
:102B9000CDBF789484B5826084BD84B5816084BDE6
:102BA00085B5826085BD85B5816085BD80916E00EB
:102BB000816080936E00109281008091810082601C
:102BC0008093810080918100816080938100809159
:102BD00080008160809380008091B1008460809348
:102BE000B1008091B00081608093B00080917A0044
:102BF000846080937A0080917A00826080937A006A
:102C000080917A00816080937A0080917A00806858
:102C100080937A001092C10080918D0390918E0371
:102C2000892B11F52091740330917503C901079622
:102C300097FD0796B3E095958795BA95E1F72091B2
:102C40007203309173038C01029FC001039F900DAA
:102C5000129F900D11240E94C91F90938E038093A0
:102C60008D03892B09F42BC10E943D0E80917403C2
:102C700090917503813291050CF450C4BC016054ED
:102C8000710977FF02C06F5F7F4F759567958091DF
:102C90007203909173038255910997FD019600E4A8
:102CA00010E022E530E04CED52E0959587950E94CA
:102CB0005D0E82E08093900380918B0390918C0352
:102CC000892B09F443C48CE380938F031092A701EE
:102CD0001092A60110924B0310926D0310924903BB
:102CE00081E0809348031092230361E082E10E9417
:102CF000131561E083E10E9413158091B9008E7F66
:102D00008093B9008091B9008D7F8093B90088E4E9
:102D10008093B80085E48093BC0085E198E09093AF
:102D2000A5018093A40186E198E09093A30180938C
:102D3000A2018091960387FD1DC00E94E00E61E014
:102D4000809196030E94131561E070E080E090E0AE
:102D50000E94851560E0809196030E9413156AE039
:102D600070E080E090E00E94851561E0809196031C
:102D70000E94131580918B0390918C03892B09F489
:102D80009CC42091A3033091A4034091A5035091CA
:102D9000A60360E074E284EF90E00E940C1CDA016C
:102DA000C9014097A109B109B695A795979587954F
:102DB0008093B80064E088EF90E00E945B0F609120
:102DC000740361508EE693E00E94A90C64E084EFE6
:102DD00090E00E945B0F80919003813009F484C4DD
:102DE00064E18EE693E00E94A90C64E080EF90E03D
:102DF0000E945B0F8FE88093AB03809172039091E8
:102E000073038038910509F073C480917403909125
:102E100075038034910509F07DC480919003813061
:102E200009F464C48FEC8093AB0312E16AED8EE683
:102E300093E00E94A90C612F8EE693E00E94A90CFA
:102E400061E88EE693E00E94A90C6091AB038EE6E8
:102E500093E00E94A90C69ED8EE693E00E94A90C14
:102E600080919003813009F457C461EF8EE693E0BE
:102E70000E94A90C66E08AEE90E00E945B0F8091B0
:102E80008B0390918C03892B09F448C42091A703EC
:102E90003091A8034091A9035091AA0360E074E225
:102EA00084EF90E00E940C1CDA01C9014097A1094F
:102EB000B109B695A795979587958093B80081E05D
:102EC0008093000184E690E09093B2018093B10179
:102ED00068EE73E080E090E00E948515412C74E27A
:102EE000572E74EF672E712CDD24D3940E94601549
:102EF0006093B3017093B4018093B5019093B601D0
:102F000063E2E62E62E0F62E03EA12E08091000111
:102F100020E4829FC001112480937C0080917A007C
:102F2000806480937A0080917A0086FDFCCF809146
:102F300078002091790090E0922B97FD079653E05E
:102F4000959587955A95E1F7D8018D938D01F701F5
:102F500011927F010E9460158090B3019090B4019E
:102F6000A090B501B090B601E091B101F091B2012D
:102F70009F0140E050E02F87388B498B5A8BAB0183
:102F8000BC01481959096A097B098F859889A98963
:102F9000BA89481759076A077B07E0F2880D991D1F
:102FA000AA1DBB1D8093B3019093B401A093B501FA
:102FB000B093B60193E00332190709F0A7CFDE0101
:102FC00011961D01E12CF12CAF87C32C0E946015D6
:102FD0004B015C016093AD017093AE018093AF0132
:102FE0009093B001BFEFEB1AFB0A60E070E0C701FD
:102FF0000E947310B7010F2C000C880B990B0E94D4
:103000006C1C9B01AC0160E070E080E090E40E94E9
:10301000D01C0E94341C8B0163E272E0E3EAF2E010
:103020002CE935E0CF01835A92408017910784F450
:10303000D9014D919D019081949F902D11249193E0
:10304000DB018C91849F802D11248D93BD01EACFEB
:1030500061E070E0C7010E9473100E946015DC01FE
:10306000CB0188199909AA09BB098093AD019093F6
:10307000AE01A093AF01B093B0010E9460154B0167
:103080005C016093A9017093AA018093AB019093B6
:10309000AC01E3E2F2E0FC8BEB8BE3EAF2E060E010
:1030A00070E040E050E0CF01835A924080179107D2
:1030B000FCF48CE995E09C012C5935402017310730
:1030C00084F43081DC012D91CD013202400D511D7F
:1030D0001124AB89BC893C912302600D711D112420
:1030E000EACF4193AB89BC896D93BC8BAB8BDBCFB3
:1030F0000E946015DC01CB0188199909AA09BB0956
:103100008093A9019093AA01A093AB01B093AC0165
:103110000E943D0E8EE0E7E0F1E0AF85BC2D01900E
:103120000D928A95E1F710927B0310927A03109228
:103130007D0310927C03D0928203D092830381E0BE
:1031400090E0909381038093800390937F0380931A
:103150007E038DE591E00E942210F1016191719151
:103160001F014B01770FAA08BB08B7FE0EC06DE226
:103170008EE693E00E94C90B66277727CB0168197A
:1031800079098A099B094AE003C04AE0C501B401F4
:103190000E9424108BE691E00E9410108EE691E0D0
:1031A0000E94221010927B0310927A0308E110E033
:1031B00010937D0300937C0388E791E00E946510E3
:1031C0008BE591E00E9465108AE891E00E94221050
:1031D0006091AD017091AE018091AF019091B0010D
:1031E0004AE00E9424108FE891E00E94651082E975
:1031F00091E00E9422106091A9017091AA01809132
:10320000AB019091AC014AE00E9424108FE891E05C
:103210000E94651087E991E00E9422104091AD0163
:103220005091AE016091AF017091B0018091A90100
:103230009091AA01A091AB01B091AC014817590738
:103240006A077B0718F088E591E002C083E591E00A
:103250000E9422108FE991E00E9422104091AD015E
:103260005091AE016091AF017091B0018091A901C0
:103270009091AA01A091AB01B091AC018417950780
:10328000A607B70738F48A019B01081B190B2A0B04
:103290003B0B06C08C019D01041B150B260B370B45
:1032A000C901B8014AE00E9424108FE891E00E9411
:1032B000221080918B0390918C03892BC1F0209177
:1032C000A3033091A4034091A5035091A603C30129
:1032D000B2010E940C1CDA01C9014097A109B10991
:1032E000B695A795979587958093B80016C080915D
:1032F000890390918A03892B31F08091AC039091DE
:10330000AD030E940C0DE0919D03F0919E0390810E
:103310008091A20380958923808365E08CE196E00B
:103320000E945B0F6091720361508EE693E00E94F1
:10333000A90C2091740330917503C901079697FD7C
:10334000079633E0959587953A95E1F720917203BA
:1033500030917303829F5001839FB00C929FB00CF9
:10336000112400918D0310918E0380918B03909115
:103370008C03A00EB11E009709F44BC020918F035F
:10338000D0924A0320936C0310924B0310926D036A
:10339000DC01ED91FC910190F081E02D60E4099554
:1033A0008824839480918B0390918C03A016B1069E
:1033B00069F1BFE1B815D0F40E94FF0E80918F0330
:1033C000D0924A0380936C0310924B0310926D03CA
:1033D00080918B0390918C03DC01ED91FC91019025
:1033E000F081E02D60E409958824839480918B031B
:1033F00090918C03F80161918F01DC01ED91FC91BA
:103400000190F081E02D09958394CCCF0E94FF0EAE
:1034100043C0E0919B03F0919C0390818091A103B4
:10342000892B8083A016B106B9F1F80181918F0133
:103430002091890330918A03232B19F00E94A20C5A
:10344000F1CF28E030E040E8E0919703F091980355
:1034500090919F03582F542319F05081952B03C04E
:103460005081909595239083E0919903F0919A0370
:1034700050819091A003952B9083E0919903F09156
:103480009A0350819091A00390959523908346953F
:1034900021503109C9F6C6CF80918B0390918C03DE
:1034A000892BC1F02091A7033091A8034091A90373
:1034B0005091AA03C301B2010E940C1CDA01C90198
:1034C0004097A109B109B695A795979587958093DF
:1034D000B80011C0E0919D03F0919E03908180910E
:1034E000A203892B80838091890390918A03892B81
:1034F00011F00E94A10C68EE73E080E090E00E9461
:103500008515F7E0EF16F10409F060CD80E090E05A
:10351000892B09F4EBCC0E940000E6CCBC01605280
:10352000710977FF02C06F5F7F4F75956795809136
:103530007203909173038357910997FD019600E2FE
:1035400010E023E730E04CEF50E0AFCB80919403E4
:103550000E94E00E809195030E94E00E80919403FA
:10356000082E000C990BFC01E75EF34FE491F0E0AC
:10357000EE0FFF1FEB5FF34F2591349130939C03C7
:1035800020939B03FC01E35DF34FE491E093A103DF
:1035900080919503082E000C990BFC01E75EF34F18
:1035A000E491F0E0EE0FFF1FEB5FF34FA591B491B4
:1035B000B0939E03A0939D03FC01E35DF34FE49160
:1035C000E093A2038C91E82BEC9380918903909176
:1035D0008A03892B89F11FB7F8948091A801811182
:1035E00024C0E3E2FCE08491E7E3FCE09491E82F5F
:1035F000F0E0EE0FFF1FE15FF34FA591B491EC9166
:10360000E92321F461E08AE00E9413158AE00E9418
:10361000E00E8CB580618CBD8CB580648CBD8DE076
:103620000E94E00E8BE00E94E00E8091A8018F5F67
:103630008093A8011FBF7DCB809192030E94E00E72
:10364000809193030E94E00E80919203082E000C5B
:10365000990BFC01E75EF34FE491F0E0EE0FFF1FE2
:10366000EB5FF34F259134913093980320939703A8
:10367000FC01E35DF34FE491E0939F03809193039A
:10368000082E000C990BFC01E75EF34FE491F0E08B
:10369000EE0FFF1FEB5FF34FA591B491B0939A0328
:1036A000A0939903FC01E35DF34FE491E093A00341
:1036B0008C91E095E823EC933CCB80918903909129
:1036C0008A03892B31F08091AC039091AD030E9465
:1036D0000C0DE0919D03F0919E0390818091A203D7
:1036E00080958923808366CB60E17BCB8FE99BCB80
:1036F0008036910579F48091740390917503409719
:1037000049F480919003813011F08FEA01C080E18B
:103710008093AB0312E08ACB62E2A8CBE0919D03D9
:10372000F0919E0390818091A203892B80838091E8
:10373000890390918A03892B09F4C1CB0E94A10CC3
:10374000BECB8BE291E090936F0380936E038091E8
:103750008D0390918E03009711F00C9461200895D1
:10376000AEEAB3E013961C921E92129748EE53E015
:1037700060E070E014964D935D936D937C93179782
:1037800089E191E011969C938E93EEE6F3E013822B
:10379000128220E830E03583248380E490E0978330
:1037A00086833187208793878287168A15861486B9
:1037B0001786168681E0858B848B2FEF3FEF338B46
:1037C000228B318B208B878B108E128E118E8BE289
:1037D00091E091838083148E138EB68FA58F10A2F3
:1037E000178E8FEF84A385A386A387A384E080A789
:1037F00080E89AE1A6E0B0E085AB96ABA7ABB0AFAE
:1038000080EA96E8A1E0B0E081AF92AFA3AFB4AF99
:1038100080E586AF17AE0895A1E21A2EAA1BBB1B46
:10382000FD010DC0AA1FBB1FEE1FFF1FA217B3078C
:10383000E407F50720F0A21BB30BE40BF50B661FA2
:10384000771F881F991F1A9469F760957095809566
:1038500090959B01AC01BD01CF010895EE0FFF1FB4
:103860000590F491E02D09940E943B1C6894B111DD
:103870000C94CA1C08950E94AF1C88F09F5798F0C2
:10388000B92F9927B751B0F0E1F0660F771F881F65
:10389000991F1AF0BA95C9F714C0B13091F00E947F
:1038A000C91CB1E008950C94C91C672F782F882794
:1038B000B85F39F0B93FCCF3869577956795B395A6
:1038C000D9F73EF490958095709561957F4F8F4F15
:1038D0009F4F0895E89409C097FB3EF4909580951A
:1038E000709561957F4F8F4F9F4F9923A9F0F92FC6
:1038F00096E9BB279395F695879577956795B79544
:10390000F111F8CFFAF4BB0F11F460FF1BC06F5F29
:103910007F4F8F4F9F4F16C0882311F096E911C03B
:10392000772321F09EE8872F762F05C0662371F05C
:1039300096E8862F70E060E02AF09A95660F771F70
:10394000881FDAF7880F9695879597F9089557FDA0
:103950009058440F551F59F05F3F71F04795880FFD
:1039600097FB991F61F09F3F79F087950895121694
:1039700013061406551FF2CF4695F1DF08C0161640
:1039800017061806991FF1CF8695710561050894F1
:103990000895E894BB2766277727CB0197F9089508
:1039A000FA01EE0FFF1F309621053105A1F16115D7
:1039B000710561F48038BFE39B0749F16894903842
:1039C000810561F08038BFEF9B0741F099234AF5EC
:1039D000FF3FE1053105210519F1E8940894E795C9
:1039E000D901AA2329F4AB2FBE2FF85FD0F310C062
:1039F000FF5F70F4A695E0F7F73950F019F0FF3A41
:103A000038F49F779F930DD00F9007FC905808953E
:103A100046F00C94601D60E070E080E89FE308953C
:103A20004FE79F775F934F933F932F930E94D41D4F
:103A30002F913F914F915F910E94501E0C94281D31
:103A400029F416F00C945A1D0C94C91C0C94601D9A
:103A50000E94AF1CA8F39638A0F707F80F92E894DD
:103A60002BE33AEA48EB5FE70E94661E0F920F9243
:103A70000F924DB75EB70F920E941C1EE8E6F0E071
:103A80000E94631D4F915F91EF91FF91E595EE1FAD
:103A9000FF1F49F0FE57E0684427EE0F441FFA95D8
:103AA000E1F74195550B0E94961D0F9007FE0C946F
:103AB0008A1D089597F99F6780E870E060E0089597
:103AC0009FEF80EC0895DF93CF931F930F93FF92A6
:103AD000EF92DF927B018C01689406C0DA2EEF0131
:103AE0000E94631EFE01E894A591259135914591B0
:103AF0005591A6F3EF010E94D51EFE019701A80182
:103B0000DA9469F7DF90EF90FF900F911F91CF91BA
:103B1000DF9108959B01AC0160E070E080E89FE3D5
:103B20000C942A1F0C945A1D0C949C1F0E94AF1CCD
:103B3000D8F39923C9F3940F511DA3F3915050402A
:103B400094F059F0882332F0660F771F881F915048
:103B50005040C1F79E3F51052CF7880F911D969557
:103B6000879597F908955F3FACF0983E9CF0BB278E
:103B7000869577956795B79508F4B1609395C1F7E9
:103B8000BB0F58F711F460FFE8CF6F5F7F4F8F4F87
:103B90009F4FE3CF0C94CA1C16F00C949C1F0C94FE
:103BA000601D68940C945A1D0E94AF1CA8F39923C1
:103BB000C1F3AEF3DF93CF931F930F93FF92C92FFF
:103BC000DD2788232AF02197660F771F881FDAF7F1
:103BD00020E030E040E85FEB9FE3883920F0803E52
:103BE00038F021968F770E94BE1EE0E9F0E004C015
:103BF0000E94BE1EEDEBF0E00E94631D8B01BE0132
:103C0000EC01FB2E6F5771097595771F880B990B87
:103C10000E946C1C28E132E741E35FE30E94631ECF
:103C2000AF2D9801AE01FF900F911F91CF91DF91C1
:103C30000E94D51E0C94B81FFA01DC01AA0FBB1F0D
:103C40009B01AC01BF5728F4222733274427507823
:103C500020C0B75190F4AB2F002446953795279597
:103C6000011CA395D2F3002071F0220F331F441FD3
:103C7000B395DAF30ED00C94BD1E61307105A0E847
:103C80008A07B94630F49B01AC016627772788275D
:103C90009078309621F020833183428353830895B6
:103CA0000E94631E0C94B81F0E94AA1F38F00E9445
:103CB000B11F20F0952311F00C945A1D0C94601D37
:103CC00011240C94CA1C0E94A71C70F3959FC1F389
:103CD000950F50E0551F629FF001729FBB27F00DBA
:103CE000B11D639FAA27F00DB11DAA1F649F66270F
:103CF000B00DA11D661F829F2227B00DA11D621F5E
:103D0000739FB00DA11D621F839FA00D611D221F17
:103D1000749F3327A00D611D231F849F600D211DFB
:103D2000822F762F6A2F11249F5750409AF0F1F07E
:103D300088234AF0EE0FFF1FBB1F661F771F881FE7
:103D400091505040A9F79E3F510580F00C945A1DA8
:103D50000C94CA1C5F3FE4F3983ED4F386957795A4
:103D60006795B795F795E7959F5FC1F7FE2B880F8D
:103D7000911D9695879597F908955058BB27AA27C6
:103D80000E94D51E0C94B81F0E94AA1F38F00E94F2
:103D9000B11F20F039F49F3F19F426F40C94601DF4
:103DA0000EF4E095E7FB0C945A1DE92F0E94A71C26
:103DB00058F3BA17620773078407950720F079F460
:103DC000A6F50C94C91C0EF4E0950B2EBA2FA02D6D
:103DD0000B01B90190010C01CA01A0011124FF27B8
:103DE000591B99F0593F50F4503E68F11A16F040B3
:103DF000A22F232F342F4427585FF3CF46953795B2
:103E00002795A795F0405395C9F77EF41F16BA0B76
:103E1000620B730B840BBAF09150A1F0FF0FBB1F24
:103E2000661F771F881FC2F70EC0BA0F621F731F6D
:103E3000841F48F4879577956795B795F7959E3FCA
:103E400008F0B0CF9395880F08F09927EE0F97955B
:103E5000879508950E943E1F0C94B81F0E94B11FC1
:103E600058F00E94AA1F40F029F45F3F29F00C94FB
:103E70005A1D51110C94CA1C0C94601D0E94A71C61
:103E800068F39923B1F3552391F3951B550BBB2789
:103E9000AA2762177307840738F09F5F5F4F220FCE
:103EA000331F441FAA1FA9F335D00E2E3AF0E0E8C5
:103EB00032D091505040E695001CCAF72BD0FE2F0F
:103EC00029D0660F771F881FBB1F261737074807A3
:103ED000AB07B0E809F0BB0B802DBF01FF2793585B
:103EE0005F4F3AF09E3F510578F00C945A1D0C94A8
:103EF000CA1C5F3FE4F3983ED4F3869577956795A7
:103F0000B795F7959F5FC9F7880F911D969587958F
:103F100097F90895E1E0660F771F881FBB1F6217AE
:103F200073078407BA0720F0621B730B840BBA0B6C
:103F3000EE1F88F7E09508959F3F31F0915020F4EF
:103F4000879577956795B795880F911D9695879575
:103F500097F9089500240A941616170618060906FC
:103F6000089500240A9412161306140605060895EF
:103F7000092E0394000C11F4882352F0BB0F40F477
:103F8000BF2B11F460FF04C06F5F7F4F8F4F9F4FB7
:103F900008950F931F93CF93DF938230910510F410
:103FA00082E090E0E091BC03F091BD0320E030E0BE
:103FB000A0E0B0E0309719F1408151810281138176
:103FC00048175907C8F08417950769F4109731F01E
:103FD00012960C93129713961C9327C00093BC0360
:103FE0001093BD0322C02115310519F04217530764
:103FF00018F49A01BD01EF01DF01F801DBCF2115B3
:104000003105F9F0281B390B2430310580F48A8101
:104010009B816115710521F0FB019383828304C0AC
:104020009093BD038093BC03FE01329644C0FE0111
:10403000E20FF31F81939193225031093983288332
:104040003AC02091BA033091BB03232B41F4209155
:104050000301309104013093BB032093BA032091F4
:104060000101309102012115310541F42DB73EB710
:104070004091050150910601241B350BE091BA03D4
:10408000F091BB03E217F307A0F42E1B3F0B281798
:10409000390778F0AC014E5F5F4F2417350748F0C1
:1040A0004E0F5F1F5093BB034093BA0381939193CC
:1040B00002C0E0E0F0E0CF01DF91CF911F910F91BE
:1040C0000895CF93DF93009709F481C0FC013297E4
:1040D00013821282A091BC03B091BD03109781F4AA
:1040E00020813181820F931F2091BA033091BB034D
:1040F0002817390751F5F093BB03E093BA0367C063
:10410000ED0120E030E0CE17DF0740F44A815B810B
:104110009E0141155105F1F0EA01F5CFD383C28329
:1041200040815181840F951FC817D90759F48881A0
:104130009981840F951F0296918380838A819B8148
:10414000938382832115310529F4F093BD03E09315
:10415000BC033DC0E901FB83EA8349915991C40F37
:10416000D51FEC17FD0761F480819181840F951FA5
:104170000296E90199838883828193819B838A8354
:10418000E0E0F0E012968D919C911397009719F062
:10419000FD01DC01F7CF8D919C9111979D012E5F60
:1041A0003F4F820F931F2091BA033091BB03281712
:1041B000390769F4309729F41092BD031092BC03BB
:1041C00002C013821282B093BB03A093BA03DF91A3
:1041D000CF91089581E090E0F8940C94F620DC01F2
:1041E00001C06D9341505040E0F7089516E0C2E2DF
:1041F000D6E004C0FE010E942E1C2196C332D107D6
:06420000C9F7F894FFCF9E
:10420600010000BE03200002000400080010002088
:1042160000400080000000000070084308370B17BC
:10422600083B082708180800000000C90B4D063790
:104236000B360B260717087D0A550A710A650A848C
:104246000A1708A00877063A0B7E0B9E0981091407
:1042560009B50846465420004649522000464654B1
:104266002F4649522073697A653D000D0A00426F58
:104276006172643A554E4F0046696C7465722063EC
:10428600616C632074696D653A004646543A007560
:1042960053004649523A0057494E4E45523A006439
:0242A6003A00DC
:00000001FF
