:100000000C9447060C946F060C946F060C946F06C4
:100010000C946F060C946F060C946F060C946F068C
:100020000C946F060C946F060C946F060C946F067C
:100030000C946F060C946F060C946F060C946F066C
:100040000C9400070C946F060C946F060C946F06CA
:100050000C946F060C946F060C946F060C946F064C
:100060000C94330D0C946F0607634236B79BD8A7E8
:100070001A39685618AEBAAB558C1D3CB7CC5763CD
:10008000BD6DEDFD753EF6177231BF000000803F7B
:1000900008000000BE922449123EABAAAA2ABECD97
:1000A000CCCC4C3E00000080BEABAAAAAA3E000009
:1000B0000000BF000000803F000000000008417801
:1000C000D3BB4387D1133D190E3CC3BD4282AD2B38
:1000D0003E68EC8276BED98FE1A93E4C80EFFFBE30
:1000E00001C4FF7F3F0000000000DB40A4A62EAF4C
:1000F0002000A1C8D300408DAED580A800006000CC
:1001000000000000000000000000000000E000000F
:10011000000000000000000000000001E0000000FE
:100120000000000000000000000001F000000000DE
:1001300000000000000000000003F00000000000CC
:10014000000000000000000007F0000000000000B8
:100150000000000000000007F800000000000000A0
:100160000000000000000FF800000003C0007E0047
:100170000001E0007F0FF800000003C000FE000057
:1001800001E000FFEFF800000003C000FE000001E6
:10019000E000FFFFF800000003C000F00000000FC7
:1001A000007FFE7FC0000003C000F00000000F00D1
:1001B0003FFE7FF83FF1FBCFFCFEF3BC3DEFE01FBD
:1001C000FE7FFF7FFBFFDFFEFEFFBC3DEFE01FC6B3
:1001D000FFFF7FFBFFDFFEFEFFBC3DEFE00FE3C74D
:1001E000FE787BC3DE1EF0FFBC3DEF0007FF87FCFF
:1001F000787BC3DE1EF0F83C3DEF0001FFFFF0000E
:100200007BC3C01EF0F03C3DEF0001F37FE03FFBFD
:10021000C3CFFEF0F03C3DEF0003E33F807FFBC324
:10022000DFFEF0F03C3DEF0007E73C00787BC3DEEB
:100230001EF0F03C3DEF0007FFBE00787BC3DE1EE2
:10024000F0F03C3DEF0007FFFE00787BC3DE1EF0C0
:10025000F03C3DEF000FFFFE007FFBFFDFFEF0F004
:100260003FFDEFE00FFFFF007FFBFFDFFEF0F03F01
:10027000FDEFE00FF9FF003E79F9CF9EF0F01F3D52
:10028000E7E01FF1FF000000000000000000000098
:10029000001F80FF007FFFFFFFFFFFFFFFFFFFE06A
:1002A0001C007F007FFFFFFFFEB46D888D18E0000B
:1002B000001F007FFFFFFFFE95AD7DB577E00000DA
:1002C0000F007FFFFFFFFEA5AD9D8D19E00000062A
:1002D000007FFFFFFFFEB5ADEDB57EE00000000042
:1002E000000180000000000000000000038000000A
:1002F0000000000000000007C00000000000000037
:10030000000007C00000000000000000000FC00057
:1003100000000000000000001FE0000000000000DE
:100320000000001FE00000000000000000003FE0AF
:100330000000000000000000003FF000000000008E
:10034000000000007FF0000000000000001FF87FA8
:10035000F0000000000000003FFE7FF00000000001
:100360000000003FFF7FF0000000000000001FFFC2
:10037000FBE0000000000000000FFFF9FFC00000DC
:10038000000000000FFFF9FFF80000000000000768
:10039000FFF1FFFF00000000000003FC73FFFF807F
:1003A000000000000001FE3FFFFF80000000000091
:1003B00000FF1E0FFF000000000000007FFE1FFC7A
:1003C000000000000000003FFFFFF80000000000F8
:1003D00000000FDFFFE0000000000000001F19FF19
:1003E000C0000000000000003F3CFF0000000000D3
:1003F0000000007E7CF800000000000000007FFE8E
:100400007C0000000000000000FFFFFC0000000076
:1004100000000000FFFFFE0000000000000000FFE1
:10042000FFFE0000000000000001FFEFFE000000E2
:100430000000000001FFCFFE0000000000000003EC
:10044000FF07FE0000000000000003FC07FE0000A4
:10045000000000000003F003FE00000000000000A8
:10046000018000FE000000000000000000007E008F
:100470000000000000000000003E0000000000003E
:10048000000000000C000000000000078000FC00DD
:100490000003C0000000078001FC000003C0000052
:1004A00000078001FC000003C0000000078001E09D
:1004B0000000001E000000078001E00000001E0098
:1004C0007FE3F79FF9FDE7787BDFC0FFF7FFBFFD14
:1004D000FDFF787BDFC0FFF7FFBFFDFDFF787BDF0F
:1004E000C0F0F787BC3DE1FF787BDE00F0F787BC0A
:1004F0003DE1F0787BDE0000F787803DE1E0787B2E
:10050000DE007FF7879FFDE1E0787BDE00FFF78765
:10051000BFFDE1E0787BDE00F0F787BC3DE1E078ED
:100520007BDE00F0F787BC3DE1E0787BDE00F0F792
:1005300087BC3DE1E0787BDE00FFF7FFBFFDE1E037
:100540007FFBDFC0FFF7FFBFFDE1E07FFBDFC07C8B
:10055000F3F39F3DE1E03E7BCFC0000000000000D0
:100560000000000000FFFFFFFFFFFFFFFFFFFFC0D5
:10057000FFFFFFFFFD68DB111A31C0FFFFFFFFFD2A
:100580002B5AFB6AEFC0FFFFFFFFFD4B5B3B1A33AB
:10059000C0FFFFFFFFFD6B5BDB6AFDC001010101D6
:1005A000010101010101010101010101010101013B
:1005B000010101010101010101010101010101012B
:1005C000010101010101010101010101010101011B
:1005D000010101010101010101010101010101010B
:1005E00001010101010101010101010101010101FB
:1005F00001010101010101010101010101010101EB
:1006000001010101010101010101010101010101DA
:1006100001010101010101010101010175530064A2
:100620003A0057494E4E45523A00755300464952DA
:100630003A007553004646543A000046696C7465AA
:10064000722063616C632074696D653A00426F616A
:1006500072643A554E4F004646542F464952207315
:10066000697A653D002200FF2100000000080002B9
:10067000010000030407000000000000000000016A
:1006800003070F1F3F7F0080C0E0F0F8FCFE000072
:100690000000003E5B4F5B3E3E6B4F6B3E1C3E7C62
:1006A0003E1C183C7E3C181C577D571C1C5E7F5E10
:1006B0001C00183C1800FFE7C3E7FF0018241800CF
:1006C000FFE7DBE7FF30483A060E26297929264066
:1006D0007F050507407F05253F5A3CE73C5A7F3E92
:1006E0001C1C08081C1C3E7F14227F22145F5F0024
:1006F0005F5F06097F017F006689956A60606060C0
:100700006094A2FFA29408047E040810207E2010AA
:1007100008082A1C08081C2A08081E101010100CB3
:100720001E0C1E0C30383E3830060E3E0E06000001
:1007300000000000005F00000007000700147F14A5
:100740007F14242A7F2A1223130864623649562014
:10075000500008070300001C2241000041221C0039
:100760002A1C7F1C2A08083E0808008070300008F8
:1007700008080808000060600020100804023E51CC
:1007800049453E00427F400072494949462141495E
:100790004D331814127F1027454545393C4A4949C5
:1007A0003141211109073649494936464949291E2F
:1007B000000014000000403400000008142241141E
:1007C00014141414004122140802015909063E4170
:1007D0005D594E7C1211127C7F494949363E414198
:1007E00041227F4141413E7F494949417F090909F1
:1007F000013E414151737F0808087F00417F41005D
:100800002040413F017F081422417F404040407F0B
:10081000021C027F7F0408107F3E4141413E7F0958
:100820000909063E4151215E7F0919294626494999
:10083000493203017F01033F4040403F1F204020D9
:100840001F3F4038403F63140814630304780403D7
:100850006159494D43007F41414102040810200085
:100860004141417F040201020440404040400003F6
:1008700007080020545478407F28444438384444C2
:100880004428384444287F385454541800087E09BA
:100890000218A4A49C787F0804047800447D4000DA
:1008A0002040403D007F1028440000417F40007CF4
:1008B000047804787C080404783844444438FC18EC
:1008C00024241818242418FC7C08040408485454D0
:1008D000542404043F44243C4040207C1C204020FD
:1008E0001C3C4030403C44281028444C9090907C64
:1008F0004464544C44000836410000007700000076
:100900004136080002010204023C2623263C1EA1B7
:10091000A161123A4040207A385454555921555516
:1009200079412254547842215554784020545579C5
:10093000400C1E5272123955555559395454545958
:1009400039555454580000457C410002457D420011
:1009500001457C407D1211127DF0282528F07C5441
:100960005545002054547C547C0A097F493249493A
:1009700049323A4444443A324A4848303A414121A3
:100980007A3A42402078009DA0A07D3D4242423DFF
:100990003D4040403D3C24FF2424487E4943662B93
:1009A0002FFC2F2BFF0929F620C0887E0903205435
:1009B0005479410000447D413048484A3238404033
:1009C000227A007A0A0A727D0D19317D2629292F93
:1009D00028262929292630484D40203808080808AB
:1009E00008080808382F10C8ACBA2F102834FA00AD
:1009F000007B000008142A142222142A140855002F
:100A0000550055AA55AA55AAFF55FF55FF000000ED
:100A1000FF00101010FF00141414FF001010FF004E
:100A2000FF1010F010F0141414FC001414F700FF61
:100A30000000FF00FF1414F404FC141417101F101E
:100A4000101F101F1414141F00101010F0000000CD
:100A5000001F101010101F10101010F010000000D8
:100A6000FF101010101010101010FF10000000FFE9
:100A7000140000FF00FF00001F10170000FC04F42A
:100A800014141710171414F404F40000FF00F714E2
:100A9000141414141414F700F71414141714101069
:100AA0001F101F141414F4141010F010F000001F85
:100AB000101F0000001F14000000FC140000F010C4
:100AC000F01010FF10FF141414FF141010101F006A
:100AD000000000F010FFFFFFFFFFF0F0F0F0F0FF6C
:100AE000FFFF0000000000FFFF0F0F0F0F0F384443
:100AF000443844FC4A4A4A347E02020606027E0218
:100B00007E0263554941633844443C04407E201EC4
:100B10002006027E020299A5E7A5991C2A492A1CF3
:100B20004C7201724C304A4D4D303048784830BCE0
:100B3000625A463D3E494949007E0101017E2A2A0A
:100B40002A2A2A44445F444440514A444040444A8B
:100B500051400000FF0103E080FF000008086B6BBC
:100B6000083612362436060F090F06000018180042
:100B700000001010003040FF0101001F01011E00A5
:100B8000191D1712003C3C3C3C0000000000000313
:100B900006090C0F1215181C1F2225282B2E303386
:100BA00036393C3F414447494C4E515355585A5CA5
:100BB0005E60626466686A6C6D6F7072737576777A
:100BC00078797A7B7C7C7D7E7E7F7F7F7F7F7F7F55
:100BD0007F7F7F7F7E7E7D7C7C7B7A797877767560
:100BE0007372706F6D6C6A68666462605E5C5A589E
:100BF0005553514E4C494744413F3C393633302ED2
:100C00002B2825221F1C1815120F0C09060300FDA6
:100C1000FAF7F4F1EEEBE8E4E1DEDBD8D5D2D0CDA3
:100C2000CAC7C4C1BFBCB9B7B4B2AFADABA8A6A464
:100C3000A2A09E9C9A9896949391908E8D8B8A896F
:100C40008887868584848382828181818181000076
:100C50000000250028002B000000000024002700D1
:100C60002A0004040404040404040202020202022E
:100C70000303030303030102040810204080010260
:100C800004081020010204081020ED1BDE1B1124B3
:100C90001FBECFEFD8E0DEBFCDBF11E0A0E0B1E0D6
:100CA000E0E8F2E402C005900D92A036B107D9F752
:100CB00023E0A0E6B1E001C01D92AC37B207E1F736
:100CC00016E0C6E4D6E004C02197FE010E946B1C2A
:100CD000C534D107C9F70E94FC150C9433210C943C
:100CE0000000CF92DF92EF92FF920F931F93CF936A
:100CF000DF936C017A018B01C0E0D0E0CE15DF05F7
:100D000081F0D8016D918D01D601ED91FC9101909A
:100D1000F081E02DC6010995892B11F02196EECFC7
:100D20007E01C701DF91CF911F910F91FF90EF904E
:100D3000DF90CF9008951F93CF93DF93EC01162F90
:100D40008D8D9E8D892BB1F02DA93EA94FA958AD4F
:100D500060E074E284EF90E00E94491CDA01C9016E
:100D60004097A109B109B695A79597958795809366
:100D7000B8000FC08B8D9C8D892B21F08EAD9FAD5F
:100D80000E94300DEFA5F8A990818CA98095892348
:100D90008083111102C066EA01C067EACE010E9499
:100DA000CD0C8D8D9E8D892BB1F029AD3AAD4BAD1B
:100DB0005CAD60E074E284EF90E00E94491CDA01CF
:100DC000C9014097A109B109B695A795979587954F
:100DD0008093B8000FC0EFA5F8A990818CA9892B4A
:100DE00080838B8D9C8D892B29F0DF91CF911F9172
:100DF0000C94C50CDF91CF911F9108950E9427217B
:100E00001F920F920FB60F9211242F933F938F933F
:100E10009F93AF93BF938091760190917701A091BA
:100E20007801B09179013091750123E0230F2D37BE
:100E300020F40196A11DB11D05C026E8230F0296DE
:100E4000A11DB11D209375018093760190937701C8
:100E5000A0937801B09379018091DD019091DE013A
:100E6000A091DF01B091E0010196A11DB11D809319
:100E7000DD019093DE01A093DF01B093E001BF910B
:100E8000AF919F918F913F912F910F900FBE0F9037
:100E90001F901895FC0177FDB9C080859185681772
:100EA00079070CF0B3C057FDB1C082859385481710
:100EB00059070CF008958689823079F484819581F0
:100EC000DC01A61BB70BBD016150710986819781BA
:100ED000DC01A41BB50BAD010EC0833009F084C04A
:100EE00064277527CA0186279727682779274681AF
:100EF0005781481B590B415051092130310531F0C0
:100F000048F12230310509F44AC00895CA0157FD5D
:100F100007969C01A3E035952795AA95E1F7A48152
:100F2000B5812A9FC0012B9F900D3A9F900D1124EF
:100F3000680F791F078CF0A1E02DE60FF71F4770AF
:100F4000552781E090E001C0880F4A95EAF790812B
:100F5000892B48C0CA0157FD07969C0193E035953F
:100F600027959A95E1F7A481B5812A9FC0012B9F0F
:100F7000900D3A9F900D1124680F791F078CF0A1F6
:100F8000E02DE60FF71F4770552781E090E001C084
:100F9000880F4A95EAF780959081892323C0CA017A
:100FA00057FD07969C0183E0359527958A95E1F7D3
:100FB000A481B5812A9FC0012B9F900D3A9F900D6F
:100FC0001124680F791F078CF0A1E02DE60FF71FA1
:100FD0004770552781E090E001C0880F4A95EAF7F5
:100FE0009081892780830895813009F086CF642716
:100FF0007527462757276427752784819581DC014B
:10100000A61BB70BBD016150710977CF08950895F4
:10101000FC016370668B8481958126813781613004
:1010200039F0633029F091878087338722870895CC
:10103000318720879387828708956F927F928F925E
:101040009F92AF92BF92CF92DF92EF92FF920F9357
:101050001F93CF93DF93EC014B015A0169013801D3
:10106000E881F9810284F385E02D0995E881F98111
:101070000288F389E02D87019601A501B401CE0114
:101080000995A501460D571D41505109E881F98187
:101090000288F389E02D9601B401CE010995E8811B
:1010A000F9810088F189E02D9301A501B401CE01F9
:1010B0000995C80CD91CB60161507109E881F98104
:1010C0000088F189E02D9301A501CE010995E88101
:1010D000F9810688F789E02DCE01DF91CF911F912C
:1010E0000F91FF90EF90DF90CF90BF90AF909F90C7
:1010F0008F907F906F9009948F929F92AF92BF9242
:10110000CF92DF92EF92FF920F931F93CF93DF93D3
:101110004C016B015A01E901DC01ED91FC91621770
:10112000730781F40417150724F48B2D5801042F3D
:10113000182F0A191B0998012F5F3F4F048CF58D5A
:10114000E02D12C04017510709F52617370724F480
:101150008D2D6901C62FD82F9E012C193D092F5FB7
:101160003F4F068CF78DE02D8701A501B601C40124
:101170000995DF91CF911F910F91FF90EF90DF9034
:10118000CF90BF90AF909F908F9008950284F38589
:10119000E02D0995D401ED91FC910488F589E02DAD
:1011A0009E01A501B601C4010995D401ED91FC9100
:1011B0000688F789E02DC401DF91CF911F910F912F
:1011C000FF90EF90DF90CF90BF90AF909F908F9067
:1011D0000994EF92FF920F931F93DC011A960D91E1
:1011E0001C911B9718962D913C911997ED91FC91AC
:1011F00000A0F1A1E02D7B0140E050E060E070E054
:1012000009951F910F91FF90EF9008954F925F9273
:101210006F927F928F929F92AF92BF92CF92DF9206
:10122000EF92FF920F931F93CF93DF936C012B01EB
:101230005A0139014801DC01ED91FC910284F385EA
:10124000E02D0995E201640C751CD601ED91FC912D
:10125000C615D7055CF40088F189E02D870194015B
:10126000A501BE01C60109952196EFCF0688F78931
:10127000E02DC601DF91CF911F910F91FF90EF906C
:10128000DF90CF90BF90AF909F908F907F906F90A6
:101290005F904F9009948F929F92AF92BF92CF929E
:1012A000DF92EF92FF920F931F93CF93DF93EC01A6
:1012B0005B014A016901E881F9810284F385E02D2F
:1012C000099595012C0D3D1D21503109E881F981C9
:1012D0000488F589E02D78018401A401B501CE01CF
:1012E0000995E881F9810688F789E02DCE01DF9123
:1012F000CF911F910F91FF90EF90DF90CF90BF9013
:10130000AF909F908F9009948F929F92AF92BF92CF
:10131000CF92DF92EF92FF920F931F93CF93DF93C1
:10132000EC015B014A0169017801E881F9810284DD
:10133000F385E02D0995C80CD91C860101501109CF
:10134000E881F9810488F589E02D9501A401B501B2
:10135000CE010995E881F9810688F789E02DCE0153
:10136000DF91CF911F910F91FF90EF90DF90CF9081
:10137000BF90AF909F908F9009940895EF92FF9245
:101380000F931F93DC01ED91FC9100A0F1A1E02DE2
:1013900009951F910F91FF90EF9008950F931F9360
:1013A000DC01ED91FC91068CF78DE02D09951F91E4
:1013B0000F9108950F931F93DC01ED91FC91048C24
:1013C000F58DE02D09951F910F910895DC01ED91A8
:1013D000FC910084F185E02D09942F923F924F9269
:1013E0005F926F927F928F929F92AF92BF92CF92B5
:1013F000DF92EF92FF920F931F93CF93DF9300D072
:1014000000D000D0CDB7DEB72C017E836D836A019A
:101410005901C801FC82EB824801841A950A97FEA3
:1014200003C091948194910835012D813E81621A07
:10143000730A77FE03C0719461947108681479048B
:101440005CF43A2D2B2D5C01832F922F3D812E8150
:10145000DE82CD82C32ED22EAD81BE81AA16BB06FE
:101460005CF43C2D2D2D6C01832F922F3D812E811C
:10147000BE82AD82A32EB22E85012D813E81021B3C
:10148000130B1C012C183D0837FE03C03194219426
:101490003108780117FF03C03FEFE31AF30AF59410
:1014A000E794C816D9062CF08FEF9FEF9A838983B3
:1014B00004C0A1E0B0E0BA83A9832D813E81A216C9
:1014C000B30624F1D201ED91FC910484F585E02D61
:1014D0002B813C816814790424F44D815E81B6012E
:1014E00003C0A6016D817E81C2010995E218F3084F
:1014F000F7FE06C029813A81C20ED31EE00EF11E0E
:101500008D819E8101969E838D83D7CF26960FB6BF
:10151000F894DEBF0FBECDBFDF91CF911F910F9129
:10152000FF90EF90DF90CF90BF90AF909F908F9003
:101530007F906F905F904F903F902F90089585ED32
:101540008093BC008091BC0084FDFCCF1092070307
:1015500008954091BA01262F30E0240F311D213229
:101560003105DCF4209107032430C9F4FC0180E04C
:1015700090E0861758F43091BA012191DC01A6560B
:10158000BE4FA30FB11D2C930196F3CF8091BA01EA
:10159000680F6093BA0180E0089581E0089582E0C9
:1015A000089508950895E091650180916401E81718
:1015B00030F4F0E0E658FE4F808190E008958FEF20
:1015C0009FEF08959091650180916401981750F400
:1015D000E92FF0E0E658FE4F208130E09F5F9093C6
:1015E000650102C02FEF3FEFC901089580916401AA
:1015F00090E020916501821B91090895CF92DF92BE
:10160000EF92FF920F931F93CF93DF937C01CB0157
:101610008A0120910803222389F0EB016B01C40E9B
:10162000D51ECC15DD0569F06991D701ED91FC91CE
:101630000190F081E02DC7010995F3CF642F0E943E
:10164000A90AC801DF91CF911F910F91FF90EF90F0
:10165000DF90CF900895CF93DF931F92CDB7DEB781
:101660006983209108032223D1F020912B0320329B
:1016700040F021E030E0FC013383228380E090E001
:1016800015C080910903E82FF0E0E65FFC4F9981D7
:1016900090838F5F8093090380932B0305C061E0E3
:1016A000CE0101960E94A90A81E090E00F90DF919F
:1016B000CF910895089580E090E008950F931F93CF
:1016C000CF93DF93DC015696EC915697E23071F0A0
:1016D000E330E9F0E13079F5FB0114960D90BC910F
:1016E000A02DA41BB50BA21BB30B18C0EC01EC8101
:1016F000FD81E61BF70BBF0161507109EE81FF818F
:10170000DF01A41BB50BAD01421B530B14C0DA0162
:10171000EC01EE81FF81E61BF70B3197F7FD0DC061
:10172000EC014E815F81E417F5073CF4AF01BD0188
:101730000E94341402C00E949B14DF91CF911F912C
:101740000F9108950F931F93DC015696EC915697D5
:10175000E23061F0E33009F1E13081F51496ED916A
:10176000FC911597E41BF50B319723C0DC0114960F
:10177000ED91FC911597DF01A61BB70BBD01DC01B4
:101780001696ED91FC911797DF01A41BB50BAD01E7
:1017900041505109621B730B11C0FA01DC0116960E
:1017A0004D915C911797DA01A61BB70BBD01621B27
:1017B000730BAB01BF010E949B140CC057FD0AC004
:1017C000DC011696ED91FC9117974E175F0714F404
:1017D0000E9434141F910F9108958F929F92AF929F
:1017E000CF92EF92FF920F931F93CF93DF93EC0171
:1017F000262F898D9A8D009709F042C06A3059F4DE
:101800001D861C862D898E859F8538E0239F800D3F
:10181000911D112443C06D3009F4AAC08F8988231B
:10182000C9F03C898C859D8546E0349F800D911DD3
:101830001124488559854817590764F41D861C866C
:101840003D898E859F8548E0349F800D911D112430
:101850009F878E87EA88FB88088919894E855F856E
:101860006C857D85AD88CC88CE010E9400122C89C4
:101870008C859D8536E0239F800D911D11243EC0EF
:101880006A3079F41D861C862D89FC013696E49118
:101890008E859F852E9F800D911D11249F878E8799
:1018A00067C06D3009F464C0FC013496349163174D
:1018B00008F45EC03196E491E61708F459C0462F4B
:1018C000431B342FFC0132968590949047E0349F5F
:1018D000800C911C1124F401329634913196E491DC
:1018E000332311F0E1110DC0F4013496E4912C89F9
:1018F0008C859D85E29F800D911D11249D878C878D
:1019000037C0F401359644915F89552319F15C89FC
:10191000E32FF0E0E40FF11D47FDFA955E9FB00163
:101920005F9F700D11244C855D85460F571F68859C
:1019300079856417750774F41D861C863D89FC0142
:101940003696E4918E859F853E9F800D911D1124D2
:101950009F878E87EA88FB88088919894E855F856D
:101960006C857D85AD88CC88CE010E940012BCCFED
:1019700081E090E0DF91CF911F910F91FF90EF9068
:10198000CF90AF909F908F90089508958EBD0000E6
:101990000DB407FEFDCF8EB508951F93CF93DF934F
:1019A000FC01858D968D009729F1162FEF0121A15D
:1019B00031E03093080320932A0310920903109218
:1019C0002B03DC01ED91FC910190F081E02D60E0B2
:1019D00009958D8D9E8DDC01ED91FC910190F0813A
:1019E000E02D612F09958D8D9E8DDF91CF911F91F7
:1019F0000C94230FA5A5B6A59C9183A98095892356
:101A00008C93838D948D892B31F0862FDF91CF912C
:101A10001F910C94C60C28E030E080E8A1A5B2A587
:101A200091A9462F482319F04C91942B03C04C9157
:101A3000909594239C93A3A5B4A54C9192A9942B23
:101A40009C93A3A5B4A54C9192A9909594239C93A3
:101A500086952150310911F7DF91CF911F9108959B
:101A60008CBD9DBD08951F920F920FB60F92112449
:101A70002F933F934F935F936F937F938F939F9396
:101A8000AF93BF93EF93FF938091B900887F803627
:101A900009F49CC068F5883209F45BC090F4803189
:101AA00009F454C038F4882309F4F6C0883009F4E6
:101AB0004DC0F6C0883109F44CC0803209F45DC0D5
:101AC000EFC0803409F468C048F4803309F455C08D
:101AD000883309F0E5C080930503D8C0803509F448
:101AE0004FC0883509F45DC0883409F0D9C0D6C02C
:101AF000883909F4C7C0A8F4883709F467C038F4F6
:101B0000883609F463C0803709F460C0C9C08838DA
:101B100009F4B8C0803909F45FC0803809F0C0C04A
:101B20005BC0803B09F486C038F4803A09F466C093
:101B3000883A09F47FC0B4C0803C09F4A7C0883C4F
:101B400009F4A4C0883B09F48AC0AAC08091E202CB
:101B500010C09091040380910303981770F5E091F1
:101B6000040381E08E0F80930403F0E0ED51FD4FFC
:101B700080818093BB0085EC86C0809305038EC076
:101B8000E091040381E08E0F809304038091BB00F9
:101B9000F0E0ED51FD4F80839091040380910303A9
:101BA0006EC0E091040381E08E0F80930403809166
:101BB000BB00F0E0ED51FD4F808380910603811161
:101BC0006DC081E08093E10284EA61C083E080938C
:101BD00007031092DC01CFCF8091DC01803208F046
:101BE00051C0E091DC0181E08E0F8093DC01809197
:101BF000BB00F0E0E454FE4F8083BDCF85EC8093C2
:101C0000BC00109207038091DC01803230F4E09137
:101C1000DC01F0E0E454FE4F10826091DC0170E0E2
:101C2000E0916001F09161018CEB91E009951092D7
:101C3000DC0136C084E0809307031092BB01109250
:101C4000BA01E0916201F091630109958091BA01B6
:101C5000811105C081E08093BA0110929A01E09150
:101C6000BB0181E08E0F8093BB01F0E0E656FE4F92
:101C700080818093BB009091BB018091BA0198173D
:101C800008F479CF85E88093BC000AC085EC809386
:101C9000BC001092070304C0109205030E949F0A23
:101CA000FF91EF91BF91AF919F918F917F916F9134
:101CB0005F914F913F912F910F900FBE0F901F900A
:101CC00018952091320330913303C901079697FD8F
:101CD000079623E0959587952A95E1F720913003A3
:101CE00030913103829FA001839F500D929F500D30
:101CF000112460E070E080914B0390914C030C94B0
:101D00002C213F924F925F926F927F928F929F927F
:101D1000AF92BF92CF92DF92EF92FF920F931F93F9
:101D2000CF93DF9300D000D000D0CDB7DEB72C0129
:101D30003B014A015901C901079697FD07969C018D
:101D400093E0359527959A95E1F73C832B83C12C39
:101D5000D12CE12CF12C312CC3018E0D9F1D9A83C7
:101D60008983E016F106C4F51E821D822D813E8115
:101D70002A153B054CF5C90187709927892B11F06D
:101D8000330C0EC0ED81FE81F7FD379683E0F595AB
:101D9000E7958A95E1F7EC0DFD1DE80DF91D3490EE
:101DA00037FE0CC021E030E049815A816D817E818F
:101DB000640D751D8CE293E00E94E6098D819E8181
:101DC00001969E838D83D2CF9FEFE91AF90A2B816A
:101DD0003C81C20ED31EC0CF26960FB6F894DEBF4C
:101DE0000FBECDBFDF91CF911F910F91FF90EF906C
:101DF000DF90CF90BF90AF909F908F907F906F902B
:101E00005F904F903F90089590E0FC01EA58F34FA7
:101E10002491FC01EE59F34F8491882399F090E0CE
:101E2000880F991FFC01E85AF34FA591B491FC016A
:101E3000E25BF34F859194918FB7F894EC91E22B8C
:101E4000EC938FBF089530912B03313208F04BC0D3
:101E5000809107038111FCCF90912A0322E0209307
:101E6000070321E0209306032FEF20930503109230
:101E7000040330930303EAE0F3E0A3EEB2E020E0D2
:101E8000321721F041914D932F5FFACF1092E20269
:101E90002091E202990F922B9093E2029091E1023D
:101EA000913061F41092E1029091E2029093BB00B4
:101EB0009091BC0093FDF8CF95EC01C095EE909306
:101EC000BC00909107039230E1F3909105039F3F8E
:101ED00079F080910503803241F0809105038033D1
:101EE00031F084E005C081E003C082E001C083E0FE
:101EF0001092090310922B03109208030895DF92A9
:101F0000EF92FF920F931F93CF93DF93D82ED92F89
:101F1000C62F8091490390914A03009709F454C059
:101F200020914D0331E03093080320932A0310924F
:101F3000090310922B03DC01ED91FC910190F081DB
:101F4000E02D60E00995ED2CFD2E11E0D1E08091AF
:101F5000490390914A03CC2371F11032C8F00E94DA
:101F6000230F80914D03D093080380932A0310928E
:101F7000090310922B038091490390914A03DC01DD
:101F8000ED91FC910190F081E02D60E0099511E068
:101F90008091490390914A03F7016491DC01ED912E
:101FA000FC910190F081E02D09951F5FC150BFEFBA
:101FB000EB1AFB0ACCCFDF91CF911F910F91FF90CD
:101FC000EF90DF900C94230FE0915903F0915A03A6
:101FD000908180915F038095892380830D2D1D2F33
:101FE000CC2309F439C0F801849120914703309142
:101FF0004803232B31F00E94C60CC1500F5F1F4FC6
:10200000EFCF28E030E040E8E0915503F09156032F
:1020100090915D03582F542319F05081952B03C0E4
:102020005081909595239083E0915703F091580348
:10203000508190915E03952B9083E0915703F0912E
:102040005803508190915E03909595239083469517
:1020500021503109C9F6D1CFDF91CF911F910F9156
:10206000FF90EF90DF9008950F931F93CF93DF932E
:102070008C01C0E0D0E0F801EC0FFD1F64916623F5
:1020800041F08CE293E00E94ED0B892B11F0219638
:10209000F2CFCE01DF91CF911F910F91089500975C
:1020A00069F0FC0101900020E9F73197AF01481B6E
:1020B000590BBC018CE293E00C94710680E090E037
:1020C00008958F929F92AF92BF920F931F93CF93D9
:1020D000DF93CDB7DEB7A1970FB6F894DEBF0FBE82
:1020E000CDBF19A2423008F44AE08E010F5D1F4FA8
:1020F000842E912CA12CB12CA50194010E94491C85
:10210000E62FB901CA0101501109EA3014F4E05D6B
:1021100001C0E95CD801EC93232B242B252B61F71C
:10212000C8010E944F10A1960FB6F894DEBF0FBEF3
:10213000CDBFDF91CF911F910F91BF90AF909F9036
:102140008F900895CF93DF930E943410EC018DE5BA
:1021500091E00E944F108C0F9D1FDF91CF91089549
:102160002F923F924F925F926F927F928F929F92A7
:10217000AF92BF92CF92DF92EF92FF920F931F9395
:10218000CF93DF93CDB7DEB729970FB6F894DEBFB4
:102190000FBECDBF7D836C8341E050E002C0440F91
:1021A000551F8A95E2F7413001E050070CF00AC153
:1021B0006A0111E0C11AD108F1EEAF2EF1E0BF2E95
:1021C000A1E6B2E020E030E061E070E0C616D7069C
:1021D0007CF1CA0195958795FC01E20FF31FCE169D
:1021E000DF06C4F3FC0131972E233F23280F391F4C
:1021F00062177307B4F411968C911197F901EF5996
:10220000FD4F908111969C9311978083F5018181F8
:1022100089010F511E4FF8019081F5019183F8015A
:1022200080836F5F7F4F1196FFEFAF1ABF0ACECF4B
:10223000EC80FD80EF2819F0212C312C03C02224E2
:102240002394312C07E010E01A83098381E090E0A9
:102250009F838E83AE81BF81A417B5070CF0B5C0F4
:102260008D01000F111F60E070E0CB01098002C0FA
:10227000880F991F0A94E2F7FC01E253F44F24916E
:10228000822EFC01E257F44F9490EC80FD80EF2801
:1022900009F491942114310419F0822E85949594B7
:1022A000AE81BF81A60FB71FCD018F599D4F7C0115
:1022B000FD01EF51FE4FF987E887FB01EF59FD4F14
:1022C000CB018F519E4F2C01CF0181569240841734
:1022D00095070CF067C0D7018C91B82DB80260014A
:1022E0001124960196E0359527959A95E1F7A885F2
:1022F000B985BC91992D9B02600111243601A6E09D
:1023000075946794AA95E1F7922F91705301B59453
:10231000A7949A196901D594C7949C0D362D3170F4
:10232000792E731AA82DBA0290011124A6E03595D2
:102330002795AA95E1F7B92DB802C0011124B6E09E
:1023400095958795BA95E1F75C01B594A7946901D5
:10235000D594C794CA0C2170C20E81708C0DC080B8
:10236000D201AC902114310411F0C594A5949C2D98
:102370009719D7019C939A2D981BA885B9859C9392
:10238000C70CC0828A0DD2018C93E00EF11E8885A5
:102390009985800F911F99878887E00FF11F400E64
:1023A000511E92CF6F5F7F4FAE81BF81A617B707D7
:1023B00009F05BCF89819A8101979A8389831F8372
:1023C0000E8348CF8FEF9FEF02C080E090E0299608
:1023D0000FB6F894DEBF0FBECDBFDF91CF911F9136
:1023E0000F91FF90EF90DF90CF90BF90AF909F90B4
:1023F0008F907F906F905F904F903F902F900895B7
:102400002F923F924F925F926F927F928F929F9204
:10241000AF92BF92CF92DF92EF92FF920F931F93F2
:10242000CF93DF93CDB7DEB76B970FB6F894DEBFCF
:102430000FBECDBF9B8F8A8F1B014A01D22E1987F9
:1024400008873701A982DC0159962D913C915A9752
:102450002115310509F0FFC018968D919C911997AF
:10246000681779070CF0E7C11A968D919C911B971C
:10247000481759070CF0DFC1EC2DF0E0FB83EA832D
:102480009B0146E0C49E200D311D11243D872C8701
:10249000121613060CF0CFC16A2D70E07B876A8795
:1024A00083E0660F771F8A95E1F77F876E87CB0100
:1024B000880D991D181619060CF0BDC158968C91FF
:1024C000811104C08FEA8D1508F4D394AA8DBB8DB9
:1024D000ED91FC9111970284F385E02DCD010995D2
:1024E000B5E0DB9EC0011124EC2DF0E0F98BE88B08
:1024F00091012B5F3F4F3B8B2A8B3D822C82210128
:10250000AC01421953095D8B4C8B7981672F70E0C8
:102510007F8B6E8BC4010896998F888FEC89FD891B
:10252000E40DF51DE257F94FD49054019F828E823D
:10253000D0FE16C0AA8DBB8DED91FC91B1E0CB12FF
:1025400009C02981213031F40484F585E02D2885E6
:10255000398519C00684F785E02DE884F9841DC00B
:10256000488559854615570519F1AA8DBB8DED9102
:10257000FC91B1E0CB120DC02981213051F40484CB
:10258000F585E02D9301A501B2018A8D9B8D0995FA
:102590000FC00684F785E02D73010A851B852A810B
:1025A0003B814E815F816C817D818A8D9B8D0995F8
:1025B000D6943FEFA31AB30A4E815F816E897F895B
:1025C000460F571F5F834E83888D998DA816B906D5
:1025D00009F0AECF9FEF491A590AAC81BD81E88955
:1025E000F989AE0FBF1FBD83AC832A893B89421690
:1025F000530609F093CF488559854615570509F4C8
:10260000F8C0AA8DBB8DED91FC91B1E0CB1211C049
:102610002981213071F4B1016B5F7F4F0088F1890E
:10262000E02D830128E030E0A4018A8D9B8D09957F
:10263000E0C06C857D854A815B81641B750B0684D7
:10264000F785E02D73010E851F859A01A4018A8DFF
:102650009B8D0995CEC0F9013496E491DE1AF901FB
:10266000329685919491B7E0DB9E800D911D1124E7
:10267000F901259134913B8B2A8BFC0125913491F2
:102680005901FC0132965490319634913C87329630
:1026900074903196149141E04C1518F059815230E4
:1026A00068F0672D072C000C770B7D836C83812FDE
:1026B000012E000C990B9B838A8304C01B821A8213
:1026C0001D821C82AA8DBB8DED91FC911197028415
:1026D000F385E02DCD010995412CD12C612CF98198
:1026E000EF2FF0E0FF83EE832C2D30E03B872A872D
:1026F000A401410F511D17FD5A955F8B4E8BB101FF
:10270000670D711D77FC7A95798F688F7C856716C8
:1027100008F06FC0262D30E04A815B81420F531FC5
:10272000AE81BF81A49FC001A59F900DB49F900D65
:102730001124F401E80FF91FF98BE88B842D712C1B
:102740004E895F89420F531F5D8B4C8B751408F0C7
:102750004DC051E0580F5E87877041F4C501019666
:10276000EA89FB89EA0DFB1DD4905C01D7FE3AC0D3
:1027700061E0C61216C07981713099F4AA8DBB8DC3
:10278000ED91FC9111970484F585E02D288539851C
:102790004C895D89688D798D670D711DCD01099515
:1027A00021C08C819D81870D911DEA85FB858E9FBF
:1027B000B0018F9F700D9E9F700D1124620D731DCF
:1027C000AA8DBB8DED91FC9111970684F785E02DC4
:1027D000E884F9840E811F812A853B8548895989BF
:1027E000CD010995DD0C73948E85B0CF450C6394B3
:1027F0008DCFAA8DBB8DED91FC9111970688F7893D
:10280000E02DCD016B960FB6F894DEBF0FBECDBFA5
:10281000DF91CF911F910F91FF90EF90DF90CF90BC
:10282000BF90AF909F908F907F906F905F904F90F0
:102830003F902F9009946B960FB6F894DEBF0FBEB1
:10284000CDBFDF91CF911F910F91FF90EF90DF905F
:10285000CF90BF90AF909F908F907F906F905F9040
:102860004F903F902F9008950F931F93CF93DF9336
:1028700077FF04C0260F371F60E070E0DC0114967C
:10288000CD91DC911597FB01E20FF31FCE17DF0707
:102890001CF49E01261B370B121613060CF046C0C3
:1028A000FA0157FD3796DF01E3E0B595A795EA9564
:1028B000E1F7AC9FF001AD9FF00DBC9FF00D11242E
:1028C0006E0F7F1FDC015F96ED91FC919097E60FF4
:1028D000F71F4770552781E090E001C0880F4A95A7
:1028E000EAF7482F0130110539F078F00230110570
:1028F000E9F42E0F3F1F13C02E0F3F1FE217F307FF
:10290000A9F08081842B8193F9CF80952E0F3F1FF2
:10291000E217F30759F0908198239193F9CFE217CA
:10292000F30721F0808184278193F9CFDF91CF9144
:102930001F910F910895EF92FF920F931F93CF93E2
:10294000DF93EC0177FDA5C0EC80FD806E157F055F
:102950000CF09FC057FF04C0240F351F40E050E02B
:102960008E819F81FA01E20FF31F8E179F071CF4DF
:102970009C01241B350B121613060CF08AC0922FF3
:10298000842F8695869586958E9DD0018F9DB00D5E
:1029900011246A0F7B1FAF8DB8A1A60FB71F477018
:1029A000B1F188E0841B482F682F70E0FB01EA57E3
:1029B000F94FE491281798F4621B71092FEF30E06A
:1029C00002C0359527956A95E2F7E223013011059B
:1029D00049F078F00230110509F05BC00EC00130FB
:1029E000110519F48C91E82B0AC00130110508F08B
:1029F00049C0E0958C91E82302C08C91E827EC93C4
:102A0000941708F446C02C813D81A20FB31FE92F13
:102A1000E41BE830F8F00230110561F48E2F9C9130
:102A200090959C932C813D81A20FB31F88508830D4
:102A3000B0F70FC081E00115110509F480E0819520
:102A40009E2F8C932C813D81A20FB31F98509830FC
:102A5000C0F7E770EE23E9F0F0E0E258F94FE491B7
:102A60000130110539F048F00230110591F48C91D4
:102A7000E82706C08C91E82B03C0E0958C91E823F1
:102A8000EC9307C00230110509F4B7CFAE0DBF1D9E
:102A9000BECFDF91CF911F910F91FF90EF900895DE
:102AA00090E0FC01E659F94F2491FC01EA58F34FFC
:102AB0003491FC01EE59F34FE491EE2309F43CC04C
:102AC000222339F1233091F038F42130A9F022305B
:102AD00001F584B58F7D12C0273091F02830A1F028
:102AE0002430B9F4809180008F7D03C080918000F4
:102AF0008F77809380000DC084B58F7784BD09C027
:102B00008091B0008F7703C08091B0008F7D80935B
:102B1000B000F0E0EE0FFF1FE25BF34FA591B49120
:102B20009FB7F894611104C08C913095382302C08E
:102B3000EC913E2B3C939FBF08953FB7F894809152
:102B4000DD019091DE01A091DF01B091E00126B599
:102B5000A89B05C02F3F19F00196A11DB11D3FBFD5
:102B6000BA2FA92F982F8827820F911DA11DB11D63
:102B7000BC01CD0142E0660F771F881F991F4A955F
:102B8000D1F708958F929F92AF92BF92CF92DF922A
:102B9000EF92FF926B017C010E949D154B015C013D
:102BA000C114D104E104F104F1F00E949D15DC018F
:102BB000CB0188199909AA09BB09883E9340A10550
:102BC000B10570F321E0C21AD108E108F10888EEDE
:102BD000880E83E0981EA11CB11CC114D104E1042D
:102BE000F10419F7DDCFFF90EF90DF90CF90BF9009
:102BF000AF909F908F900895CF93DF93CDB7DEB7BE
:102C000064970FB6F894DEBF0FBECDBF789484B53D
:102C1000826084BD84B5816084BD85B5826085BDD8
:102C200085B5816085BD80916E00816080936E0066
:102C30001092810080918100826080938100809158
:102C40008100816080938100809180008160809309
:102C500080008091B10084608093B1008091B000C9
:102C600081608093B00080917A00846080937A00C4
:102C700080917A00826080937A0080917A008160EE
:102C800080937A0080917A00806880937A00109215
:102C9000C10080914B0390914C03892B11F5209139
:102CA000320330913303C901079697FD0796B3E0CD
:102CB00095958795BA95E1F72091300330913103CE
:102CC0008C01029FC001039F900D129F900D112453
:102CD0000E94062090934C0380934B03892B09F4A8
:102CE0002BC10E94610E8091320390913303813297
:102CF00091050CF450C4BC016054710977FF02C007
:102D00006F5F7F4F75956795809130039091310388
:102D10008255910997FD019600E410E022E530E02C
:102D20004CED52E0959587950E94810E82E080934C
:102D30004E038091490390914A03892B09F443C4BF
:102D40008CE380934D031092650110926401109200
:102D5000090310922B031092070381E0809306036E
:102D60001092E10261E082E10E94501561E083E18E
:102D70000E9450158091B9008E7F8093B900809198
:102D8000B9008D7F8093B90088E48093B80085E412
:102D90008093BC0081ED9AE090936301809362017F
:102DA00082ED9AE0909361018093600180915403D9
:102DB00087FD1DC00E94040F61E0809154030E94B2
:102DC000501561E070E080E090E00E94C21560E084
:102DD000809154030E9450156AE070E080E090E01A
:102DE0000E94C21561E0809154030E9450158091A9
:102DF000490390914A03892B09F49CC420916103F3
:102E000030916203409163035091640360E074E287
:102E100084EF90E00E94491CDA01C9014097A109A2
:102E2000B109B695A795979587958093B80064E00A
:102E300088EF90E00E947F0F6091320361508CE236
:102E400093E00E94CD0C64E084EF90E00E947F0F3D
:102E500080914E03813009F484C464E18CE293E0F4
:102E60000E94CD0C64E080EF90E00E947F0F8FE81D
:102E700080936903809130039091310380389105EC
:102E800009F073C48091320390913303803491052B
:102E900009F07DC480914E03813009F464C48FEC45
:102EA0008093690312E16AED8CE293E00E94CD0CFD
:102EB000612F8CE293E00E94CD0C61E88CE293E0FC
:102EC0000E94CD0C609169038CE293E00E94CD0CCE
:102ED00069ED8CE293E00E94CD0C80914E0381302D
:102EE00009F457C461EF8CE293E00E94CD0C66E0D8
:102EF0008AEE90E00E947F0F8091490390914A03EF
:102F0000892B09F448C420916503309166034091F0
:102F100067035091680360E074E284EF90E00E94E0
:102F2000491CDA01C9014097A109B109B695A795D5
:102F3000979587958093B80081E08093000184E69F
:102F400090E09093700180936F0168EE73E080E0F1
:102F500090E00E94C215412C74E2572E74EF672E48
:102F6000712CDD24D3940E949D15609371017093A0
:102F70007201809373019093740161EEE62E61E01B
:102F8000F62E01E612E08091000120E4829FC0014C
:102F9000112480937C0080917A00806480937A0071
:102FA00080917A0086FDFCCF809178002091790095
:102FB00090E0922B97FD079653E0959587955A954B
:102FC000E1F7D8018D938D01F70111927F010E94E5
:102FD0009D158090710190907201A0907301B09046
:102FE0007401E0916F01F09170019F0140E050E0A9
:102FF0002F87388B498B5A8BAB01BC014819590973
:103000006A097B098F859889A989BA894817590760
:103010006A077B07E0F2880D991DAA1DBB1D8093EE
:10302000710190937201A0937301B093740192E0C7
:10303000013E190709F0A7CFDE0111961D01E12C11
:10304000F12CAF87C32C0E949D154B015C0160934E
:103050006B0170936C0180936D0190936E01BFEFD3
:10306000EB1AFB0A60E070E0C7010E94B010B701E4
:103070000F2C000C880B990B0E94A91C9B01AC0122
:1030800060E070E080E090E40E940D1D0E94711CE1
:103090008B0161EE71E0E1E6F2E02CE935E0CF0171
:1030A000815692408017910784F4D9014D919D017A
:1030B0009081949F902D11249193DB018C91849F9A
:1030C000802D11248D93BD01EACF61E070E0C7012E
:1030D0000E94B0100E949D15DC01CB01881999094E
:1030E000AA09BB0980936B0190936C01A0936D01B9
:1030F000B0936E010E949D154B015C0160936701C6
:10310000709368018093690190936A01E1EEF1E0A8
:10311000FC8BEB8BE1E6F2E060E070E040E050E039
:10312000CF018156924080179107FCF48CE995E01D
:103130009C012C5935402017310784F43081DC0183
:103140002D91CD013202400D511D1124AB89BC8956
:103150003C912302600D711D1124EACF4193AB898C
:10316000BC896D93BC8BAB8BDBCF0E949D15DC01C2
:10317000CB0188199909AA09BB098093670190932B
:103180006801A0936901B0936A010E94610E8EE00C
:10319000E7E0F1E0AF85BC2D01900D928A95E1F753
:1031A000109239031092380310923B0310923A03A5
:1031B000D0924003D092410381E090E090933F038E
:1031C00080933E0390933D0380933C0387E596E014
:1031D0000E943410F101619171911F014B01770F31
:1031E000AA08BB08B7FE0EC06DE28CE293E00E9415
:1031F000ED0B66277727CB01681979098A099B09A6
:103200004AE003C04AE0C501B4010E9461108DE5A7
:1032100091E00E944F108DE496E00E9434101092CD
:1032200039031092380308E110E010933B03009338
:103230003A038BE396E00E94A2108AE396E00E9494
:10324000A21085E396E00E94341060916B017091AA
:103250006C0180916D0190916E014AE00E946110B5
:1032600082E396E00E94A2108DE296E00E94341064
:1032700060916701709168018091690190916A0184
:103280004AE00E9461108AE296E00E94A21082E267
:1032900096E00E94341040916B0150916C01609156
:1032A0006D0170916E018091670190916801A0910C
:1032B0006901B0916A01481759076A077B0718F03E
:1032C00088E591E002C083E591E00E944F108FE114
:1032D00096E00E94341040916B0150916C01609116
:1032E0006D0170916E018091670190916801A091CC
:1032F0006901B0916A0184179507A607B70738F4EA
:103300008A019B01081B190B2A0B3B0B06C08C0181
:103310009D01041B150B260B370BC901B8014AE0B0
:103320000E9461108CE196E00E9434108091490364
:1033300090914A03892BC1F020916103309162037F
:103340004091630350916403C301B2010E94491C80
:10335000DA01C9014097A109B109B695A7959795DA
:1033600087958093B80016C08091470390914803D9
:10337000892B31F080916A0390916B030E94300D8C
:10338000E0915B03F0915C039081809160038095F4
:103390008923808365E085E696E00E947F0F609137
:1033A000300361508CE293E00E94CD0C20913203F7
:1033B00030913303C901079697FD079633E0959541
:1033C00087953A95E1F72091300330913103829F40
:1033D0005001839FB00C929FB00C112400914B03BD
:1033E00010914C038091490390914A03A00EB11EA5
:1033F000009709F44BC020914D03D092080320930D
:103400002A031092090310922B03DC01ED91FC9129
:103410000190F081E02D60E40995882483948091E7
:10342000490390914A03A016B10669F1BFE1B815AE
:10343000D0F40E94230F80914D03D0920803809313
:103440002A031092090310922B0380914903909153
:103450004A03DC01ED91FC910190F081E02D60E4E4
:103460000995882483948091490390914A03F80137
:1034700061918F01DC01ED91FC910190F081E02DD3
:1034800009958394CCCF0E94230F43C0E091590348
:10349000F0915A03908180915F03892B8083A0165D
:1034A000B106B9F1F80181918F0120914703309164
:1034B0004803232B19F00E94C60CF1CF28E030E01E
:1034C00040E8E0915503F091560390915D03542F2D
:1034D000582319F05081952B03C050819095952366
:1034E0009083E0915703F0915803508190915E03CF
:1034F000952B9083E0915703F09158035081909160
:103500005E03909595239083469521503109C9F625
:10351000C6CF8091490390914A03892BC1F0209135
:103520006503309166034091670350916803C301BE
:10353000B2010E94491CDA01C9014097A109B109F1
:10354000B695A795979587958093B80011C0E0919F
:103550005B03F0915C03908180916003892B8083F1
:103560008091470390914803892B11F00E94C50C6C
:1035700068EE73E080E090E00E94C215F7E0EF167D
:10358000F10409F060CD80E090E0892B09F4EBCCE8
:103590000E940000E6CCBC016052710977FF02C0B6
:1035A0006F5F7F4F759567958091300390913103E0
:1035B0008357910997FD019600E210E023E730E080
:1035C0004CEF50E0AFCB809152030E94040F8091EA
:1035D00053030E94040F80915203082E000C990B94
:1035E000FC01EE59F34FE491F0E0EE0FFF1FE25BB8
:1035F000F34F2591349130935A0320935903FC01E2
:10360000EA58F34FE491E0935F0380915303082E4F
:10361000000C990BFC01EE59F34FE491F0E0EE0F32
:10362000FF1FE25BF34FA591B491B0935C03A093AD
:103630005B03FC01EA58F34FE491E09360038C9143
:10364000E82BEC938091470390914803892B89F1F3
:103650001FB7F89480916601811124C0ECE6FCE06C
:103660008491E0E8FCE09491E82FF0E0EE0FFF1F7A
:10367000E85AF34FA591B491EC91E92321F461E06C
:103680008AE00E9450158AE00E94040F8CB5806188
:103690008CBD8CB580648CBD8DE00E94040F8BE0E6
:1036A0000E94040F809166018F5F809366011FBFA7
:1036B0007DCB809150030E94040F809151030E94A2
:1036C000040F80915003082E000C990BFC01EE5959
:1036D000F34FE491F0E0EE0FFF1FE25BF34F259113
:1036E00034913093560320935503FC01EA58F34F6D
:1036F000E491E0935D0380915103082E000C990B37
:10370000FC01EE59F34FE491F0E0EE0FFF1FE25B96
:10371000F34FA591B491B0935803A0935703FC01C4
:10372000EA58F34FE491E0935E038C91E095E8232F
:10373000EC933CCB8091470390914803892B31F067
:1037400080916A0390916B030E94300DE0915B03BE
:10375000F0915C0390818091600380958923808340
:1037600066CB60E17BCB8FE99BCB8036910579F40A
:103770008091320390913303409749F480914E0336
:10378000813011F08FEA01C080E18093690312E07B
:103790008ACB62E2A8CBE0915B03F0915C0390815D
:1037A00080916003892B8083809147039091480327
:1037B000892B09F4C1CB0E94C50CBECB8BE291E0F2
:1037C00090932D0380932C0380914B0390914C0395
:1037D000009711F00C949E200895ACE6B3E0139688
:1037E0001C921E92129748EE53E060E070E014962F
:1037F0004D935D936D937C93179789E191E01196BA
:103800009C938E93ECE2F3E01382128220E830E086
:103810003583248380E490E09783868331872087F3
:1038200093878287168A158614861786168681E006
:10383000858B848B2FEF3FEF338B228B318B208B4B
:10384000878B108E128E118E8BE291E09183808394
:10385000148E138EB68FA58F10A2178E8FEF84A3B0
:1038600085A386A387A384E080A780E89AE1A6E0E9
:10387000B0E085AB96ABA7ABB0AF80EA96E8A1E02D
:10388000B0E081AF92AFA3AFB4AF80E586AF17AE23
:103890000895A1E21A2EAA1BBB1BFD010DC0AA1F91
:1038A000BB1FEE1FFF1FA217B307E407F50720F0A9
:1038B000A21BB30BE40BF50B661F771F881F991F24
:1038C0001A9469F760957095809590959B01AC016D
:1038D000BD01CF010895EE0FFF1F0590F491E02D7B
:1038E00009940E94781C6894B1110C94071D0895E6
:1038F0000E94EC1C88F09F5798F0B92F9927B75178
:10390000B0F0E1F0660F771F881F991F1AF0BA9583
:10391000C9F714C0B13091F00E94061DB1E00895BE
:103920000C94061D672F782F8827B85F39F0B93FB0
:10393000CCF3869577956795B395D9F73EF4909536
:103940008095709561957F4F8F4F9F4F0895E894B4
:1039500009C097FB3EF490958095709561957F4FD7
:103960008F4F9F4F9923A9F0F92F96E9BB27939585
:10397000F695879577956795B795F111F8CFFAF495
:10398000BB0F11F460FF1BC06F5F7F4F8F4F9F4FC6
:1039900016C0882311F096E911C0772321F09EE824
:1039A000872F762F05C0662371F096E8862F70E08A
:1039B00060E02AF09A95660F771F881FDAF7880F64
:1039C0009695879597F9089557FD9058440F551F80
:1039D00059F05F3F71F04795880F97FB991F61F091
:1039E0009F3F79F087950895121613061406551F08
:1039F000F2CF4695F1DF08C0161617061806991F74
:103A0000F1CF86957105610508940895E894BB2768
:103A100066277727CB0197F90895FA01EE0FFF1F6C
:103A2000309621053105A1F16115710561F48038E9
:103A3000BFE39B0749F168949038810561F08038B5
:103A4000BFEF9B0741F099234AF5FF3FE1053105A0
:103A5000210519F1E8940894E795D901AA2329F4DE
:103A6000AB2FBE2FF85FD0F310C0FF5F70F4A695A8
:103A7000E0F7F73950F019F0FF3A38F49F779F9349
:103A80000DD00F9007FC9058089546F00C949D1DA2
:103A900060E070E080E89FE308954FE79F775F93D1
:103AA0004F933F932F930E94111E2F913F914F915F
:103AB0005F910E948D1E0C94651D29F416F00C94E4
:103AC000971D0C94061D0C949D1D0E94EC1CA8F3E0
:103AD0009638A0F707F80F92E8942BE33AEA48EB00
:103AE0005FE70E94A31E0F920F920F924DB75EB731
:103AF0000F920E94591EE8E6F0E00E94A01D4F912F
:103B00005F91EF91FF91E595EE1FFF1F49F0FE5782
:103B1000E0684427EE0F441FFA95E1F74195550BF5
:103B20000E94D31D0F9007FE0C94C71D089597F9AE
:103B30009F6780E870E060E008959FEF80EC089553
:103B4000DF93CF931F930F93FF92EF92DF927B014E
:103B50008C01689406C0DA2EEF010E94A01EFE01BF
:103B6000E894A5912591359145915591A6F3EF01E2
:103B70000E94121FFE019701A801DA9469F7DF90F5
:103B8000EF90FF900F911F91CF91DF9108959B01CE
:103B9000AC0160E070E080E89FE30C94671F0C9438
:103BA000971D0C94D91F0E94EC1CD8F39923C9F3DC
:103BB000940F511DA3F39150504094F059F0882375
:103BC00032F0660F771F881F91505040C1F79E3F1B
:103BD00051052CF7880F911D9695879597F90895B3
:103BE0005F3FACF0983E9CF0BB2786957795679534
:103BF000B79508F4B1609395C1F7BB0F58F711F46E
:103C000060FFE8CF6F5F7F4F8F4F9F4FE3CF0C94E4
:103C1000071D16F00C94D91F0C949D1D68940C94EC
:103C2000971D0E94EC1CA8F39923C1F3AEF3DF9318
:103C3000CF931F930F93FF92C92FDD2788232AF07C
:103C40002197660F771F881FDAF720E030E040E801
:103C50005FEB9FE3883920F0803E38F021968F7724
:103C60000E94FB1EE0E9F0E004C00E94FB1EEDEBA9
:103C7000F0E00E94A01D8B01BE01EC01FB2E6F57EE
:103C800071097595771F880B990B0E94A91C28E173
:103C900032E741E35FE30E94A01EAF2D9801AE0121
:103CA000FF900F911F91CF91DF910E94121F0C94F2
:103CB000F51FFA01DC01AA0FBB1F9B01AC01BF5726
:103CC00028F4222733274427507820C0B75190F496
:103CD000AB2F0024469537952795011CA395D2F369
:103CE000002071F0220F331F441FB395DAF30ED07A
:103CF0000C94FA1E61307105A0E88A07B94630F4C9
:103D00009B01AC016627772788279078309621F0B1
:103D1000208331834283538308950E94A01E0C9414
:103D2000F51F0E94E71F38F00E94EE1F20F0952338
:103D300011F00C94971D0C949D1D11240C94071DDB
:103D40000E94E41C70F3959FC1F3950F50E0551F3E
:103D5000629FF001729FBB27F00DB11D639FAA27E0
:103D6000F00DB11DAA1F649F6627B00DA11D661F2F
:103D7000829F2227B00DA11D621F739FB00DA11D50
:103D8000621F839FA00D611D221F749F3327A00D0A
:103D9000611D231F849F600D211D822F762F6A2FA6
:103DA00011249F5750409AF0F1F088234AF0EE0F0B
:103DB000FF1FBB1F661F771F881F91505040A9F738
:103DC0009E3F510580F00C94971D0C94071D5F3F9A
:103DD000E4F3983ED4F3869577956795B795F79574
:103DE000E7959F5FC1F7FE2B880F911D96958795EC
:103DF00097F908955058BB27AA270E94121F0C94C8
:103E0000F51F0E94E71F38F00E94EE1F20F039F4E2
:103E10009F3F19F426F40C949D1D0EF4E095E7FBEA
:103E20000C94971DE92F0E94E41C58F3BA176207FF
:103E300073078407950720F079F4A6F50C94061D06
:103E40000EF4E0950B2EBA2FA02D0B01B9019001B5
:103E50000C01CA01A0011124FF27591B99F0593FF9
:103E600050F4503E68F11A16F040A22F232F342F41
:103E70004427585FF3CF469537952795A795F0408F
:103E80005395C9F77EF41F16BA0B620B730B840BA4
:103E9000BAF09150A1F0FF0FBB1F661F771F881F5C
:103EA000C2F70EC0BA0F621F731F841F48F48795B4
:103EB00077956795B795F7959E3F08F0B0CF9395A6
:103EC000880F08F09927EE0F9795879508950E941F
:103ED0007B1F0C94F51F0E94EE1F58F00E94E71FF5
:103EE00040F029F45F3F29F00C94971D51110C9478
:103EF000071D0C949D1D0E94E41C68F39923B1F3E7
:103F0000552391F3951B550BBB27AA2762177307FF
:103F1000840738F09F5F5F4F220F331F441FAA1F93
:103F2000A9F335D00E2E3AF0E0E832D0915050404F
:103F3000E695001CCAF72BD0FE2F29D0660F771FFD
:103F4000881FBB1F261737074807AB07B0E809F0E3
:103F5000BB0B802DBF01FF2793585F4F3AF09E3F68
:103F6000510578F00C94971D0C94071D5F3FE4F306
:103F7000983ED4F3869577956795B795F7959F5FAB
:103F8000C9F7880F911D9695879597F90895E1E0F7
:103F9000660F771F881FBB1F621773078407BA0756
:103FA00020F0621B730B840BBA0BEE1F88F7E095B1
:103FB00008959F3F31F0915020F48795779567954C
:103FC000B795880F911D9695879597F908950024C8
:103FD0000A941616170618060906089500240A946E
:103FE00012161306140605060895092E0394000CF4
:103FF00011F4882352F0BB0F40F4BF2B11F460FF83
:1040000004C06F5F7F4F8F4F9F4F08950F931F9393
:10401000CF93DF938230910510F482E090E0E0913D
:104020007A03F0917B0320E030E0A0E0B0E030972D
:1040300019F1408151810281138148175907C8F055
:104040008417950769F4109731F012960C93129724
:1040500013961C9327C000937A0310937B0322C00E
:104060002115310519F04217530718F49A01BD01C3
:10407000EF01DF01F801DBCF21153105F9F0281B35
:10408000390B2430310580F48A819B8161157105DB
:1040900021F0FB019383828304C090937B03809380
:1040A0007A03FE01329644C0FE01E20FF31F8193B2
:1040B000919322503109398328833AC020917803A3
:1040C00030917903232B41F42091030130910401B5
:1040D00030937903209378032091010130910201FC
:1040E0002115310541F42DB73EB74091050150919E
:1040F0000601241B350BE0917803F0917903E21758
:10410000F307A0F42E1B3F0B2817390778F0AC01FA
:104110004E5F5F4F2417350748F04E0F5F1F5093D7
:104120007903409378038193919302C0E0E0F0E03B
:10413000CF01DF91CF911F910F910895CF93DF931E
:10414000009709F481C0FC01329713821282A0917A
:104150007A03B0917B03109781F420813181820F23
:10416000931F20917803309179032817390751F56F
:10417000F0937903E093780367C0ED0120E030E02D
:10418000CE17DF0740F44A815B819E01411551053E
:10419000F1F0EA01F5CFD383C28340815181840FCE
:1041A000951FC817D90759F488819981840F951FE5
:1041B0000296918380838A819B81938382832115D8
:1041C000310529F4F0937B03E0937A033DC0E901C4
:1041D000FB83EA8349915991C40FD51FEC17FD0762
:1041E00061F480819181840F951F0296E901998382
:1041F0008883828193819B838A83E0E0F0E012963A
:104200008D919C911397009719F0FD01DC01F7CF78
:104210008D919C9111979D012E5F3F4F820F931FAF
:1042200020917803309179032817390769F4309782
:1042300029F410927B0310927A0302C01382128237
:10424000B0937903A0937803DF91CF91089581E033
:1042500090E0F8940C943321DC0101C06D9341503F
:104260005040E0F7089516E0C6E4D6E004C0FE0131
:104270000E946B1C2196C734D107C9F7F894FFCF71
:104280000100007C03200002000400080010002050
:104290000040008000000000002B0BFE0A5B0BBDFD
:1042A00009F60AE20AD30A00000000ED0B71065B72
:1042B0000B5A0B4A07BD09E609BE09DA09CE09ED1A
:1042C00009BD0908089B065E0BA20B0609E9087CDC
:1042D000081D08464654200046495220000D0A0099
:00000001FF
