:1000000009C016C015C015C013C012C011C010C061
:100010000FC00EC011241FBECFE9CDBF20E0A0E667
:10002000B0E001C01D92A436B207E1F727D054C05A
:10003000E7CF1F920F920FB60F9211248F939F93C9
:10004000AF93BF938091600090916100A091620096
:10005000B09163000196A11DB11D80936000909343
:100060006100A0936200B0936300BF91AF919F9134
:100070008F910F900FBE0F901F90189583B78160DE
:1000800083BF8FB583608FBD89B7826089BF12BE81
:10009000789417B886B1826886B9B99A8FB58F7D82
:1000A0008FBDC19A89EE93E0019739F0EBE2F1E060
:1000B0003197F1F700C00000F7CF8FB58F7D8FBD6E
:1000C000C19889EE93E0019749F3EBE2F1E03197B3
:0C00D000F1F700C00000F7CFF894FFCF5C
:00000001FF
