:100000000C94B5000C94C7000C94C7000C94C70066
:100010000C94C7000C94C7000C94C7000C94C70044
:100020000C94C7000C94C7000C94C7000C94C70034
:100030000C94C7000C94C7000C94C7000C94C70024
:100040000C94C7000C9478010C94C7000C94C70062
:100050000C94C7000C94C7000C94C7000C94C70004
:100060000C94C7000C94C7000C94C7000C94C700F4
:100070000C94C7000C94C7000C94C7000C94C700E4
:100080000C94C7000C94C7000C94C7000C94C700D4
:100090000C94C700EF000601E100E500E90006014D
:1000A000F3000601F900FD00010100002100240019
:1000B00027002A002D003000330000002200250018
:1000C00028002B002E00310034000505050505052C
:1000D00005050202020202020202070704040404E8
:1000E00004040404070703030303030303030701D2
:1000F00001010101010101060606060606060601C8
:1001000002040810204080010204081020408008EA
:1001100010010204081020408001020102040810AE
:1001200020408004804020100804020101020408DD
:10013000102040800000000A0B0C000000000000AE
:100140000804050600000000000000000000000098
:10015000000000000000000000000000000000009F
:100160000000000000000000000011241FBECFEFBF
:10017000D0E1DEBFCDBF21E0A0E0B1E001C01D9223
:10018000A930B207E1F70E94C2010C9446020C9418
:100190000000E1E4F1E04491ECE0F1E09491E7ED5E
:1001A000F0E02491222309F445C0442379F150E082
:1001B000FA013297EB30F10548F5E65BFF4F0C94FE
:1001C0004002309180003F7707C0309180003F7D32
:1001D00003C030918000377F3093800017C034B562
:1001E0003F7D34BD13C03091B0003F7D3093B000EF
:1001F0000DC0309190003F7707C0309190003F7D57
:1002000003C030919000377F30939000E22FF0E0F0
:10021000EE0FFF1FE654FF4FA591B4912FB7F8944E
:10022000811104C08C919095982302C0EC919E2B73
:100230009C932FBF08953FB7F8948091050190914A
:100240000601A0910701B091080126B5A89B05C041
:100250002F3F19F00196A11DB11D3FBFBA2FA92F45
:10026000982F8827820F911DA11DB11DBC01CD01C2
:1002700042E0660F771F881F991F4A95D1F70895AE
:100280008F929F92AF92BF92CF92DF92EF92FF92A6
:100290000E941B014B015C0188EEC82E83E0D82E22
:1002A000E12CF12C0E941B01DC01CB01881999097A
:1002B000AA09BB09883E9340A105B10598F321E046
:1002C000C21AD108E108F10888EE880E83E0981E72
:1002D000A11CB11CC114D104E104F10419F7FF9071
:1002E000EF90DF90CF90BF90AF909F908F90089548
:1002F0001F920F920FB60F9211242F933F938F935B
:100300009F93AF93BF938091010190910201A091BF
:100310000301B09104013091000123E0230F2D3738
:1003200020F40196A11DB11D05C026E8230F0296F9
:10033000A11DB11D20930001809301019093020142
:10034000A0930301B09304018091050190910601EF
:10035000A0910701B09108010196A11DB11D8093E4
:10036000050190930601A0930701B0930801BF9186
:10037000AF919F918F913F912F910F900FBE0F9052
:100380001F901895789484B5886084BD84B5806486
:1003900084BD84B5826084BD84B5816084BD809154
:1003A0006E00816080936E001092810080918100C8
:1003B00082608093810080918100816080938100C0
:1003C000809180008160809380008091B000846083
:1003D0008093B0008091B00080648093B0008091E1
:1003E0009100826080939100809191008160809360
:1003F00091008091900081608093900080917A00BC
:10040000846080937A0080917A00826080937A0081
:1004100080917A00816080937A0080917A00806870
:1004200080937A001092C100ECE0F1E02491E7EDB6
:10043000F0E08491882399F090E0880F991FFC01E7
:10044000E655FF4FA591B491FC01E654FF4F85910D
:1004500094918FB7F894EC91E22BEC938FBFC0E0AE
:10046000D0E081E00E94C9000E94400180E00E942B
:10047000C9000E9440012097A1F30E940000F1CF23
:10048000EE0FFF1F0590F491E02D0994F894FFCF33
:00000001FF
