:100000000C94AF000C94C1000C94C1000C94C1007E
:100010000C94C1000C94C1000C94C1000C94C1005C
:100020000C94C1000C94C1000C94C1000C94C1004C
:100030000C94C1000C94C1000C94C1000C94C1003C
:100040000C94C1000C94C1000C94C1000C94C1002C
:100050000C94C1000C94C1000C94C1000C94C1001C
:100060000C94C1000C94C1000C94C1000C94C1000C
:100070000C94C1000C94C1000C94C1000C94C100FC
:100080000C94C1000C94C1000C94C100DB00DE0094
:10009000E100E500F600F600E900ED00F1000000E7
:1000A0003A00370034003100220061006400000093
:1000B0003B0038003500320023006200650001017A
:1000C0000101010101010202020202020202030314
:1000D00003030303030304040404040404040505E4
:1000E00005050505050506060606060606060707B4
:1000F00007070701020408102040800102040810CD
:1001000020408001020408102040800102040810F1
:1001100020408001020408102040800102040810E1
:1001200020408001020408100000000000000000D0
:1001300000000000010304050000000000000000B2
:100140000000000000000000000000090A0B000091
:10015000000000000000000000000000000011246A
:100160001FBECFEFD0E1DEBFCDBF21E0A0E0B1E008
:1001700001C01D92A830B207E1F70E945A010C9409
:10018000A4010C940000E9E2F1E04491E4EFF0E016
:100190009491EFEBF0E02491222309F43BC0442337
:1001A00029F150E0FA013397E930F105F8F4EA5B00
:1001B000FF4F0C949B013FB53F7705C03FB53F7D96
:1001C00002C03FB5377F3FBD11C035B53F7D35BD5E
:1001D0000DC030918B003F7707C030918B003F7D81
:1001E00003C030918B00377F30938B00E22FF0E01B
:1001F000EE0FFF1FE255FF4FA591B4912FB7F89472
:10020000811104C08C919095982302C0EC919E2B93
:100210009C932FBF08953FB7F8948091040190916B
:100220000501A0910601B091070122B706B600FEB4
:1002300005C02F3F19F00196A11DB11D3FBFBA2F78
:10024000A92F982F8827820F911DA11DB11DBC01D8
:10025000CD0142E0660F771F881F991F4A95D1F79D
:100260000895CF92DF92EF92FF92CF93DF930E9497
:100270000B01EB0188EEC82E83E0D82EE12CF12C87
:100280000E940B016C1B7D0B683E7340C8F381E03C
:10029000C81AD108E108F108C851DC4FC114D104D3
:1002A000E104F10469F7DF91CF91FF90EF90DF90C7
:1002B000CF900895789480918A00826080938A001C
:1002C00080918A00816080938A0080918B00816098
:1002D00080938B00329A319A309A379A1AB8E4EFA9
:1002E000F0E02491EFEBF0E08491882399F090E026
:1002F000880F991FFC01E256FF4FA591B491FC01B4
:10030000E255FF4F859194918FB7F894EC91E22BD1
:10031000EC938FBFC0E0D0E081E00E94C3000E9458
:10032000310180E00E94C3000E9431012097A1F3B7
:100330000E940000F1CFEE0FFF1F0024001C0BBE37
:0C0340000790F691E02D0994F894FFCF8F
:00000001FF
