:1000000046C055C054C053C052C051C050C04FC06C
:100010004EC04DC04CC04BC04AC049C048C047C08C
:10002000EBC045C044C043C042C041C040C03FC017
:100030003EC03DC000000000240027002A00000050
:100040000000250028002B00040404040404040418
:10005000020202020202030303030303020203017A
:10006000020408102040800102040810200102044C
:100070000810204080400000000900030200000436
:10008000050800000000000000000000000011242E
:100090001FBECFEFD2E0DEBFCDBF21E0A0E0B1E0D8
:1000A00001C01D92A930B207E1F7F0D059C1A8CF25
:1000B000E3E8F0E09491ECE6F0E02491E5E5F0E08F
:1000C000E491EE2309F43CC0992339F1943091F086
:1000D00038F49230A9F0933001F594B59F7D12C0A9
:1000E000983091F09930A1F09530B9F4909180005A
:1000F0009F7D03C0909180009F77909380000DC0FA
:1001000094B59F7794BD09C09091B0009F7703C0CC
:100110009091B0009F7D9093B000F0E0EE0FFF1F34
:10012000E25CFF4FA591B4919FB7F894811104C090
:100130008C912095282302C0EC912E2B2C939FBFED
:1001400008953FB7F8948091050190910601A09120
:100150000701B091080126B5A89B05C02F3F19F0F3
:100160000196A11DB11D3FBFBA2FA92F982F882737
:10017000820F911DA11DB11DBC01CD0142E0660F92
:10018000771F881F991F4A95D1F708958F929F92E4
:10019000AF92BF92CF92DF92EF92FF92D2DF4B01EC
:1001A0005C0188EEC82E83E0D82EE12CF12CC9DF4B
:1001B000DC01CB0188199909AA09BB09883E934043
:1001C000A105B105A0F321E0C21AD108E108F108A8
:1001D00088EE880E83E0981EA11CB11CC114D104C6
:1001E000E104F10421F7FF90EF90DF90CF90BF90F2
:1001F000AF909F908F9008951F920F920FB60F921D
:1002000011242F933F938F939F93AF93BF9380912C
:10021000010190910201A0910301B091040130917C
:10022000000123E0230F2D3720F40196A11DB11DFD
:1002300005C026E8230F0296A11DB11D20930001E1
:100240008093010190930201A0930301B0930401F4
:100250008091050190910601A0910701B0910801DC
:100260000196A11DB11D8093050190930601A093F5
:100270000701B0930801BF91AF919F918F913F917A
:100280002F910F900FBE0F901F901895789484B502
:10029000826084BD84B5816084BD85B5826085BD82
:1002A00085B5816085BD80916E00816080936E0010
:1002B0001092810080918100826080938100809102
:1002C00081008160809381008091800081608093B3
:1002D00080008091B10084608093B1008091B00073
:1002E00081608093B00080917A00846080937A006E
:1002F00080917A00826080937A0080917A00816098
:1003000080937A0080917A00806880937A001092BE
:10031000C100ECE6F0E02491E5E5F0E0849188236B
:1003200099F090E0880F991FFC01EC5CFF4FA591BC
:10033000B491FC01E25CFF4F859194918FB7F894E2
:10034000EC91E22BEC938FBFC0E0D0E081E0B0DE17
:100350001DDF80E0ADDE1ADF2097C1F351DEF6CF5E
:04036000F894FFCF3F
:00000001FF
