:1000000016C025C024C023C092C021C020C01FC07C
:100010001EC01DC01CC01BC01AC019C018C00037AC
:10002000003801010101010101020408102011241E
:100030001FBECFE5D2E0DEBFCDBF20E0A0E6B0E03E
:1000400001C01D92A936B207E1F7B8D0FCC0D8CFE5
:10005000E9E2F0E09491E3E2F0E0E491EE23C9F00C
:100060002AB52F7C2ABDF0E0E05EFF4FA491B0E0FE
:10007000811109C02FB7F8948C91E92FE095E823FE
:10008000EC932FBF08958FB7F894EC91E92BEC9384
:100090008FBF08953FB7F8948091650090916600F6
:1000A000A0916700B09168002FB508B602FE05C0A8
:1000B0002F3F19F00196A11DB11D3FBFBA2FA92FE7
:1000C000982F8827820F911DA11DB11DBC01CD0164
:1000D00042E0660F771F881F991F4A95D1F7089550
:1000E000CF92DF92EF92FF92CF93DF93D3DFEB01BA
:1000F00088EEC82E83E0D82EE12CF12CCBDF6C1BD0
:100100007D0B683E7340D0F381E0C81AD108E10846
:10011000F108C851DC4FC114D104E104F10471F7B6
:10012000DF91CF91FF90EF90DF90CF90089578947A
:100130001F920F920FB60F9211242F933F938F931C
:100140009F93AF93BF938091610090916200A091C3
:100150006300B0916400309160002CE7230F2D37CD
:1001600028F02FEF230F0196A11DB11D20936000F1
:100170008093610090936200A0936300B093640049
:100180008091650090916600A0916700B091680031
:100190000196A11DB11D8093650090936600A09308
:1001A0006700B0936800BF91AF919F918F913F918D
:1001B0002F910F900FBE0F901F901895789480B7D5
:1001C000806880BF80B7806480BF8CB580648CBD40
:1001D0008FEF8DBD80B7807F876080BF89B78460D7
:1001E00089BF83B7887F83BF8AB58C7F81608ABDD2
:1001F00083B7877F83BF83B7887F836083BF86B1E0
:10020000876086B9379AE9E2F0E02491E3E2F0E012
:10021000E491EE2389F08E2F90E0FC01E25EFF4F27
:10022000A491B0E0FC01E05EFF4F84918FB7F89499
:10023000EC91E22BEC938FBF81E00ADF51DF80E08D
:0A02400007DF4EDFF9CFF894FFCF7F
:00000001FF
