:100000000C9444000C9456000C9456000C9456002A
:100010000C9456000C9456000C9456000C94560008
:100020000C9456000C9456000C9456000C94F3005B
:100030000C9456000C9456000C9456000C945600E8
:100040000C9456000C9456000C9456000C945600D8
:10005000000021002400000022002500020202020C
:1000600002010101010101010102010204400880B5
:100070000102040810204080030403030400000070
:10008000010000000000000011241FBECFEFD2E0ED
:10009000DEBFCDBF21E0A0E0B1E001C01D92A930DC
:1000A000B207E1F70E943D010C9489010C94000015
:1000B000E9E7F0E02491EBE6F0E09491EDE5F0E083
:1000C000E491EE2309F440C0222339F1213039F4C0
:1000D00025B52F7725BD25B52F7B25BD1EC0233027
:1000E00059F4209180002F77209380002091800088
:1000F0002F7B2093800011C0243079F42091800060
:100100002F7D20938000209180002F7E20938000FF
:10011000209183002F7D20938300F0E0EE0FFF1FDE
:10012000EA5AFF4FA591B491811108C02FB7F894F6
:100130008C91909598239C932FBF08958FB7F89436
:10014000EC919E2B9C938FBF08953FB7F8948091BC
:10015000050190910601A0910701B091080127B512
:10016000A89B05C02F3F19F00196A11DB11D3FBFEF
:10017000BA2FA92F982F8827820F911DA11DB11D7D
:10018000BC01CD0142E0660F771F881F991F4A9579
:10019000D1F70895CF92DF92EF92FF92CF93DF9342
:1001A0000E94A500EB0188EEC82E83E0D82EE12C3A
:1001B000F12C0E94A5006C1B7D0B683E7340C8F3B8
:1001C00081E0C81AD108E108F108C851DC4FC11418
:1001D000D104E104F10469F7DF91CF91FF90EF9032
:1001E000DF90CF9008951F920F920FB60F921124B7
:1001F0002F933F938F939F93AF93BF938091010170
:1002000090910201A0910301B0910401309100018D
:1002100023E0230F2D3730F026E8230F0296A11D8F
:10022000B11D03C00196A11DB11D20930001809353
:10023000010190930201A0930301B0930401809106
:10024000050190910601A0910701B0910801019666
:10025000A11DB11D8093050190930601A093070194
:10026000B0930801BF91AF919F918F913F912F91D2
:100270000F900FBE0F901F90189516BC15BC17BCA1
:1002800018BC80916E008C7F80936E0085B3836074
:1002900085BB85B5826085BD85B5816085BD86B528
:1002A000887F846086BD789480916E0081608093A1
:1002B0006E0080917A00876880937A0080917A003E
:1002C000806880937A00EBE6F0E02491EDE5F0E0C1
:1002D0008491882399F090E0880F991FFC01E05BDE
:1002E000FF4FA591B491FC01EA5AFF4F859194917B
:1002F0008FB7F894EC91E22BEC938FBF81E00E94D2
:1003000058000E94CA0080E00E9458000E94CA0063
:06031000F5CFF894FFCFC9
:00000001FF
