:100000000C945D000C9472020C9445020C947A00DE
:100010000C947A000C947A000C943B020C947A00B5
:100020000C947A000C9416020C947A000C947A00CA
:100030000C947A000C947A000C947A000C947A0058
:100040000C949F020C947A000C947A000C947A0021
:100050000C947A000C947A000C947A000C947A0038
:100060000C947A000C947A00000000002400270011
:100070002A0000000000250028002B0004040404CE
:100080000404040402020202020203030303030342
:10009000010204081020408001020408102001021F
:1000A00004081020000000070002010000030406FD
:1000B0000000000000000000E90211241FBECFEF85
:1000C000D8E0DEBFCDBF21E0A0E0B1E001C01D92CD
:1000D000AF35B207E1F710E0CDE5D0E004C02197DD
:1000E000FE010E944E05CC35D107C9F70E94F702E8
:1000F0000C9454050C9400008EBD0DB407FEFDCF8A
:100100008EB50895CF93C62F2A981C99FECF0E94D2
:100110007C008C2F0E947C002A9ACF910895862F14
:10012000842B2A981C99FECF0E947C0080E00E94BC
:100130007C002A9A0895862F2A981C99FECF0E9447
:100140007C002A9A089590E0FC01EC55FF4F249121
:10015000FC01E057FF4F3491FC01E458FF4FE4915C
:10016000EE2309F43CC0222339F1233091F038F416
:100170002130A9F0223001F584B58F7D12C02630E0
:1001800091F02730A1F02430B9F4809180008F7D68
:1001900003C0809180008F77809380000DC084B56C
:1001A0008F7784BD09C08091B0008F7703C08091A4
:1001B000B0008F7D8093B000F0E0EE0FFF1FEE588F
:1001C000FF4FA591B4919FB7F894611104C08C9131
:1001D0003095382302C0EC913E2B3C939FBF08958D
:1001E000CF93DF93EC0164E30E949B0081E08A835C
:1001F0008981882351F061E083E10E94A30060E0DF
:1002000082E1DF91CF910C94A300DF91CF9108950B
:10021000CF93DF9390E0FC01E057FF4F2491FC0166
:10022000E458FF4F8491882361F190E0880F991F73
:10023000FC01E859FF4FC591D491FC01EE58FF4FE6
:10024000A591B491611109C09FB7F8948881209558
:1002500082238883EC912E230BC0623061F49FB718
:10026000F8948881322F309583238883EC912E2B4C
:100270002C939FBF06C08FB7F894E8812E2B28835C
:100280008FBFDF91CF9108953FB7F894809105011A
:1002900090910601A0910701B091080126B5A89B95
:1002A00002C02F3F99F43FBFBA2FA92F982F88275C
:1002B000820F911DA11DB11DBC01CD0143E0660F50
:1002C000771F881F991F4A95D1F708950196A11DA0
:1002D000B11DE9CFCF92DF92EF92FF92CF93DF93E0
:1002E0000E944401EB0188EEC82E83E0D82EE12C59
:1002F000F12C0E9444016C1B7D0B683E7340C8F3D7
:1003000081E0C81AD108E108F108C851DC4FC114D6
:10031000D104E104F10469F7DF91CF91FF90EF90F0
:10032000DF90CF9008950F931F93CF93DF93E898BA
:1003300010924B0110924A0180915501813009F0D1
:1003400063C040EC6BE383E591E00E948F00982F3F
:100350009F7769F087FD0BC040E86FE383E591E08C
:100360000E948F00D82F809309018E3318F01092CD
:1003700009012BC02A981C99FECF8FEF0E947C00A8
:100380000AE011E0C0E0DC1741F080E00E947C0050
:10039000F80181938F01CF5FF6CF2A9A40E86FE38F
:1003A00083E591E00E948F008093480140E86FE36D
:1003B00083E591E00E948F00982F9F7790934901E9
:1003C000881F8827881F8093470166E383E591E0B3
:1003D0000E949B006AE383E591E00E949B0083E515
:1003E00091E00E94F00080910901882369F08091DA
:1003F0004701882349F0E0915D01F0915E0130975B
:1004000019F089E091E0099583E991E090934B011F
:1004100080934A01809169008C7F8260809369009B
:10042000E89ADF91CF911F910F9108951F920F923B
:100430000FB60F9211248F939F93AF93BF93809128
:100440004E0190914F01A0915001B0915101019640
:10045000A11DB11D80934E0190934F01A0935001B7
:10046000B0935101BF91AF919F918F910F900FBEAB
:100470000F901F9018951F920F920FB60F92112494
:100480000F900FBE0F901F9018951F920F920FB6EE
:100490000F9211242F933F934F935F936F937F930A
:1004A0008F939F93AF93BF93EF93FF9380914C01F2
:1004B00090914D01892B29F0E0914C01F0914D0173
:1004C0000995FF91EF91BF91AF919F918F917F918E
:1004D0006F915F914F913F912F910F900FBE0F90B1
:1004E0001F9018951F920F920FB60F9211242F9301
:1004F0003F934F935F936F937F938F939F93AF93AC
:10050000BF93EF93FF9380914A0190914B01892B08
:1005100029F0E0914A01F0914B010995FF91EF918B
:10052000BF91AF919F918F917F916F915F914F910B
:100530003F912F910F900FBE0F901F9018951F9213
:100540000F920FB60F9211242F933F938F939F9387
:10055000AF93BF938091010190910201A09103019B
:10056000B09104013091000126E0230F2D3720F4D3
:100570000296A11DB11D05C029E8230F0396A11DF8
:10058000B11D209300018093010190930201A0937B
:100590000301B09304018091050190910601A0919F
:1005A0000701B09108010196A11DB11D80930501BD
:1005B00090930601A0930701B0930801BF91AF91FA
:1005C0009F918F913F912F910F900FBE0F901F9091
:1005D0001895E2E5F1E01482168285EB878387E4C3
:1005E00080878FEF8187128214861386089578940E
:1005F00084B5826084BD84B5816084BD85B5826028
:1006000085BD85B5816085BD80916E0081608093D8
:100610006E00109281008091810082608093810041
:100620008091810081608093810080918000816051
:10063000809380008091B10084608093B1008091AC
:10064000B00081608093B00080917A0084608093D4
:100650007A0080917A00826080937A0080917A009B
:10066000816080937A0080917A00806880937A001C
:100670001092C100F0916600E091800030918100FD
:100680002091B0008FE38093660010926F0010926B
:10069000700080E28093B600109280001092B0004B
:1006A00081E08093B10080938100B09A1092850020
:1006B0001092840090E444E650E060E070E0A1E035
:1006C000915009F43AC0B89A1092B2008091B600E5
:1006D000837189F0B09BFACFB09A10928500109286
:1006E0008400415051096109710981F71092B600E7
:1006F000F09366002DC0A0938100109285001092A7
:100700008400B89BFECF10928100C0918400D091EC
:100710008500C735D44F20F08091660081500AC013
:10072000C0918400D0918500C23FD34F30F48091B6
:1007300066008F5F80936600C3CF1092B600B89AB0
:100740001092B200E0938000309381002093B000BB
:10075000109256011092570161E08AE00E94A300B6
:1007600061E08AE00E94080161E08BE00E940801DC
:1007700060E08CE00E94080161E08DE00E940801C9
:1007800061E08DE00E94A30060E08BE00E94A30086
:1007900080E58CBD60E082E00E9408012A9A85E035
:1007A00090E00197F1F72A988FE090E00197F1F738
:1007B0002A9A8DE490E00197F1F72A981C99FECFD0
:1007C00080E30E947C001C99FECF2A9A6EE280E0B2
:1007D0000E9482006EE281E00E94820066E082E078
:1007E0000E94820067E083E00E9482006DE386E061
:1007F0000E94820066E087E00E94820065E088E057
:100800000E948200C0915A01D09159016D2F84E05D
:100810000E9482006C2F85E00E948200D0935901D3
:10082000C0935A01C0915B016C2F89E00E94820045
:10083000C0935B01C09158016C2F8AE00E94820036
:10084000C093580168E08BE00E94820060E08CE079
:100850000E948200C0915601C23071F0C330B1F0E5
:10086000C130F1F462E28DE00E94820061EB8EE023
:100870000E9482006BE31DC060E18DE00E94820057
:1008800067EA8EE00E94820062E613C063E28DE0B8
:100890000E9482006EE48EE00E94820064EC09C037
:1008A00061E28DE00E94820062E68EE00E9482009A
:1008B00066E78FE00E948200C09356018091570145
:1008C000813011F467EC01C06AEC80E10E94820083
:1008D00063E881E10E94820063E982E10E94820074
:1008E00062E283E10E94820068EF84E10E9482005C
:1008F00065E385E10E94820067E086E10E94820054
:1009000060E287E10E94820068E188E10E94820043
:1009100066E189E10E9482006CE68AE10E94820021
:1009200063E48BE10E94820060E48CE10E9482001B
:1009300061E98DE10E94820067E88EE10E948200F9
:100940006BE68FE10E9482006BEF80E20E948200E2
:1009500066E581E20E94820060E182E20E948200FC
:1009600069EE83E20E9482006AE284E20E948200D1
:1009700060E085E20E9482006FE186E20E948200D0
:1009800061E487E20E94820060E088E20E948200C7
:1009900069E589E20E9482006FE78AE20E94820094
:1009A0006FE38BE20E94820061E88CE20E94820089
:1009B00065E38DE20E94820069E08EE20E9482007F
:1009C00082E08093550183E591E00E94F00040ECC5
:1009D00065E383E591E00E948F00982F9F719D3021
:1009E00041F08131A1F76AE383E591E00E949B0029
:1009F000EECF83EE93E00197F1F740EC65E383E5FA
:100A000091E00E948F008F718351833050F44A9B94
:100A1000FECF4A99FECF40EC6AE383E591E00E9465
:100A20008F0066E383E591E00E949B006BE383E522
:100A300091E00E949B0083E591E00E94F00081E03C
:100A40008093550160E68EE30E9482008FE590E07E
:100A50000197F1F783E591E00E94F00083E991E0CE
:100A600090934B0180934A01809169008C7F826052
:100A700080936900E89A1092520161E081E00E943F
:100A8000080161E081E00E94A3000E946A0160E029
:100A900081E00E94A3000E946A01F3CFEE0FFF1FC6
:0C0AA0000590F491E02D0994F894FFCF2C
:00000001FF
