:100000000C94E2050C940A060C940A060C940A0659
:100010000C940A060C940A060C940A060C940A0620
:100020000C940A060C940A060C940A060C940A0610
:100030000C940A060C940A060C940A060C940A0600
:100040000C94DF060C940A060C940A060C940A061B
:100050000C940A060C940A060C940A060C940A06E0
:100060000C94CE0C0C940A0608000000BE922449A1
:10007000123EABAAAA2ABECDCCCC4C3E00000080DA
:10008000BEABAAAAAA3E00000000BF000000803F4D
:100090000000000000084178D3BB4387D1133D190D
:1000A0000E3CC3BD4282AD2B3E68EC8276BED98F3A
:1000B000E1A93E4C80EFFFBE01C4FF7F3F0000007E
:1000C0000000DB40A4A62EAF2000A1C8D300408DC5
:1000D000AED580A800006000000000000000000015
:1000E0000000000000E00000000000000000000030
:1000F00000000001E000000000000000000000001F
:10010000000001F0000000000000000000000000FE
:100110000003F000000000000000000000000000EC
:1001200007F00000000000000000000000000007D1
:10013000F8000000000000000000000000000FF8C0
:1001400000000003C0007E000001E0007F0FF80007
:10015000000003C000FE000001E000FFEFF8000017
:100160000003C000FE000001E000FFFFF8000000F7
:1001700003C000F00000000F007FFE7FC0000003FE
:10018000C000F00000000F003FFE7FF83FF1FBCF02
:10019000FCFEF3BC3DEFE01FFE7FFF7FFBFFDFFEB9
:1001A000FEFFBC3DEFE01FC6FFFF7FFBFFDFFEFE53
:1001B000FFBC3DEFE00FE3C7FE787BC3DE1EF0FF20
:1001C000BC3DEF0007FF87FC787BC3DE1EF0F83CE8
:1001D0003DEF0001FFFFF0007BC3C01EF0F03C3D8F
:1001E000EF0001F37FE03FFBC3CFFEF0F03C3DEFBB
:1001F0000003E33F807FFBC3DFFEF0F03C3DEF00F8
:1002000007E73C00787BC3DE1EF0F03C3DEF0007C3
:10021000FFBE00787BC3DE1EF0F03C3DEF0007FF21
:10022000FE00787BC3DE1EF0F03C3DEF000FFFFECA
:10023000007FFBFFDFFEF0F03FFDEFE00FFFFF0070
:100240007FFBFFDFFEF0F03FFDEFE00FF9FF003E28
:1002500079F9CF9EF0F01F3DE7E01FF1FF000000AD
:100260000000000000000000001F80FF007FFFFF73
:10027000FFFFFFFFFFFFFFE01C007F007FFFFFFF8E
:10028000FEB46D888D18E000001F007FFFFFFFFEA9
:1002900095AD7DB577E000000F007FFFFFFFFEA565
:1002A000AD9D8D19E0000006007FFFFFFFFEB5AD9C
:1002B000EDB57EE0000000000001800000000000BD
:1002C00000000000038000000000000000000007A4
:1002D000C000000000000000000007C00000000097
:1002E00000000000000FC00000000000000000003F
:1002F0001FE00000000000000000001FE000000000
:100300000000000000003FE00000000000000000CE
:10031000003FF00000000000000000007FF000003F
:1003200000000000001FF87FF00000000000000047
:100330003FFE7FF0000000000000003FFF7FF00064
:100340000000000000001FFFFBE0000000000000B4
:10035000000FFFF9FFC00000000000000FFFF9FFD1
:10036000F800000000000007FFF1FFFF00000000A0
:10037000000003FC73FFFF80000000000001FE3F4F
:10038000FFFF80000000000000FF1E0FFF000000C4
:10039000000000007FFE1FFC000000000000003F86
:1003A000FFFFF8000000000000000FDFFFE000008A
:1003B00000000000001F19FFC00000000000000046
:1003C0003F3CFF00000000000000007E7CF80000C1
:1003D0000000000000007FFE7C0000000000000024
:1003E00000FFFFFC0000000000000000FFFFFE0017
:1003F00000000000000000FFFFFE00000000000001
:100400000001FFEFFE0000000000000001FFCFFE32
:100410000000000000000003FF07FE0000000000D5
:10042000000003FC07FE0000000000000003F003D2
:10043000FE00000000000000018000FE000000003F
:100440000000000000007E0000000000000000002E
:10045000003E000000000000000000000C00000052
:10046000000000078000FC000003C00000000780BF
:1004700001FC000003C0000000078001FC00000335
:10048000C0000000078001E00000001E000000071F
:100490008001E00000001E007FE3F79FF9FDE77890
:1004A0007BDFC0FFF7FFBFFDFDFF787BDFC0FFF7FD
:1004B000FFBFFDFDFF787BDFC0F0F787BC3DE1FFAC
:1004C000787BDE00F0F787BC3DE1F0787BDE000052
:1004D000F787803DE1E0787BDE007FF7879FFDE1D5
:1004E000E0787BDE00FFF787BFFDE1E0787BDE0090
:1004F000F0F787BC3DE1E0787BDE00F0F787BC3D9C
:10050000E1E0787BDE00F0F787BC3DE1E0787BDE60
:1005100000FFF7FFBFFDE1E07FFBDFC0FFF7FFBF9C
:10052000FDE1E07FFBDFC07CF3F39F3DE1E03E7B3C
:10053000CFC00000000000000000000000FFFFFF2F
:10054000FFFFFFFFFFFFFFC0FFFFFFFFFD68DB11A5
:100550001A31C0FFFFFFFFFD2B5AFB6AEFC0FFFF00
:10056000FFFFFD4B5B3B1A33C0FFFFFFFFFD6B5BE3
:10057000DB6AFDC0000306090C0F1215181C1F22B0
:1005800025282B2E303336393C3F414447494C4EC9
:10059000515355585A5C5E60626466686A6C6D6F50
:1005A00070727375767778797A7B7C7C7D7E7E7FBE
:1005B0007F7F7F7F7F7F7F7F7F7F7E7E7D7C7C7B59
:1005C0007A79787776757372706F6D6C6A68666425
:1005D00062605E5C5A585553514E4C494744413F06
:1005E0003C393633302E2B2825221F1C1815120FAC
:1005F0000C09060300FDFAF7F4F1EEEBE8E4E1DEA6
:10060000DBD8D5D2D0CDCAC7C4C1BFBCB9B7B4B28C
:10061000AFADABA8A6A4A2A09E9C9A9896949391E5
:10062000908E8D8B8A898887868584848382828157
:10063000818181812200FF2100537065637472758E
:100640006D00487A0053746172743D30487A2053CB
:10065000746F703D004646542062696E733D000021
:100660000000080002010000030407000000000071
:10067000000000000103070F1F3F7F0080C0E0F073
:10068000F8FCFE00000000003E5B4F5B3E3E6B4FFF
:100690006B3E1C3E7C3E1C183C7E3C181C577D5714
:1006A0001C1C5E7F5E1C00183C1800FFE7C3E7FFC0
:1006B0000018241800FFE7DBE7FF30483A060E2653
:1006C00029792926407F050507407F05253F5A3CAB
:1006D000E73C5A7F3E1C1C08081C1C3E7F14227FEE
:1006E00022145F5F005F5F06097F017F00668995C6
:1006F0006A606060606094A2FFA29408047E0408AF
:1007000010207E201008082A1C08081C2A08081E31
:10071000101010100C1E0C1E0C30383E3830060E17
:100720003E0E06000000000000005F000000070011
:100730000700147F147F14242A7F2A1223130864CD
:100740006236495620500008070300001C22410071
:100750000041221C002A1C7F1C2A08083E080800B1
:100760008070300008080808080000606000201051
:100770000804023E5149453E00427F40007249490B
:1007800049462141494D331814127F1027454545EC
:10079000393C4A494931412111090736494949360D
:1007A000464949291E0000140000004034000000A2
:1007B00008142241141414141400412214080201D4
:1007C0005909063E415D594E7C1211127C7F494900
:1007D00049363E414141227F4141413E7F4949499D
:1007E000417F090909013E414151737F0808087F93
:1007F00000417F41002040413F017F081422417F9A
:10080000404040407F021C027F7F0408107F3E4131
:1008100041413E7F090909063E4151215E7F091988
:100820002946264949493203017F01033F404040A0
:100830003F1F2040201F3F4038403F63140814638F
:1008400003047804036159494D43007F414141024B
:1008500004081020004141417F040201020440408D
:10086000404040000307080020545478407F28444B
:1008700044383844444428384444287F3854545435
:100880001800087E090218A4A49C787F0804047844
:1008900000447D40002040403D007F10284400007F
:1008A000417F40007C047804787C08040478384454
:1008B000444438FC1824241818242418FC7C080408
:1008C0000408485454542404043F44243C40402029
:1008D0007C1C2040201C3C4030403C4428102844D4
:1008E0004C9090907C4464544C4400083641000085
:1008F00000770000004136080002010204023C2695
:1009000023263C1EA1A161123A4040207A3854545B
:1009100055592155557941225454784221555478DE
:100920004020545579400C1E527212395555555974
:10093000395454545939555454580000457C410099
:1009400002457D420001457C407D1211127DF02858
:100950002528F07C545545002054547C547C0A09C9
:100960007F4932494949323A4444443A324A484834
:10097000303A4141217A3A42402078009DA0A07D42
:100980003D4242423D3D4040403D3C24FF242448FE
:100990007E4943662B2FFC2F2BFF0929F620C088A8
:1009A0007E090320545479410000447D4130484879
:1009B0004A32384040227A007A0A0A727D0D193193
:1009C0007D2629292F28262929292630484D4020EF
:1009D000380808080808080808382F10C8ACBA2FCB
:1009E000102834FA00007B000008142A1422221474
:1009F0002A14085500550055AA55AA55AAFF55FFB7
:100A000055FF000000FF00101010FF00141414FF29
:100A1000001010FF00FF1010F010F0141414FC0070
:100A20001414F700FF0000FF00FF1414F404FC147A
:100A30001417101F10101F101F1414141F00101073
:100A400010F0000000001F101010101F10101010E8
:100A5000F010000000FF101010101010101010FF08
:100A600010000000FF140000FF00FF00001F10171F
:100A70000000FC04F414141710171414F404F40008
:100A800000FF00F714141414141414F700F71414CE
:100A900014171410101F101F141414F4141010F055
:100AA00010F000001F101F0000001F14000000FCC9
:100AB000140000F010F01010FF10FF141414FF14B5
:100AC0001010101F00000000F010FFFFFFFFFFF0EC
:100AD000F0F0F0F0FFFFFF0000000000FFFF0F0F3D
:100AE0000F0F0F3844443844FC4A4A4A347E02020D
:100AF0000606027E027E0263554941633844443C47
:100B000004407E201E2006027E020299A5E7A599D8
:100B10001C2A492A1C4C7201724C304A4D4D30300F
:100B200048784830BC625A463D3E494949007E01FA
:100B300001017E2A2A2A2A2A44445F444440514A19
:100B4000444040444A51400000FF0103E080FF0060
:100B50000008086B6B083612362436060F090F069C
:100B6000000018180000001010003040FF010100C4
:100B70001F01011E00191D1712003C3C3C3C0000E7
:100B800000000000000000250028002B00000000ED
:100B900000240027002A00040404040404040402BE
:100BA000020202020203030303030301020408100A
:100BB00020408001020408102001020408102000D7
:100BC000071BF81A11241FBECFEFD8E0DEBFCDBF40
:100BD00011E0A0E0B1E0EAE7FEE302C005900D926B
:100BE000A634B107D9F723E0A6E4B1E001C01D9215
:100BF000AA35B207E1F715E0C1EED5E004C02197B0
:100C0000FE010E94851BC03ED107C9F70E946714F0
:100C10000C94301F0C940000CF92DF92EF92FF9261
:100C20000F931F93CF93DF936C017A018B01C0E088
:100C3000D0E0CE15DF0581F0D8016D918D01D60190
:100C4000ED91FC910190F081E02DC6010995892B71
:100C500011F02196EECF7E01C701DF91CF911F9158
:100C60000F91FF90EF90DF90CF9008951F93CF9357
:100C7000DF93EC01162F8D8D9E8D892BB1F02DA960
:100C80003EA94FA958AD60E074E284EF90E00E9465
:100C9000631BDA01C9014097A109B109B695A7956F
:100CA000979587958093B8000FC08B8D9C8D892B6D
:100CB00021F08EAD9FAD0E94CB0CEFA5F8A99081DD
:100CC0008CA9809589238083111102C066EA01C036
:100CD00067EACE010E94680C8D8D9E8D892BB1F044
:100CE00029AD3AAD4BAD5CAD60E074E284EF90E0CD
:100CF0000E94631BDA01C9014097A109B109B695A9
:100D0000A795979587958093B8000FC0EFA5F8A990
:100D100090818CA9892B80838B8D9C8D892B29F0C8
:100D2000DF91CF911F910C94600CDF91CF911F91B7
:100D300008950E94241F0F931F93CF93DF93DC012C
:100D40005696EC915697E23071F0E330E9F0E130DD
:100D500079F5FB0114960D90BC91A02DA41BB50B49
:100D6000A21BB30B18C0EC01EC81FD81E61BF70B55
:100D7000BF0161507109EE81FF81DF01A41BB50B3A
:100D8000AD01421B530B14C0DA01EC01EE81FF816F
:100D9000E61BF70B3197F7FD0DC0EC014E815F812B
:100DA000E417F5073CF4AF01BD010E949F1202C099
:100DB0000E940613DF91CF911F910F9108951F920A
:100DC0000F920FB60F9211242F933F938F939F93FF
:100DD000AF93BF938091540290915502A091560217
:100DE000B09157023091530223E0230F2D3720F4A6
:100DF0000196A11DB11D05C026E8230F0296A11D75
:100E0000B11D209353028093540290935502A093F6
:100E10005602B09357028091BB029091BC02A09100
:100E2000BD02B091BE020196A11DB11D8093BB020F
:100E30009093BC02A093BD02B093BE02BF91AF914C
:100E40009F918F913F912F910F900FBE0F901F9008
:100E50001895FC0177FDB9C08085918568177907E1
:100E60000CF0B3C057FDB1C0828593854817590770
:100E70000CF008958689823079F484819581DC01B3
:100E8000A61BB70BBD016150710986819781DC01FA
:100E9000A41BB50BAD010EC0833009F084C06427DC
:100EA0007527CA01862797276827792746815781A2
:100EB000481B590B415051092130310531F048F19F
:100EC0002230310509F44AC00895CA0157FD07963A
:100ED0009C01A3E035952795AA95E1F7A481B581FA
:100EE0002A9FC0012B9F900D3A9F900D1124680FEF
:100EF000791F078CF0A1E02DE60FF71F47705527EB
:100F000081E090E001C0880F4A95EAF79081892B33
:100F100048C0CA0157FD07969C0193E03595279577
:100F20009A95E1F7A481B5812A9FC0012B9F900D6E
:100F30003A9F900D1124680F791F078CF0A1E02DC6
:100F4000E60FF71F4770552781E090E001C0880F3A
:100F50004A95EAF780959081892323C0CA0157FDFD
:100F600007969C0183E0359527958A95E1F7A48142
:100F7000B5812A9FC0012B9F900D3A9F900D11249F
:100F8000680F791F078CF0A1E02DE60FF71F47705F
:100F9000552781E090E001C0880F4A95EAF79081DB
:100FA000892780830895813009F086CF64277527CB
:100FB000462757276427752784819581DC01A61B66
:100FC000B70BBD016150710977CF08950895FC01F9
:100FD0006370668B8481958126813781613039F019
:100FE000633029F09187808733872287089531877E
:100FF00020879387828708956F927F928F929F9226
:10100000AF92BF92CF92DF92EF92FF920F931F9316
:10101000CF93DF93EC014B015A0169013801E8815C
:10102000F9810284F385E02D0995E881F981028830
:10103000F389E02D87019601A501B401CE01099540
:10104000A501460D571D41505109E881F9810288DB
:10105000F389E02D9601B401CE010995E881F9816B
:101060000088F189E02D9301A501B401CE01099515
:10107000C80CD91CB60161507109E881F98100885A
:10108000F189E02D9301A501CE010995E881F9814F
:101090000688F789E02DCE01DF91CF911F910F9146
:1010A000FF90EF90DF90CF90BF90AF909F908F9088
:1010B0007F906F9009948F929F92AF92BF92CF9240
:1010C000DF92EF92FF920F931F93CF93DF934C0128
:1010D0006B015A01E901DC01ED91FC916217730784
:1010E00081F40417150724F48B2D5801042F182FB1
:1010F0000A191B0998012F5F3F4F048CF58DE02DD5
:1011000012C04017510709F52617370724F48D2D13
:101110006901C62FD82F9E012C193D092F5F3F4F23
:10112000068CF78DE02D8701A501B601C401099554
:10113000DF91CF911F910F91FF90EF90DF90CF90B3
:10114000BF90AF909F908F9008950284F385E02D1B
:101150000995D401ED91FC910488F589E02D9E015B
:10116000A501B601C4010995D401ED91FC91068851
:10117000F789E02DC401DF91CF911F910F91FF906E
:10118000EF90DF90CF90BF90AF909F908F90099499
:10119000EF92FF920F931F93DC011A960D911C9111
:1011A0001B9718962D913C911997ED91FC9100A0F9
:1011B000F1A1E02D7B0140E050E060E070E0099596
:1011C0001F910F91FF90EF9008954F925F926F9251
:1011D0007F928F929F92AF92BF92CF92DF92EF92C7
:1011E000FF920F931F93CF93DF936C012B015A0152
:1011F00039014801DC01ED91FC910284F385E02D79
:101200000995E201640C751CD601ED91FC91C6159F
:10121000D7055CF40088F189E02D87019401A501D0
:10122000BE01C60109952196EFCF0688F789E02D0A
:10123000C601DF91CF911F910F91FF90EF90DF904A
:10124000CF90BF90AF909F908F907F906F905F9066
:101250004F9009948F929F92AF92BF92CF92DF925C
:10126000EF92FF920F931F93CF93DF93EC015B01FB
:101270004A016901E881F9810284F385E02D09952D
:1012800095012C0D3D1D21503109E881F98104881B
:10129000F589E02D78018401A401B501CE010995FD
:1012A000E881F9810688F789E02DCE01DF91CF91A1
:1012B0001F910F91FF90EF90DF90CF90BF90AF9074
:1012C0009F908F9009948F929F92AF92BF92CF92EE
:1012D000DF92EF92FF920F931F93CF93DF93EC0176
:1012E0005B014A0169017801E881F9810284F38593
:1012F000E02D0995C80CD91C860101501109E8811F
:10130000F9810488F589E02D9501A401B501CE018C
:101310000995E881F9810688F789E02DCE01DF91F2
:10132000CF911F910F91FF90EF90DF90CF90BF90E2
:10133000AF909F908F9009940895EF92FF920F9332
:101340001F93DC01ED91FC9100A0F1A1E02D099526
:101350001F910F91FF90EF9008950F931F93DC0161
:10136000ED91FC91068CF78DE02D09951F910F9161
:1013700008950F931F93DC01ED91FC91048CF58D82
:10138000E02D09951F910F910895DC01ED91FC91DD
:101390000084F185E02D09942F923F924F925F9245
:1013A0006F927F928F929F92AF92BF92CF92DF9275
:1013B000EF92FF920F931F93CF93DF9300D000D053
:1013C00000D0CDB7DEB72C017E836D836A01590151
:1013D000C801FC82EB824801841A950A97FE03C07B
:1013E00091948194910835012D813E81621A730A8E
:1013F00077FE03C0719461947108681479045CF4F9
:101400003A2D2B2D5C01832F922F3D812E81DE8280
:10141000CD82C32ED22EAD81BE81AA16BB065CF44E
:101420003C2D2D2D6C01832F922F3D812E81BE826C
:10143000AD82A32EB22E85012D813E81021B130B9E
:101440001C012C183D0837FE03C03194219431084B
:10145000780117FF03C03FEFE31AF30AF594E7940E
:10146000C816D9062CF08FEF9FEF9A83898304C0AA
:10147000A1E0B0E0BA83A9832D813E81A216B30614
:1014800024F1D201ED91FC910484F585E02D2B81AE
:101490003C816814790424F44D815E81B60103C057
:1014A000A6016D817E81C2010995E218F308F7FE5D
:1014B00006C029813A81C20ED31EE00EF11E8D8135
:1014C0009E8101969E838D83D7CF26960FB6F89482
:1014D000DEBF0FBECDBFDF91CF911F910F91FF9067
:1014E000EF90DF90CF90BF90AF909F908F907F90C4
:1014F0006F905F904F903F902F90089585ED80936F
:10150000BC008091BC0084FDFCCF1092E5020895E0
:1015100040919802262F30E0240F311D21323105F1
:10152000DCF42091E5022430C9F4FC0180E090E075
:10153000861758F4309198022191DC01A858BD4FCC
:10154000A30FB11D2C930196F3CF80919802680FE1
:101550006093980280E0089581E0089582E0089504
:1015600008950895E0914B0180914A01E81730F405
:10157000F0E0E85AFD4F808190E008958FEF9FEFF3
:10158000089590914B0180914A01981750F4E92FEA
:10159000F0E0E85AFD4F208130E09F5F90934B01CF
:1015A00002C02FEF3FEFC901089580914A0190E0FA
:1015B00020914B01821B91090895CF92DF92EF9207
:1015C000FF920F931F93CF93DF937C01CB018A018E
:1015D0002091E602222389F0EB016B01C40ED51E97
:1015E000CC15DD0569F06991D701ED91FC91019071
:1015F000F081E02DC7010995F3CF642F0E94880A7E
:10160000C801DF91CF911F910F91FF90EF90DF9074
:10161000CF900895CF93DF931F92CDB7DEB7698344
:101620002091E6022223D1F020910903203240F0DC
:1016300021E030E0FC013383228380E090E015C09C
:101640008091E702E82FF0E0E851FD4F9981908307
:101650008F5F8093E7028093090305C061E0CE01AC
:1016600001960E94880A81E090E00F90DF91CF916F
:101670000895089580E090E008950F931F93DC0192
:101680005696EC915697E23061F0E33009F1E13083
:1016900081F51496ED91FC911597E41BF50B3197AC
:1016A00023C0DC011496ED91FC911597DF01A61B78
:1016B000B70BBD01DC011696ED91FC911797DF0188
:1016C000A41BB50BAD0141505109621B730B11C036
:1016D000FA01DC0116964D915C911797DA01A61B71
:1016E000B70BBD01621B730BAB01BF010E94061358
:1016F0000CC057FD0AC0DC011696ED91FC911797BE
:101700004E175F0714F40E949F121F910F910895C6
:101710008F929F92AF92CF92EF92FF920F931F936F
:10172000CF93DF93EC01262F898D9A8D009709F0D6
:1017300042C06A3059F41D861C862D898E859F858E
:1017400038E0239F800D911D112443C06D3009F4B2
:10175000AAC08F898823C9F03C898C859D8546E085
:10176000349F800D911D11244885598548175907CC
:1017700064F41D861C863D898E859F8548E0349FD4
:10178000800D911D11249F878E87EA88FB88088928
:1017900019894E855F856C857D85AD88CC88CE01A5
:1017A0000E946B102C898C859D8536E0239F800DCF
:1017B000911D11243EC06A3079F41D861C862D8946
:1017C000FC013696E4918E859F852E9F800D911D9C
:1017D00011249F878E8767C06D3009F464C0FC01B7
:1017E00034963491631708F45EC03196E491E6179D
:1017F00008F459C0462F431B342FFC0132968590C4
:10180000949047E0349F800C911C1124F40132968F
:1018100034913196E491332311F0E1110DC0F401BC
:101820003496E4912C898C859D85E29F800D911DD5
:1018300011249D878C8737C0F401359644915F89C8
:10184000552319F15C89E32FF0E0E40FF11D47FD0A
:10185000FA955E9FB0015F9F700D11244C855D85E8
:10186000460F571F688579856417750774F41D86C0
:101870001C863D89FC013696E4918E859F853E9FAE
:10188000800D911D11249F878E87EA88FB88088927
:1018900019894E855F856C857D85AD88CC88CE01A4
:1018A0000E946B10BCCF81E090E0DF91CF911F913F
:1018B0000F91FF90EF90CF90AF909F908F900895F1
:1018C00008958EBD00000DB407FEFDCF8EB50895BE
:1018D0001F93CF93DF93FC01858D968D009729F19F
:1018E000162FEF0121A131E03093E6022093080387
:1018F0001092E70210920903DC01ED91FC91019036
:10190000F081E02D60E009958D8D9E8DDC01ED91DB
:10191000FC910190F081E02D612F09958D8D9E8DB8
:10192000DF91CF911F910C940F0FA5A5B6A59C91A7
:1019300083A9809589238C93838D948D892B31F095
:10194000862FDF91CF911F910C94610C28E030E03D
:1019500080E8A1A5B2A591A9462F482319F04C9182
:10196000942B03C04C91909594239C93A3A5B4A56C
:101970004C9192A9942B9C93A3A5B4A54C9192A9A8
:10198000909594239C9386952150310911F7DF910E
:10199000CF911F9108958CBD9DBD08951F920F9208
:1019A0000FB60F9211242F933F934F935F936F9332
:1019B0007F938F939F93AF93BF93EF93FF93809108
:1019C000B900887F803609F49CC068F5883209F434
:1019D0005BC090F4803109F454C038F4882309F4D2
:1019E000F6C0883009F44DC0F6C0883109F44CC007
:1019F000803209F45DC0EFC0803409F468C048F457
:101A0000803309F455C0883309F0E5C08093E302C0
:101A1000D8C0803509F44FC0883509F45DC08834DA
:101A200009F0D9C0D6C0883909F4C7C0A8F48837EE
:101A300009F467C038F4883609F463C0803709F4C4
:101A400060C0C9C0883809F4B8C0803909F45FC0E3
:101A5000803809F0C0C05BC0803B09F486C038F410
:101A6000803A09F466C0883A09F47FC0B4C0803C6B
:101A700009F4A7C0883C09F4A4C0883B09F48AC0D3
:101A8000AAC08091C00210C09091E2028091E10250
:101A9000981770F5E091E20281E08E0F8093E202E8
:101AA000F0E0EF53FD4F80818093BB0085EC86C052
:101AB0008093E3028EC0E091E20281E08E0F80937A
:101AC000E2028091BB00F0E0EF53FD4F80839091E4
:101AD000E2028091E1026EC0E091E20281E08E0FAD
:101AE0008093E2028091BB00F0E0EF53FD4F8083D2
:101AF0008091E40281116DC081E08093BF0284EA8D
:101B000061C083E08093E5021092BA02CFCF80914A
:101B1000BA02803208F051C0E091BA0281E08E0F23
:101B20008093BA028091BB00F0E0E656FD4F8083BF
:101B3000BDCF85EC8093BC001092E5028091BA0283
:101B4000803230F4E091BA02F0E0E656FD4F1082A8
:101B50006091BA0270E0E0914601F09147018AE994
:101B600092E009951092BA0236C084E08093E502B3
:101B70001092990210929802E0914801F091490167
:101B8000099580919802811105C081E080939802A7
:101B900010927802E091990281E08E0F8093990271
:101BA000F0E0E858FD4F80818093BB00909199024E
:101BB00080919802981708F479CF85E88093BC004B
:101BC0000AC085EC8093BC001092E50204C010921C
:101BD000E3020E947E0AFF91EF91BF91AF919F9126
:101BE0008F917F916F915F914F913F912F910F90C6
:101BF0000FBE0F901F9018958F929F92AF92BF9239
:101C00000F931F93CF93DF93CDB7DEB7A1970FB696
:101C1000F894DEBF0FBECDBF19A2423008F44AE0EF
:101C20008E010F5D1F4F842E912CA12CB12CA5018C
:101C300094010E94631BE62FB901CA0101501109EA
:101C4000EA3014F4E05D01C0E95CD801EC93232B89
:101C5000242B252B61F70115110571F0F801019076
:101C60000020E9F73197AF01401B510BB8018AE022
:101C700093E00E940C0602C080E090E0A1960FB6AF
:101C8000F894DEBF0FBECDBFDF91CF911F910F91B2
:101C9000BF90AF909F908F90089520911003309146
:101CA0001103C901079697FD079623E0959587953F
:101CB0002A95E1F720910E0330910F03829FA00136
:101CC000839F500D929F500D112460E070E0809131
:101CD000290390912A030C94291F3F924F925F92FF
:101CE0006F927F928F929F92AF92BF92CF92DF922C
:101CF000EF92FF920F931F93CF93DF9300D000D00A
:101D000000D0CDB7DEB72C013B014A015901C90112
:101D1000079697FD07969C0193E0359527959A9530
:101D2000E1F73C832B83C12CD12CE12CF12C312CFD
:101D3000C3018E0D9F1D9A838983E016F106C4F5B9
:101D40001E821D822D813E812A153B054CF5C9015D
:101D500087709927892B11F0330C0EC0ED81FE811D
:101D6000F7FD379683E0F595E7958A95E1F7EC0D59
:101D7000FD1DE80DF91D349037FE0CC021E030E068
:101D800049815A816D817E81640D751D8AE093E0E1
:101D90000E94C5098D819E8101969E838D83D2CF3D
:101DA0009FEFE91AF90A2B813C81C20ED31EC0CFE6
:101DB00026960FB6F894DEBF0FBECDBFDF91CF9150
:101DC0001F910F91FF90EF90DF90CF90BF90AF9059
:101DD0009F908F907F906F905F904F903F9008956D
:101DE00090E0FC01E555F44F2491FC01E956F44FD5
:101DF0008491882399F090E0880F991FFC01E357A4
:101E0000F44FA591B491FC01ED57F44F8591949155
:101E10008FB7F894EC91E22BEC938FBF089530913B
:101E20000903313208F04BC08091E5028111FCCFEB
:101E30009091080322E02093E50221E02093E40240
:101E40002FEF2093E3021092E2023093E102E8EEDA
:101E5000F2E0A1ECB2E020E0321721F041914D9385
:101E60002F5FFACF1092C0022091C002990F922BDF
:101E70009093C0029091BF02913061F41092BF0222
:101E80009091C0029093BB009091BC0093FDF8CF5D
:101E900095EC01C095EE9093BC009091E5029230D4
:101EA000E1F39091E3029F3F79F08091E302803269
:101EB00041F08091E302803331F084E005C081E09D
:101EC00003C082E001C083E01092E7021092090390
:101ED0001092E6020895DF92EF92FF920F931F9304
:101EE000CF93DF93D82ED92FC62F809127039091BF
:101EF0002803009709F454C020912B0331E030935C
:101F0000E602209308031092E70210920903DC0115
:101F1000ED91FC910190F081E02D60E00995ED2CB0
:101F2000FD2E11E0D1E08091270390912803CC236E
:101F300071F11032C8F00E940F0F80912B03D093E3
:101F4000E602809308031092E70210920903809141
:101F5000270390912803DC01ED91FC910190F08121
:101F6000E02D60E0099511E080912703909128030E
:101F7000F7016491DC01ED91FC910190F081E02D7D
:101F800009951F5FC150BFEFEB1AFB0ACCCFDF9161
:101F9000CF911F910F91FF90EF90DF900C940F0F56
:101FA000E0913703F0913803908180913D03809553
:101FB000892380830D2D1D2FCC2309F439C0F8010E
:101FC00084912091250330912603232B31F00E9428
:101FD000610CC1500F5F1F4FEFCF28E030E040E8A9
:101FE000E0913303F091340390913B03582F542335
:101FF00019F05081952B03C05081909595239083C3
:10200000E0913503F0913603508190913C03952B7C
:102010009083E0913503F0913603508190913C0319
:10202000909595239083469521503109C9F6D1CFDB
:10203000DF91CF911F910F91FF90EF90DF90089566
:102040000F931F93CF93DF938C01C0E0D0E0F80192
:10205000EC0FFD1F6491662341F08AE093E00E943B
:10206000880B892B11F02196F2CFCE01DF91CF9111
:102070001F910F910895CF92DF92EF92FF92CF932D
:10208000DF936C01990FEE08FF08F7FE19C06DE2AF
:102090008AE093E00E94880BEC0166277727CB014A
:1020A0006C197D098E099F094AE00E94FC0D8C0F76
:1020B0009D1FDF91CF91FF90EF90DF90CF9008951B
:1020C0004AE0C701B601DF91CF91FF90EF90DF901A
:1020D000CF900C94FC0D2F923F924F925F926F9293
:1020E0007F928F929F92AF92BF92CF92DF92EF92A8
:1020F000FF920F931F93CF93DF93CDB7DEB76B970C
:102100000FB6F894DEBF0FBECDBF9B8F8A8F1B0129
:102110004A01D22E198708873701A982DC01599616
:102120002D913C915A972115310509F0FFC0189661
:102130008D919C911997681779070CF0E7C11A9651
:102140008D919C911B97481759070CF0DFC1EC2D1E
:10215000F0E0FB83EA839B0146E0C49E200D311D25
:1021600011243D872C87121613060CF0CFC16A2D5F
:1021700070E07B876A8783E0660F771F8A95E1F7B7
:102180007F876E87CB01880D991D181619060CF0F4
:10219000BDC158968C91811104C08FEA8D1508F449
:1021A000D394AA8DBB8DED91FC9111970284F38598
:1021B000E02DCD010995B5E0DB9EC0011124EC2D89
:1021C000F0E0F98BE88B91012B5F3F4F3B8B2A8B23
:1021D0003D822C822101AC01421953095D8B4C8B4D
:1021E0007981672F70E07F8B6E8BC4010896998F81
:1021F000888FEC89FD89E40DF51DED57F94FD490DA
:1022000054019F828E82D0FE16C0AA8DBB8DED91A7
:10221000FC91B1E0CB1209C02981213031F4048452
:10222000F585E02D2885398519C00684F785E02DD0
:10223000E884F9841DC0488559854615570519F16C
:10224000AA8DBB8DED91FC91B1E0CB120DC029811F
:10225000213051F40484F585E02D9301A501B201EC
:102260008A8D9B8D09950FC00684F785E02D73013B
:102270000A851B852A813B814E815F816C817D812E
:102280008A8D9B8D0995D6943FEFA31AB30A4E8190
:102290005F816E897F89460F571F5F834E83888DCC
:1022A000998DA816B90609F0AECF9FEF491A590AC1
:1022B000AC81BD81E889F989AE0FBF1FBD83AC83B6
:1022C0002A893B894216530609F093CF48855985E0
:1022D0004615570509F4F8C0AA8DBB8DED91FC9108
:1022E000B1E0CB1211C02981213071F4B1016B5FD3
:1022F0007F4F0088F189E02D830128E030E0A401C0
:102300008A8D9B8D0995E0C06C857D854A815B81B6
:10231000641B750B0684F785E02D73010E851F8500
:102320009A01A4018A8D9B8D0995CEC0F90134963E
:10233000E491DE1AF901329685919491B7E0DB9E23
:10234000800D911D1124F901259134913B8B2A8B2D
:10235000FC01259134915901FC013296549031963B
:1023600034913C87329674903196149141E04C152B
:1023700018F05981523068F0672D072C000C770B4C
:102380007D836C83812F012E000C990B9B838A83A4
:1023900004C01B821A821D821C82AA8DBB8DED9106
:1023A000FC9111970284F385E02DCD010995412C14
:1023B000D12C612CF981EF2FF0E0FF83EE832C2DDF
:1023C00030E03B872A87A401410F511D17FD5A9524
:1023D0005F8B4E8BB101670D711D77FC7A95798FFC
:1023E000688F7C85671608F06FC0262D30E04A8123
:1023F0005B81420F531FAE81BF81A49FC001A59F87
:10240000900DB49F900D1124F401E80FF91FF98B82
:10241000E88B842D712C4E895F89420F531F5D8B91
:102420004C8B751408F04DC051E0580F5E878770D3
:1024300041F4C5010196EA89FB89EA0DFB1DD490A0
:102440005C01D7FE3AC061E0C61216C079817130D6
:1024500099F4AA8DBB8DED91FC9111970484F585BB
:10246000E02D288539854C895D89688D798D670DCA
:10247000711DCD01099521C08C819D81870D911D14
:10248000EA85FB858E9FB0018F9F700D9E9F700D1A
:102490001124620D731DAA8DBB8DED91FC911197D6
:1024A0000684F785E02DE884F9840E811F812A8552
:1024B0003B8548895989CD010995DD0C73948E853A
:1024C000B0CF450C63948DCFAA8DBB8DED91FC915F
:1024D00011970688F789E02DCD016B960FB6F89419
:1024E000DEBF0FBECDBFDF91CF911F910F91FF9047
:1024F000EF90DF90CF90BF90AF909F908F907F90A4
:102500006F905F904F903F902F9009946B960FB60D
:10251000F894DEBF0FBECDBFDF91CF911F910F9119
:10252000FF90EF90DF90CF90BF90AF909F908F90F3
:102530007F906F905F904F903F902F9008950F93F2
:102540001F93CF93DF9377FF04C0260F371F60E000
:1025500070E0DC011496CD91DC911597FB01E20F40
:10256000F31FCE17DF071CF49E01261B370B121634
:1025700013060CF046C0FA0157FD3796DF01E3E081
:10258000B595A795EA95E1F7AC9FF001AD9FF00DE9
:10259000BC9FF00D11246E0F7F1FDC015F96ED9143
:1025A000FC919097E60FF71F4770552781E090E068
:1025B00001C0880F4A95EAF7482F0130110539F01C
:1025C00078F002301105E9F42E0F3F1F13C02E0FD3
:1025D0003F1FE217F307A9F08081842B8193F9CF85
:1025E00080952E0F3F1FE217F30759F09081982333
:1025F0009193F9CFE217F30721F08081842781932B
:10260000F9CFDF91CF911F910F910895EF92FF9233
:102610000F931F93CF93DF93EC0177FDA5C0EC8060
:10262000FD806E157F050CF09FC057FF04C0240F7E
:10263000351F40E050E08E819F81FA01E20FF31FC9
:102640008E179F071CF49C01241B350B12161306D2
:102650000CF08AC0922F842F8695869586958E9D44
:10266000D0018F9DB00D11246A0F7B1FAF8DB8A1D3
:10267000A60FB71F4770B1F188E0841B482F682F61
:1026800070E0FB01E558F94FE491281798F4621BBC
:1026900071092FEF30E002C0359527956A95E2F772
:1026A000E2230130110549F078F00230110509F0FC
:1026B0005BC00EC00130110519F48C91E82B0AC0E3
:1026C0000130110508F049C0E0958C91E82302C063
:1026D0008C91E827EC93941708F446C02C813D8137
:1026E000A20FB31FE92FE41BE830F8F00230110508
:1026F00061F48E2F9C9190959C932C813D81A20F2B
:10270000B31F88508830B0F70FC081E00115110564
:1027100009F480E081959E2F8C932C813D81A20F3E
:10272000B31F98509830C0F7E770EE23E9F0F0E05F
:10273000ED58F94FE4910130110539F048F00230BD
:10274000110591F48C91E82706C08C91E82B03C009
:10275000E0958C91E823EC9307C00230110509F451
:10276000B7CFAE0DBF1DBECFDF91CF911F910F919F
:10277000FF90EF90089590E0FC01E15AF94F249109
:10278000FC01E555F44F3491FC01E956F44FE49116
:10279000EE2309F43CC0222339F1233091F038F4C0
:1027A0002130A9F0223001F584B58F7D12C0273089
:1027B00091F02830A1F02430B9F4809180008F7D11
:1027C00003C0809180008F77809380000DC084B516
:1027D0008F7784BD09C08091B0008F7703C080914E
:1027E000B0008F7D8093B000F0E0EE0FFF1FED573B
:1027F000F44FA591B4919FB7F894611104C08C91E6
:102800003095382302C0EC913E2B3C939FBF089536
:102810003FB7F8948091BB029091BC02A091BD0299
:10282000B091BE0226B5A89B05C02F3F19F00196B6
:10283000A11DB11D3FBFBA2FA92F982F8827820F46
:10284000911DA11DB11DBC01CD0142E0660F771F96
:10285000881F991F4A95D1F708958F929F92AF9242
:10286000BF92CF92DF92EF92FF926B017C010E94A8
:1028700008144B015C01C114D104E104F104F1F02E
:102880000E940814DC01CB0188199909AA09BB0927
:10289000883E9340A105B10570F321E0C21AD1082A
:1028A000E108F10888EE880E83E0981EA11CB11C97
:1028B000C114D104E104F10419F7DDCFFF90EF90CA
:1028C000DF90CF90BF90AF909F908F900895CF935F
:1028D000DF93CDB7DEB729970FB6F894DEBF0FBEF2
:1028E000CDBF789484B5826084BD84B5816084BD99
:1028F00085B5826085BD85B5816085BD80916E009E
:10290000816080936E0010928100809181008260CE
:10291000809381008091810081608093810080910B
:1029200080008160809380008091B10084608093FA
:10293000B1008091B00081608093B00080917A00F6
:10294000846080937A0080917A00826080937A001C
:1029500080917A00816080937A0080917A0080680B
:1029600080937A001092C1008091290390912A03EC
:10297000892B11F52091100330911103C90107969D
:1029800097FD0796B3E095958795BA95E1F7209165
:102990000E0330910F03AC01429FC001439F900D85
:1029A000529F900D11240E94031E90932A0380933E
:1029B0002903892B09F42CC10E944D0E809110032C
:1029C00090911103813291050CF4F2C4BC01605462
:1029D000710977FF02C06F5F7F4F75956795809192
:1029E0000E0390910F038255910997FD019600E423
:1029F00010E022E530E044EB52E0959587950E9487
:102A00006D0E82E080932C03809127039091280320
:102A1000892B09F4E5C48CE380932B0310924B01BE
:102A200010924A011092E702109209031092E502F7
:102A300081E08093E4021092BF0261E082E10E9493
:102A4000BB1361E083E10E94BB138091B9008E7FCC
:102A50008093B9008091B9008D7F8093B90088E49C
:102A60008093B80085E48093BC0080EB9AE090935B
:102A700049018093480181EB9AE09093470180934C
:102A800046018091320387FD1DC00E94F00E61E077
:102A9000809132030E94BB1361E070E080E090E01F
:102AA0000E942D1460E0809132030E94BB136AE003
:102AB00070E080E090E00E942D1461E0809132038C
:102AC0000E94BB138091270390912803892B09F45E
:102AD00041C520913F033091400340914103509103
:102AE000420360E074E284EF90E00E94631BDA012D
:102AF000C9014097A109B109B695A7959795879502
:102B00008093B80064E080ED90E00E946B0F6091CC
:102B1000100361508AE093E00E94680C64E08CEC42
:102B200090E00E946B0F80912C03813009F029C541
:102B300060E18AE093E00E94680C64E088EC90E039
:102B40000E946B0F8FE88093470380910E03909152
:102B50000F038038910509F018C5809110039091FA
:102B600011038034910509F025C580912C03813033
:102B700009F009C58FE98093470392E199836AEDD3
:102B80008AE093E00E94680C69818AE093E00E94E9
:102B9000680C61E88AE093E00E94680C609147034A
:102BA0008AE093E00E94680C69ED8AE093E00E945D
:102BB000680C80912C03813009F005C562E28AE03F
:102BC00093E00E94680C66E082EC90E00E946B0F3C
:102BD0008091270390912803892B09F4F6C4209152
:102BE000430330914403409145035091460360E014
:102BF00074E284EF90E00E94631BDA01C901409700
:102C0000A109B109B695A795979587958093B800C6
:102C100081E08093000188EC90E090934E018093D6
:102C20004D0168EE73E080E090E00E942D140E9458
:102C3000081460934F027093500280935102909356
:102C400052027FE4C72E71E0D72E8601EFECEE2E04
:102C5000E1E0FE2E8091000120E4829FC00111245A
:102C600080937C0080917A00806480937A008091C8
:102C70007A0086FDFCCF8091780090917900D70191
:102C80008D937D01F80111928F010E9408148090AC
:102C90004F0290905002A0905102B09052022091A9
:102CA0004D0130914E012901612C712CAB01BC0109
:102CB000481959096A097B094415550566057705C0
:102CC00020F3D501C401840D951DA61DB71D809369
:102CD0004F0290935002A0935102B0935202FFE42E
:102CE000EF16F2E0FF0609F0B5CFEFECF1E080E07F
:102CF00090E041E050E020E830E035952795B901BB
:102D0000680F791F60387105C4F7B9016150710906
:102D100086239723820F931F48175907A4F4218114
:102D2000DC01A153BE4F3C9131832C93D601119607
:102D30002C91BC01615B7E4FDB013C91D601119669
:102D40003C93DB012C934F5F5F4F3196BFEFCB1A63
:102D5000DB0A4038510579F617E0612E712C882482
:102D60008394912C6D82B401660F771F80E090E010
:102D70009C010D8002C0220F331F0A94E2F7F90173
:102D8000EC54FA4F4491F901EC58FA4FE491042EB7
:102D9000000C550B9A01359527953A832983E195C7
:102DA0000E2E000CFF0BAF01559547955C834B83AE
:102DB000F401E80FF91FDF01A153BE4F5D019F0130
:102DC000215B3E4F39872887DC01A153BE4FAC0100
:102DD000415B5E4F5F834E83F5010081002E000C46
:102DE000110B29813A81209FA001219F500D309F16
:102DF000500D1124F6E055954795FA95E1F7E885D1
:102E0000F985E0800E2C000CFF08EB81FC81EE9D23
:102E10009001EF9D300DFE9D300D1124E6E03595BB
:102E20002795EA95E1F7F42FF1705F2E6901D594AB
:102E3000C794D52CDC18559547954D0D2170D42E8F
:102E4000D21A29813A812E9DA0012F9D500D3E9DC1
:102E5000500D1124E6E055954795EA95E1F7EB8191
:102E6000FC81E09F9001E19F300DF09F300D112417
:102E7000F6E035952795FA95E1F77901F594E79411
:102E80008A01159507950E0D4170040F2170200FD2
:102E9000EE81FF814080042C000C55085594479426
:102EA0002C90022C000C330835942794322D3D19B8
:102EB000F5013083342D321BE885F9853083D20C3F
:102EC000DC92240DEE81FF812083A60EB71E28859B
:102ED0003985260F371F39872887A60FB71FE60FBA
:102EE000F71FFF83EE839D012F5C314020383105B1
:102EF0000CF472CF01968816990609F039CF31E0AB
:102F0000631A71084B0109F02DCF0E944D0E0E94EB
:102F10004D0E10921703109216031092190310927F
:102F2000180341E040931E0340931F0381E090E0AB
:102F300090931D0380931C0390931B0380931A03AB
:102F400085E596E00E94201080E890E00E943B100A
:102F50001092170310921603A8E0B0E0B093190383
:102F6000A093180385E496E00E94201084EC99E079
:102F70000E943B1082E496E00E942010E8E2F0E01C
:102F8000F0931703E093160328E130E03093190320
:102F90002093180389E396E00E94201010921703F3
:102FA0001092160340E150E0509319034093180328
:102FB0001A82198289819A8101961C01998109815D
:102FC0001A8190FD2FC015950795F801E153FE4F2A
:102FD0006081062E000C770B880B990B0E94301C29
:102FE0006B017C01F801E15BFE4F6081062E000C55
:102FF000770B880B990B0E94301C9B01AC010E943F
:10300000141D4B015C01A7019601C701B6010E9486
:10301000141D9B01AC01C501B4010E948C1B0E94D0
:10302000871D6DC00150110915950795F801E153F1
:10303000FE4F6081062E000C770B880B990B0E94C7
:10304000301C6B017C01F801E15BFE4F6081062EB4
:10305000000C770B880B990B0E94301C9B01AC0174
:103060000E94141D4B015C01A7019601C701B60126
:103070000E94141D9B01AC01C501B4010E948C1B70
:103080000E94871D4B015C01810115950795F80190
:10309000E153FE4F6081062E000C770B880B990BD5
:1030A0000E94301C6B017C01F801E15BFE4F6081E6
:1030B000062E000C770B880B990B0E94301C9B018D
:1030C000AC010E94141D2B013C01A7019601C70110
:1030D000B6010E94141D9B01AC01C301B2010E9404
:1030E0008C1B0E94871D9B01AC01C501B4010E948D
:1030F0008C1B20E030E040E05FE30E94141D0E9442
:10310000BC1C20E030E040EA51E40E94141D0E9403
:10311000F81B0FE310E0061B170BEE24E394F12CD1
:1031200029813A814FE350E0B9018AE093E00E949F
:103130005B083A822982D101A038B10509F03ACF63
:103140008091270390912803892BD1F020913F0390
:1031500030914003409141035091420360E074E29A
:1031600084EF90E00E94631BDA01C9014097A10936
:10317000B109B695A795979587958093B80016C025
:103180008091250390912603892B31F0809148038B
:10319000909149030E94CB0CE0913903F0913A03DE
:1031A000908180913E0380958923808365E084E34C
:1031B00096E00E946B0F60910E0361508AE093E0ED
:1031C0000E94680C2091100330911103C9010796E9
:1031D00097FD079633E0959587953A95E1F720910D
:1031E0000E0330910F03829F8001839F100D929FE9
:1031F000100D1124E0912903F0912A03FA83E98349
:1032000080912703909128030E0F1F1F009709F448
:1032100051C020912B03F1E0F093E60220930803C4
:103220001092E70210920903DC01ED91FC910190EC
:10323000F081E02D60E40995FF24F3948091270349
:1032400090912803E981FA810E171F0781F1FFE1B0
:10325000FF15D8F40E940F0F80912B0321E02093DB
:10326000E602809308031092E7021092090380910E
:10327000270390912803DC01ED91FC910190F081EE
:10328000E02D60E40995FF24F39480912703909149
:103290002803E981FA816191FA83E983DC01ED91E8
:1032A000FC910190F081E02D0995F394C7CF0E9425
:1032B0000F0F45C0E0913703F09138039081809162
:1032C0003D03892B8083E981FA81E017F107B9F189
:1032D0008191FA83E9832091250330912603232BE2
:1032E00019F00E94610CEFCF28E030E090E8E09107
:1032F0003303F091340340913B03582F592319F0C5
:103300005081452B03C05081409545234083E09177
:103310003503F0913603508140913C03452B4083A7
:10332000E0913503F0913603408150913C03509574
:1033300045234083969521503109C9F6C4CF809129
:10334000270390912803892BD1F0209143033091DA
:103350004403409145035091460360E074E284EFDA
:1033600090E00E94631BDA01C9014097A109B109ED
:10337000B695A795979587958093B80011C0E09171
:103380003903F0913A03908180913E03892B808329
:103390008091250390912603892B11F00E94600CE7
:1033A00020E030E0232B09F442CC0E9400003FCC07
:1033B000BC016052710977FF02C06F5F7F4F759546
:1033C000679580910E0390910F038357910997FDA4
:1033D000019600E210E023E730E044ED50E00DCB31
:1033E000809130030E94F00E809131030E94F00E14
:1033F00080913003082E000C990BFC01E956F44F24
:10340000E491F0E0EE0FFF1FED57F44F259134915A
:103410003093380320933703FC01E555F44FE491D2
:10342000E0933D0380913103082E000C990BFC01C1
:10343000E956F44FE491F0E0EE0FFF1FED57F44F23
:10344000A591B491B0933A03A0933903FC01E555DB
:10345000F44FE491E0933E038C91E82BEC93809140
:10346000250390912603892B09F433C05FB7598354
:10347000F89480914C01811124C0E1EAFBE0849131
:10348000E5EBFBE09491E82FF0E0EE0FFF1FE35730
:10349000F44FA591B491EC91E92321F461E08AE025
:1034A0000E94BB138AE00E94F00E8CB580618CBD37
:1034B0008CB580648CBD8DE00E94F00E8BE00E9484
:1034C000F00E80914C018F5F80934C0189818FBFFA
:1034D000D8CA80912E030E94F00E80912F030E9483
:1034E000F00E80912E03082E000C990BFC01E9567A
:1034F000F44FE491F0E0EE0FFF1FED57F44F2591EC
:1035000034913093340320933303FC01E555F44F99
:10351000E491E0933B0380912F03082E000C990B5C
:10352000FC01E956F44FE491F0E0EE0FFF1FED5778
:10353000F44FA591B491B0933603A0933503FC01E9
:10354000E555F44FE491E0933C038C91E095E8233A
:10355000EC9397CA8091250390912603892B31F033
:1035600080914803909149030E94CB0CE09139036C
:10357000F0913A03908180913E0380958923808366
:10358000C1CA64E1D6CA8FECF6CA80369105A9F4A7
:103590008091100390911103409791F480912C0336
:1035A000813011F480E101C08FEA80934703A2E0EB
:1035B000A983E5CAB2E0B983E2CAE2E0E983DFCADF
:1035C000F2E0F983DCCA61EFFACAE0913903F091C5
:1035D0003A03908180913E03892B8083809125035B
:1035E00090912603892B09F413CB0E94600C10CB19
:1035F0008DE191E090930B0380930A03809129035E
:1036000090912A03009711F00C949B1E0895AAE450
:10361000B3E013961C921E92129748EE53E060E0BE
:1036200070E014964D935D936D937C9317978BE0A8
:1036300091E011969C938E93EAE0F3E0138212825C
:1036400020E830E03583248380E490E0978386830C
:103650003187208793878287168A15861486178676
:10366000168681E0858B848B2FEF3FEF338B228B87
:10367000318B208B878B108E128E118E8DE191E015
:1036800091838083148E138EB68FA58F10A2178E10
:103690008FEF84A385A386A387A384E080A780E817
:1036A0009AE1A6E0B0E085AB96ABA7ABB0AF80EAFD
:1036B00096E8A1E0B0E081AF92AFA3AFB4AF80E5F0
:1036C00086AF17AE0895A1E21A2EAA1BBB1BFD01FF
:1036D0000DC0AA1FBB1FEE1FFF1FA217B307E407F1
:1036E000F50720F0A21BB30BE40BF50B661F771F49
:1036F000881F991F1A9469F7609570958095909529
:103700009B01AC01BD01CF010895EE0FFF1F059095
:10371000F491E02D09945058BB27AA270E94A31BBF
:103720000C94821C0E94741C38F00E947B1C20F0B8
:1037300039F49F3F19F426F40C94711C0EF4E095B3
:10374000E7FB0C946B1CE92F0E94931C58F3BA17EB
:10375000620773078407950720F079F4A6F50C94A7
:10376000B51C0EF4E0950B2EBA2FA02D0B01B9015C
:1037700090010C01CA01A0011124FF27591B99F0E7
:10378000593F50F4503E68F11A16F040A22F232FF3
:10379000342F4427585FF3CF469537952795A79543
:1037A000F0405395C9F77EF41F16BA0B620B730BEA
:1037B000840BBAF09150A1F0FF0FBB1F661F771F5B
:1037C000881FC2F70EC0BA0F621F731F841F48F410
:1037D000879577956795B795F7959E3F08F0B0CF99
:1037E0009395880F08F09927EE0F97958795089580
:1037F0000E94FF1B6894B1110C94B61C08950E949E
:103800009B1C88F09F5798F0B92F9927B751B0F0BB
:10381000E1F0660F771F881F991F1AF0BA95C9F754
:1038200014C0B13091F00E94B51CB1E008950C9421
:10383000B51C672F782F8827B85F39F0B93FCCF3D4
:10384000869577956795B395D9F73EF490958095D1
:10385000709561957F4F8F4F9F4F0895E89409C0F1
:1038600097FB3EF490958095709561957F4F8F4FB3
:103870009F4F9923A9F0F92F96E9BB279395F695C9
:10388000879577956795B795F111F8CFFAF4BB0F47
:1038900011F460FF1BC06F5F7F4F8F4F9F4F16C0AB
:1038A000882311F096E911C0772321F09EE8872F35
:1038B000762F05C0662371F096E8862F70E060E0F1
:1038C0002AF09A95660F771F881FDAF7880F96956A
:1038D000879597F9089597F99F6780E870E060E011
:1038E00008959FEF80EC089500240A941616170699
:1038F00018060906089500240A94121613061406E1
:1039000005060895092E0394000C11F4882352F043
:10391000BB0F40F4BF2B11F460FF04C06F5F7F4FFB
:103920008F4F9F4F089557FD9058440F551F59F0E2
:103930005F3F71F04795880F97FB991F61F09F3F9C
:1039400079F087950895121613061406551FF2CFC5
:103950004695F1DF08C0161617061806991FF1CF15
:1039600086957105610508940895E894BB2766273C
:103970007727CB0197F908950E94CC1C29ED3BE5F0
:103980004EED5EE30C94141D16F00C94C71D0C94C0
:10399000711C68940C946B1C0E949B1CA8F39923C7
:1039A000C1F3AEF3DF93CF931F930F93FF92C92F11
:1039B000DD2788232AF02197660F771F881FDAF703
:1039C00020E030E040E85FEB9FE3883920F0803E64
:1039D00038F021968F770E948C1BE8E6F0E004C057
:1039E0000E948C1BE5E9F0E00E94DC1D8B01BE010A
:1039F000EC01FB2E6F5771097595771F880B990B9A
:103A00000E94301C28E132E741E35FE30E94271D5A
:103A1000AF2D9801AE01FF900F911F91CF91DF91D3
:103A20000E94A31B0C94821C0E94271D0C94821CD4
:103A30000E94741C38F00E947B1C20F0952311F02A
:103A40000C946B1C0C94711C11240C94B61C0E94D9
:103A5000931C70F3959FC1F3950F50E0551F629F23
:103A6000F001729FBB27F00DB11D639FAA27F00DD7
:103A7000B11DAA1F649F6627B00DA11D661F829FFE
:103A80002227B00DA11D621F739FB00DA11D621FE3
:103A9000839FA00D611D221F749F3327A00D611D00
:103AA000231F849F600D211D822F762F6A2F1124E2
:103AB0009F5750409AF0F1F088234AF0EE0FFF1F15
:103AC000BB1F661F771F881F91505040A9F79E3F6C
:103AD000510580F00C946B1C0C94B61C5F3FE4F312
:103AE000983ED4F3869577956795B795F795E795C2
:103AF0009F5FC1F7FE2B880F911D9695879597F9CB
:103B0000089519F416F40C94711C0C94C71D0E94AE
:103B10009B1CB8F39923C9F3B6F39F57550B87FF46
:103B20000E94D51D0024A0E640EA900180585695D9
:103B3000979528F4805C660F771F881F20F0261762
:103B40003707480730F4621B730B840B2029312997
:103B50004A2BA69517940794202531254A2758F714
:103B6000660F771F881F20F026173707480730F4A5
:103B7000620B730B840B200D311D411DA09581F745
:103B8000B901842F9158880F9695879508959F3F86
:103B900031F0915020F4879577956795B795880F08
:103BA000911D9695879597F9089591505040660F0D
:103BB000771F881FD2F70895DF93CF931F930F933A
:103BC000FF92EF92DF927B018C01689406C0DA2E9F
:103BD000EF010E94271DFE01E894A59125913591E2
:103BE00045915591A6F3EF010E94A31BFE01970199
:103BF000A801DA9469F7DF90EF90FF900F911F9181
:103C0000CF91DF9108950F931F93CF93DF9382306D
:103C1000910510F482E090E0E0915803F09159038F
:103C200020E030E0A0E0B0E0309719F14081518110
:103C30000281138148175907C8F08417950769F462
:103C4000109731F012960C93129713961C9327C07D
:103C5000009358031093590322C02115310519F020
:103C60004217530718F49A01BD01EF01DF01F80173
:103C7000DBCF21153105F9F0281B390B2430310534
:103C800080F48A819B816115710521F0FB0193838A
:103C9000828304C09093590380935803FE013296A7
:103CA00044C0FE01E20FF31F81939193225031092A
:103CB000398328833AC02091560330915703232B30
:103CC00041F4209103013091040130935703209374
:103CD000560320910101309102012115310541F473
:103CE0002DB73EB74091050150910601241B350BBD
:103CF000E0915603F0915703E217F307A0F42E1B4F
:103D00003F0B2817390778F0AC014E5F5F4F24173F
:103D1000350748F04E0F5F1F5093570340935603EB
:103D20008193919302C0E0E0F0E0CF01DF91CF9169
:103D30001F910F910895CF93DF93009709F481C0ED
:103D4000FC01329713821282A0915803B09159035B
:103D5000109781F420813181820F931F20915603A7
:103D6000309157032817390751F5F0935703E09323
:103D7000560367C0ED0120E030E0CE17DF0740F4C6
:103D80004A815B819E0141155105F1F0EA01F5CFB1
:103D9000D383C28340815181840F951FC817D907EF
:103DA00059F488819981840F951F029691838083AD
:103DB0008A819B81938382832115310529F4F093B5
:103DC0005903E09358033DC0E901FB83EA8349911D
:103DD0005991C40FD51FEC17FD0761F480819181C3
:103DE000840F951F0296E9019983888382819381CC
:103DF0009B838A83E0E0F0E012968D919C9113976B
:103E0000009719F0FD01DC01F7CF8D919C9111977E
:103E10009D012E5F3F4F820F931F209156033091DB
:103E200057032817390769F4309729F4109259037A
:103E30001092580302C013821282B0935703A093CA
:103E40005603DF91CF91089581E090E0F8940C94AF
:103E5000301FDC0101C06D9341505040E0F70895E0
:103E600015E0C1EED5E004C0FE010E94851B21963D
:0A3E7000C23ED107C9F7F894FFCF56
:103E7A000100005A032000000000000A0BDD0A3A84
:103E8A000B9C09D50AC10AB20A00000000880B0C73
:103E9A00063A0B390B29079C09C5099D09B909ADD1
:103EAA0009CC099C09E70736069B063D0BE508C8BD
:063EBA00085B08FC070094
:00000001FF
