:100000003DC04CC04BC04AC049C048C047C046C0B4
:1000100045C044C043C042C041C040C0C3C03EC050
:100020003DC03CC03BC03AC039C038C037C036C004
:1000300035C034C0002125292D0023272B2F002275
:10004000262A2E0101010101010101020202020220
:100050000202020303030303030303040404040171
:100060000204081020408001020408102040800192
:1000700002040810204080010204080011241FBE61
:10008000CFEFD2E0DEBFCDBF21E0A0E0B1E001C004
:100090001D92A930B207E1F7CFD034C1B1CFCF93D1
:1000A000DF93ECE6F0E02491E0E5F0E0E491EE236C
:1000B00021F1AE2FB0E0FD01E25CFF4FE491CE2FC5
:1000C000D0E0FD01E75CFF4FA491B0E0922F909546
:1000D00081110AC02FB7F8948881892388838C9175
:1000E00098239C932FBF09C03FB7F894E881E22B77
:1000F000E8838C9198239C933FBFDF91CF91089523
:100100003FB7F8948091050190910601A0910701F5
:10011000B091080126B5A89B05C02F3F19F00196A4
:10012000A11DB11D3FBFBA2FA92F982F8827820F7D
:10013000911DA11DB11DBC01CD0143E0660F771FCC
:10014000881F991F4A95D1F70895CF92DF92EF92B9
:10015000FF92CF93DF93D4DFEB0188EEC82E83E0CC
:10016000D82EE12CF12CCCDF6C1B7D0B683E73404C
:1001700068F0C114D104E104F10469F081E0C81A07
:10018000D108E108F108C851DC4FEDCFC114D1040A
:10019000E104F10441F7DF91CF91FF90EF90DF9000
:1001A000CF9008951F920F920FB60F9211242F93A4
:1001B0003F938F939F93AF93BF9380910101909151
:1001C0000201A0910301B09104013091000126E0E9
:1001D000230F2D3730F029E8230F0396A11DB11D01
:1001E00003C00296A11DB11D20930001809301015F
:1001F00090930201A0930301B09304018091050143
:1002000090910601A0910701B09108010196A11DEE
:10021000B11D8093050190930601A0930701B0934F
:100220000801BF91AF919F918F913F912F910F90B6
:100230000FBE0F901F901895789484B5836084BD8D
:1002400085B5877F85BD85B5887F836085BD8091B5
:100250006E00816080936E0080918100887F809322
:100260008100809180008C7F8160809380008091EC
:100270008100877E8093810080918100887F8360E8
:100280008093810080E18093E80084EA8093E90014
:100290008CEF8093E20080917A00887F8660809363
:1002A0007A0080917A00806880937A00ECE6F0E032
:1002B0002491E0E5F0E0E491EE23E9F08E2F90E068
:1002C000FC01EC5CFF4FE491CE2FD0E0FC01E25C3E
:1002D000FF4FE491FC01E75CFF4F8491A82FB0E051
:1002E0009FB7F8948C91322F309583238C93E881BB
:1002F000E22BE8839FBF81E0D2DE27DF80E0CFDE04
:0803000024DFF9CFF894FFCFD0
:00000001FF
